:020000040800F2
:100000002004002045010008A5050008F3030008AE
:10001000A10500088D010008C908000800000000C3
:100020000000000000000000000000005D06000865
:1000300091010008000000001906000849070008A7
:100040005F0100085F0100085F0100085F01000810
:100050005F0100085F0100085F0100085F01000800
:100060005F0100085F0100085F0100085F010008F0
:100070005F0100085F0100085F0100085F010008E0
:100080005F0100085F0100085F0100085F010008D0
:100090005F0100085F0100085F010008A901000876
:1000A0005F0100085F0100085F0100085F010008B0
:1000B000C10700085F0100085F0100085F01000838
:1000C0005F0100085F0100085F0100085F01000890
:1000D0005F0100085F0100085F0100085F01000880
:1000E0005F0100085F0100085F0100085F01000870
:1000F0005F0100085F0100085F0100085F01000860
:100100005F0100085F0100085F0100085F0100084F
:100110005F0100085F0100085F0100085F0100083F
:100120005F0100085F0100085F0100085F0100082F
:10013000DFF80CD000F018F800480047ED08000880
:10014000200400200648804706480047FEE7FEE7F7
:10015000FEE7FEE7FEE7FEE7FEE7FEE7FEE7FEE777
:100160006107000831010008064C074D06E0E06811
:1001700040F0010394E8070098471034AC42F6D3EE
:10018000FFF7DAFF480900086809000800BFFEE72A
:10019000704700000349086000BF02490968002950
:1001A000FBD170471400002010B54FF4007000F030
:1001B00013F840B14FF40051034800F016F94FF422
:1001C000007000F003F810BD001001400149086004
:1001D0007047000014040140014600200022074B34
:1001E0001B6803EA0102054B14331B680B4013B173
:1001F0000AB1012000E00020704700000004014027
:10020000002123498279002A3AD00A4612680368FD
:100210009A430B461A600A1D126803689A430B1D25
:100220001A60027911440A6803681A430A60184A7E
:100230000832126803689A43154B08331A601A1D76
:10024000126803689A43124B0C331A604279102AE1
:100250000ED11A1F126803681A430D4B08331A6037
:100260001A1D126803681A43094B0C331A600DE01B
:100270000749427911440A6803681A430A6005E095
:10028000027911440A6803689A430A6070470000C3
:100290000004014030B500228B071C0F0F2303FA26
:1002A00004F20B4B8C1053F824309343084C8D1000
:1002B00044F8253023468C1053F824308C07240F43
:1002C00000FA04F42343024C8D1044F8253030BD6D
:1002D000080001402DE9F0410246002500260020DB
:1002E00000230024002791F803C00CF00F0591F8BB
:1002F00003C00CF0100CBCF1000F03D091F802C049
:100300004CEA050591F800C0BCF1000F31D014682B
:1003100000202BE04FF0010C0CFA00F3B1F800C004
:100320000CEA03069E4220D183004FF00F0C0CFA1A
:1003300003F7BC4305FA03FC4CEA040491F803C03C
:10034000BCF1280F06D14FF0010C0CFA00FCC2F8EA
:1003500014C00AE091F803C0BCF1480F05D14FF07A
:10036000010C0CFA00FCC2F810C0401C0828D1D3C4
:100370001460B1F800C0BCF1FF0F34DD54680020F8
:100380002EE000F1080C4FF0010808FA0CF3B1F868
:1003900000C00CEA03069E4221D183004FF00F0CEF
:1003A0000CFA03F7BC4305FA03FC4CEA040491F889
:1003B00003C0BCF1280F05D100F1080C08FA0CF8B5
:1003C000C2F8148091F803C0BCF1480F07D100F1C6
:1003D000080C4FF0010808FA0CF8C2F81080401C15
:1003E0000828CED35460BDE8F081416170470161B7
:1003F000704700BFFEE7000008B50121042000F0AF
:100400001DF90121082000F019F91E20ADF80000A7
:1004100010208DF8030003208DF802006946114872
:10042000FFF758FF4FF40070ADF8000028208DF85A
:10043000030003208DF8020069460B48FFF74AFFCE
:1004400002210848FFF7D1FF04210648FFF7CDFF3E
:1004500008210448FFF7C9FF10210248FFF7C7FF32
:1004600008BD000000080140000C01401FB501213B
:10047000092000F0E3F84FF40070ADF80C004820BC
:100480008DF80F0003208DF80E0003A91448FFF724
:1004900021FF09210120FFF7FDFE4FF40070FFF757
:1004A00095FE4FF40070019000208DF808000C209C
:1004B0008DF8090001208DF80A0001A8FFF7A0FEC1
:1004C00017208DF8000000208DF801008DF8020043
:1004D00001208DF80300684600F066F81FBD00009B
:1004E000000C014030B514480068144AB0FBF2F12A
:1004F000B1F1807F00D31DE021F07F40401E4FF01E
:10050000E022506150170F22002807DA13071D0E52
:100510000B4B00F00F04241F1D5503E013071C0EA6
:10052000084B1C5400BF00204FF0E02290610720D0
:10053000106100BF30BD00000000002040420F00ED
:1005400018ED00E000E400E01FB50121084600F0CE
:1005500065F80120ADF804002320ADF80800002064
:10056000ADF8060001A94FF0804000F05BF90121D1
:10057000880700F037F901221146900700F049F989
:100580001C208DF8000002208DF8010000208DF85D
:10059000020001208DF80300684600F005F81FBD39
:1005A00000BFFEE77047000070B5002100230F2256
:1005B000C47804B3154C246804F4E064C4F5E06422
:1005C000210AC1F10403CA40447804FA03F1847893
:1005D0001440214309010E4C0678A155047804F01B
:1005E0001F050124AC4005786D11AD0005F1E02533
:1005F000C5F8004109E0047804F01F050124AC406F
:10060000044D0678761145F8264070BD0CED00E0EB
:1006100000E400E080E100E07047000029B1064AF4
:10062000D2690243044BDA6104E0034AD26982438F
:10063000014BDA61704700000010024029B1064A00
:1006400092690243044B9A6104E0034A926982432F
:10065000014B9A617047000000100240704710B5CE
:1006600000F002F810BD00000CB5002001900090D1
:100670003348006840F480303149086000BF30489A
:10068000006800F4003000900198401C0190009830
:1006900018B90198B0F5A06FF1D12948006800F4AD
:1006A000003010B10120009001E00020009000987F
:1006B000012843D12348006840F010002149086018
:1006C0000846006820F0030008600846006840F013
:1006D000020008601A4840681949486008464068A6
:1006E00048600846406840F48060486008464068BA
:1006F00020F47C1048600846406840F4E8104860E8
:100700000846006840F08070086000BF0C48006830
:1007100000F000700028F9D00948406820F003007C
:10072000074948600846406840F00200486000BF42
:100730000348406800F00C000828F9D10CBD000007
:1007400000100240002002400448006820B1034825
:100750000068401E01490860704700001400002036
:1007600010B51348006840F00100114908600846C0
:100770004068104908400E494860084600680E4924
:1007800008400B4908600846006820F48020086093
:100790000846406820F4FE0048604FF41F0088605F
:1007A000FFF75DFF4FF000600449086010BD0000D6
:1007B000001002400000FFF8FFFFF6FE08ED00E029
:1007C00010B50121880700F013F840B10448006813
:1007D000401E034908600121880700F006F810BD9B
:1007E00018000020CA4302827047CA430282704741
:1007F00030B50246002000230024158A05EA0103D3
:10080000958905EA010413B10CB1012000E0002034
:1008100030BD1AB183890B43838102E083898B4306
:1008200083817047002202881D4B98420ED01D4BD9
:1008300098420BD0B0F1804F08D01B4B984205D0A6
:100840001A4B984202D01A4B984204D14FF68F733C
:100850001A404B881A43174B984207D0164B9842C0
:1008600004D04FF6FF431A40CB881A4302808B888E
:1008700083850B8803850A4B98420BD0094B98421D
:1008800008D00E4B984205D00D4B984202D00D4B2C
:10089000984201D10B7A03860123838270470000BE
:1008A000002C0140003401400004004000080040DA
:1008B000000C0040001000400014004000400140C7
:1008C000004401400048014000BFFEE702E008C8C4
:1008D000121F08C1002AFAD170477047002001E0BA
:1008E00001C1121F002AFBD17047000008B5FFF7B5
:1008F00083FDFFF7F7FDFFF727FEFFF7B7FD0121A7
:100900001020FFF79BFE4FF40050ADF800001020C0
:100910008DF8030003208DF8020069460848FFF7B0
:10092000D9FC4FF400510648FFF761FD07E0054888
:10093000FFF730FC4FF400510148FFF758FDF6E790
:100940000010014040420F0068090008000000202C
:1009500020000000CC0800088809000820000020C2
:1009600000040000DC08000800A24A0400000000A7
:10097000000000000102030406070809000000004F
:0809800000000000000000006F
:0400000508000145A9
:00000001FF
