:020000040800F2
:1000000028040020450100080D1100084B0F0008CE
:1000100009110008B1010008B9140008000000002F
:10002000000000000000000000000000C5110008F2
:10003000D101000800000000811100082113000810
:100040005F0100085F0100085F0100085F01000810
:100050005F0100085F0100085F0100085F01000800
:100060005F0100085F0100085F0100085F010008F0
:100070005F0100085F0100085F0100085F010008E0
:100080005F0100085F0100085F0100085F010008D0
:100090005F0100085F0100085F010008F10C000823
:1000A0005F0100085F0100085F0100085F010008B0
:1000B000991300085F0100085F0100085F01000854
:1000C0005F0100085F0100085F0100085F01000890
:1000D0005F0100085F0100085F0100085F01000880
:1000E0005F0100085F0100085F0100085F01000870
:1000F0005F0100085F0100085F0100085F01000860
:100100005F0100085F0100085F0100085F0100084F
:100110005F0100085F0100085F0100085F0100083F
:100120005F0100085F0100085F0100085F0100082F
:10013000DFF80CD000F02AF800480047DD14000872
:10014000280400200648804706480047FEE7FEE7EF
:10015000FEE7FEE7FEE7FEE7FEE7FEE7FEE7FEE777
:10016000391300083101000840EA01039B0703D05E
:1001700009E008C9121F08C0042AFAD203E011F8E6
:10018000013B00F8013B521EF9D27047064C074D67
:1001900006E0E06840F0010394E807009847103457
:1001A000AC42F6D3FFF7C8FF041800082418000873
:1001B00000BFFEE710B51021044800F0C4FE102176
:1001C000024800F0BEFE00F0FFFF10BD0008014035
:1001D000704700000349086000BF02490968002910
:1001E000FBD170471400002001B594B01498412849
:1001F0002AD13422FE4906A8FFF7B6FF002013904B
:100200001EE010A81399405C00900DF13600405C90
:1002100005900BA8405C04900DF12200405C06A9FB
:1002200003901398085C029003A90EC900F0CCFC5F
:10023000F0480078FFF7CEFF1398401CC0B213902F
:1002400013980528DDDB00BF149842282CD11C220E
:10025000E74934310CA8FFF787FF002013901FE017
:1002600011A81399405C00900DF13F00405C0B9089
:100270000DF13A00405C0A900DF13500405C0CA98C
:1002800009901398085C089009A90EC900F09CFC1D
:10029000D8480078FFF79EFF1398401CC0B2139017
:1002A00013980528DCDB00BF149843282CD11C22AE
:1002B000CF4950310CA8FFF757FF002013901FE0E3
:1002C00011A81399405C00900DF13F00405C0B9029
:1002D0000DF13A00405C0A900DF13500405C0CA92C
:1002E00009901398085C089009A90EC900F06CFCED
:1002F000C0480078FFF76EFF1398401CC0B21390FF
:1003000013980528DCDB00BF149844282CD11C224C
:10031000B7496C310CA8FFF727FF002013901FE0AE
:1003200011A81399405C00900DF13F00405C0B90C8
:100330000DF13A00405C0A900DF13500405C0CA9CB
:1003400009901398085C089009A90EC900F03CFCBC
:10035000A8480078FFF73EFF1398401CC0B21390E6
:1003600013980528DCDB00BF149845282CD11C22EB
:100370009F4988310CA8FFF7F7FE002013901FE07B
:1003800011A81399405C00900DF13F00405C0B9068
:100390000DF13A00405C0A900DF13500405C0CA96B
:1003A00009901398085C089009A90EC900F00CFC8C
:1003B00090480078FFF70EFF1398401CC0B21390CE
:1003C00013980528DCDB00BF149846282CD11C228A
:1003D0008749A4310CA8FFF7C7FE002013901FE047
:1003E00011A81399405C00900DF13F00405C0B9008
:1003F0000DF13A00405C0A900DF13500405C0CA90B
:1004000009901398085C089009A90EC900F0DCFB5C
:1004100078480078FFF7DEFE1398401CC0B21390B6
:1004200013980528DCDB00BF149847282CD11C2228
:100430006F49C0310CA8FFF797FE002013901FE012
:1004400011A81399405C00900DF13F00405C0B90A7
:100450000DF13A00405C0A900DF13500405C0CA9AA
:1004600009901398085C089009A90EC900F0ACFB2C
:1004700060480078FFF7AEFE1398401CC0B213909E
:1004800013980528DCDB00BF149848282CD11C22C7
:100490005749DC310CA8FFF767FE002013901FE0DE
:1004A00011A81399405C00900DF13F00405C0B9047
:1004B0000DF13A00405C0A900DF13500405C0CA94A
:1004C00009901398085C089009A90EC900F07CFBFC
:1004D00048480078FFF77EFE1398401CC0B2139086
:1004E00013980528DCDB00BF149849282CD11C2266
:1004F0003F49F8310CA8FFF737FE002013901FE0AA
:1005000011A81399405C00900DF13F00405C0B90E6
:100510000DF13A00405C0A900DF13500405C0CA9E9
:1005200009901398085C089009A90EC900F04CFBCB
:1005300030480078FFF74EFE1398401CC0B213906D
:1005400013980528DCDB00BF14984A282BD11C2205
:1005500029490CA8FFF708FE002013901FE011A8FE
:100560001399405C00900DF13F00405C0B900DF141
:100570003A00405C0A900DF13500405C0CA90990EE
:100580001398085C089009A90EC900F01DFB1948D2
:100590000078FFF71FFE1398401CC0B21390139809
:1005A0000528DCDB00BF14984B2833D11C221249EC
:1005B0001C310CA8FFF7D8FD0020139026E011A8ED
:1005C0001399405C00900DF13F00405C0B900DF1E1
:1005D0003A00405C0A900DF13500405C0CA909908E
:1005E0001398085C089009A90EC900F0EDFA05E01F
:1005F000141500081C00002028160008FA4800788E
:10060000FFF7E8FD1398401CC0B21390139805281B
:10061000D5DB00BF14984C282BD11C22F3490CA821
:10062000FFF7A2FD002013901FE011A81399405C72
:1006300000900DF13F00405C0B900DF13A00405CE2
:100640000A900DF13500405C0CA909901398085CE4
:10065000089009A90EC900F0B7FAE3480078FFF73F
:10066000B9FD1398401CC0B2139013980528DCDB29
:1006700000BF14984D282CD11C22DC491C310CA839
:10068000FFF772FD002013901FE011A81399405C42
:1006900000900DF13F00405C0B900DF13A00405C82
:1006A0000A900DF13500405C0CA909901398085C84
:1006B000089009A90EC900F087FACB480078FFF727
:1006C00089FD1398401CC0B2139013980528DCDBF9
:1006D00000BF14984E282CD11C22C44938310CA8D4
:1006E000FFF742FD002013901FE011A81399405C12
:1006F00000900DF13F00405C0B900DF13A00405C22
:100700000A900DF13500405C0CA909901398085C23
:10071000089009A90EC900F057FAB3480078FFF70E
:1007200059FD1398401CC0B2139013980528DCDBC8
:1007300000BF14984F282CD11C22AC4954310CA86E
:10074000FFF712FD002013901FE011A81399405CE1
:1007500000900DF13F00405C0B900DF13A00405CC1
:100760000A900DF13500405C0CA909901398085CC3
:10077000089009A90EC900F027FA9B480078FFF7F6
:1007800029FD1398401CC0B2139013980528DCDB98
:1007900000BF149850282CD11C22944970310CA809
:1007A000FFF7E2FC002013901FE011A81399405CB2
:1007B00000900DF13F00405C0B900DF13A00405C61
:1007C0000A900DF13500405C0CA909901398085C63
:1007D000089009A90EC900F0F7F983480078FFF7DF
:1007E000F9FC1398401CC0B2139013980528DCDB69
:1007F00000BF149851282CD11C227C498C310CA8A4
:10080000FFF7B2FC002013901FE011A81399405C81
:1008100000900DF13F00405C0B900DF13A00405C00
:100820000A900DF13500405C0CA909901398085C02
:10083000089009A90EC900F0C7F96B480078FFF7C6
:10084000C9FC1398401CC0B2139013980528DCDB38
:1008500000BF149852282CD11C226449A8310CA83E
:10086000FFF782FC002013901FE011A81399405C51
:1008700000900DF13F00405C0B900DF13A00405CA0
:100880000A900DF13500405C0CA909901398085CA2
:10089000089009A90EC900F097F953480078FFF7AE
:1008A00099FC1398401CC0B2139013980528DCDB08
:1008B00000BF149853282CD11C224C49C4310CA8D9
:1008C000FFF752FC002013901FE011A81399405C21
:1008D00000900DF13F00405C0B900DF13A00405C40
:1008E0000A900DF13500405C0CA909901398085C42
:1008F000089009A90EC900F067F93B480078FFF796
:1009000069FC1398401CC0B2139013980528DCDBD7
:1009100000BF149854282CD11C223449E0310CA873
:10092000FFF722FC002013901FE011A81399405CF0
:1009300000900DF13F00405C0B900DF13A00405CDF
:100940000A900DF13500405C0CA909901398085CE1
:10095000089009A90EC900F037F923480078FFF77D
:1009600039FC1398401CC0B2139013980528DCDBA7
:1009700000BF149855282CD11C221C49FC310CA80E
:10098000FFF7F2FB002013901FE011A81399405CC1
:1009900000900DF13F00405C0B900DF13A00405C7F
:1009A0000A900DF13500405C0CA909901398085C81
:1009B000089009A90EC900F007F90B480078FFF765
:1009C00009FC1398401CC0B2139013980528DCDB77
:1009D00000BF1498562831D11C2205490CA8FFF7F6
:1009E000C3FB0020139025E01C00002060160008C7
:1009F0007817000811A81399405C00900DF13F0092
:100A0000405C0B900DF13A00405C0A900DF135000E
:100A1000405C0CA909901398085C089009A90EC9BC
:100A200000F0D2F866480078FFF7D4FB1398401C1A
:100A3000C0B2139013980528DCDB00BF1498572828
:100A40002BD11C225F490CA8FFF78EFB00201390CE
:100A50001FE011A81399405C00900DF13F00405C2D
:100A60000B900DF13A00405C0A900DF13500405CAE
:100A70000CA909901398085C089009A90EC900F008
:100A8000A3F84F480078FFF7A5FB1398401CC0B2AD
:100A9000139013980528DCDB00BF149858282CD13C
:100AA0001C2248491C310CA8FFF75EFB0020139064
:100AB0001FE011A81399405C00900DF13F00405CCD
:100AC0000B900DF13A00405C0A900DF13500405C4E
:100AD0000CA909901398085C089009A90EC900F0A8
:100AE00073F837480078FFF775FB1398401CC0B2C5
:100AF000139013980528DCDB00BF149859282CD1DB
:100B00001C22304938310CA8FFF72EFB002013902F
:100B10001FE011A81399405C00900DF13F00405C6C
:100B20000B900DF13A00405C0A900DF13500405CED
:100B30000CA909901398085C089009A90EC900F047
:100B400043F81F480078FFF745FB1398401CC0B2DC
:100B5000139013980528DCDB00BF14985A282CD179
:100B60001C22184954310CA8FFF7FEFA00201390FC
:100B70001FE011A81399405C00900DF13F00405C0C
:100B80000B900DF13A00405C0A900DF13500405C8D
:100B90000CA909901398085C089009A90EC900F0E7
:100BA00013F807480078FFF715FB1398401CC0B2F4
:100BB000139013980528DCDB00BF15B000BD0000C2
:100BC0001C000020941700082DE9F04107460C4650
:100BD00015461E46DDF81880384600F017F8204606
:100BE00000F014F8284600F011F8304600F00EF836
:100BF000404600F00BF800F0E7FA03480078FFF7F2
:100C0000E9FABDE8F08100001C00002010B50446A0
:100C100004F0800018B1012000F066FA02E0002024
:100C200000F062FA00F050FB04F0400018B101201F
:100C300000F05AFA02E0002000F056FA00F044FBFF
:100C400004F0200018B1012000F04EFA02E000206C
:100C500000F04AFA00F038FB04F0100018B101204F
:100C600000F042FA02E0002000F03EFA00F02CFB17
:100C700004F0080018B1012000F036FA02E000206C
:100C800000F032FA00F020FB04F0040018B101205B
:100C900000F02AFA02E0002000F026FA00F014FB2F
:100CA00004F0020018B1012000F01EFA02E000205A
:100CB00000F01AFA00F008FB04F0010018B101205E
:100CC00000F012FA02E0002000F00EFA00F0FCFA48
:100CD00010BD70B50446002504E0605DFFF784FA9E
:100CE000681CC5B2605D0A28F7D1FFF763FA70BDD2
:100CF00010B54FF4007000F01BF870B107480068A1
:100D00004FF4B371B0FBF1F00549087000200349BE
:100D100008604FF4007000F005F810BD18000020C6
:100D20001C000020014908607047000014040140C5
:100D3000014600200022074B1B6803EA0102054B15
:100D400014331B680B4013B10AB1012000E00020EE
:100D50007047000000040140002123498279002AE5
:100D60003AD00A46126803689A430B461A600A1D75
:100D7000126803689A430B1D1A60027911440A68CD
:100D800003681A430A60184A0832126803689A43D3
:100D9000154B08331A601A1D126803689A43124BE8
:100DA0000C331A604279102A0ED11A1F1268036898
:100DB0001A430D4B08331A601A1D126803681A4350
:100DC000094B0C331A600DE00749427911440A6857
:100DD00003681A430A6005E0027911440A6803684F
:100DE0009A430A60704700000004014030B50022B9
:100DF0008B071C0F0F2303FA04F20B4B8C1053F8D4
:100E000024309343084C8D1044F8253023468C1031
:100E100053F824308C07240F00FA04F42343024CC7
:100E20008D1044F8253030BD080001402DE9F04117
:100E3000024600250026002000230024002791F808
:100E400003C00CF00F0591F803C00CF0100CBCF1BE
:100E5000000F03D091F802C04CEA050591F800C0DC
:100E6000BCF1000F31D0146800202BE04FF0010CD2
:100E70000CFA00F3B1F800C00CEA03069E4220D140
:100E800083004FF00F0C0CFA03F7BC4305FA03FC88
:100E90004CEA040491F803C0BCF1280F06D14FF0CE
:100EA000010C0CFA00FCC2F814C00AE091F803C06F
:100EB000BCF1480F05D14FF0010C0CFA00FCC2F850
:100EC00010C0401C0828D1D31460B1F800C0BCF198
:100ED000FF0F34DD546800202EE000F1080C4FF0C5
:100EE000010808FA0CF3B1F800C00CEA03069E42B0
:100EF00021D183004FF00F0C0CFA03F7BC4305FA25
:100F000003FC4CEA040491F803C0BCF1280F05D19E
:100F100000F1080C08FA0CF8C2F8148091F803C02C
:100F2000BCF1480F07D100F1080C4FF0010808FA96
:100F30000CF8C2F81080401C0828CED35460BDE8DD
:100F4000F081416170470161704700BFFEE700001A
:100F500008B50121042000F025F90121082000F046
:100F600021F91E20ADF8000010208DF803000320A9
:100F70008DF8020069461148FFF758FF4FF40070E2
:100F8000ADF8000048208DF8030003208DF8020022
:100F900069460B48FFF74AFF02210848FFF7D1FFD7
:100FA00004210648FFF7CDFF08210448FFF7C9FFD9
:100FB00010210248FFF7C7FF08BD000000080140EC
:100FC000000C01400EB50121084600F0EBF80921A4
:100FD0000120FFF70BFF4FF40070FFF7A3FE4FF463
:100FE0000070019000208DF808000C208DF8090099
:100FF00001208DF80A0001A8FFF7AEFE17208DF83A
:10100000000001208DF8010000208DF80200012071
:101010008DF80300684600F07BF80EBD30B514482B
:101020000068144AB0FBF2F1B1F1807F00D31DE0FB
:1010300021F07F40401E4FF0E022506150170F22F8
:10104000002807DA13071D0E0B4B00F00F04241FB6
:101050001D5503E013071C0E084B1C5400BF002055
:101060004FF0E02290610720106100BF30BD00000A
:101070000000002040420F0018ED00E000E400E016
:101080001FB50121084600F07DF80121022000F083
:1010900079F80120ADF804002320ADF80800002005
:1010A000ADF8060001A94FF0804000F0B3F901212E
:1010B000880700F083F901221146900700F0A1F99A
:1010C0001C208DF8000002208DF8010000208DF812
:1010D000020001208DF80300684600F019F8012194
:1010E000880700F071F91FBD10B5044624B1022134
:1010F0000448FFF728FF03E002210248FFF721FF21
:1011000010BD00000008014000BFFEE7704700006E
:1011100070B5002100230F22C47804B3154C246855
:1011200004F4E064C4F5E064210AC1F10403CA4098
:10113000447804FA03F184781440214309010E4CE9
:101140000678A155047804F01F050124AC40057809
:101150006D11AD0005F1E025C5F8004109E0047806
:1011600004F01F050124AC40044D0678761145F8C3
:10117000264070BD0CED00E000E400E080E100E0FE
:101180007047000029B1064AD2690243044BDA6174
:1011900004E0034AD2698243014BDA6170470000E0
:1011A0000010024029B1064A92690243044B9A6139
:1011B00004E0034A92698243014B9A617047000040
:1011C000001002407047000010B508210348FFF7E7
:1011D000B8FE08210148FFF7B6FE10BD0008014027
:1011E00010B500F001F810BD0CB500200190009082
:1011F0003348006840F480303149086000BF30480F
:10120000006800F4003000900198401C01900098A4
:1012100018B90198B0F5A06FF1D12948006800F421
:10122000003010B10120009001E0002000900098F3
:10123000012843D12348006840F01000214908608C
:101240000846006820F0030008600846006840F087
:10125000020008601A48406819494860084640681A
:1012600048600846406840F480604860084640682E
:1012700020F47C1048600846406840F4E81048605C
:101280000846006840F08070086000BF0C480068A5
:1012900000F000700028F9D00948406820F00300F1
:1012A000074948600846406840F00200486000BFB7
:1012B0000348406800F00C000828F9D10CBD00007C
:1012C000001002400020024010B504210348FFF73F
:1012D00038FE04210148FFF736FE10BD000801402A
:1012E00001460D4800780C4A127801FB0200401FAD
:1012F0000A4A126890420DDC0748007800EB800033
:10130000054A127801FB0200044A1268904201DB90
:10131000012070470020FCE71C000020180000207E
:101320000448006820B103480068401E0149086075
:10133000704700001400002010B51348006840F00A
:1013400001001149086008464068104908400E49EC
:101350004860084600680E4908400B490860084686
:10136000006820F4802008600846406820F4FE00F1
:1013700048604FF41F008860FFF732FF4FF00060B5
:101380000449086010BD0000001002400000FFF892
:10139000FFFFF6FE08ED00E010B50121880700F020
:1013A0001FF840B104480068401C0349086001214F
:1013B000880700F006F810BD18000020CA4302821A
:1013C0007047CA430282704721B1028842F001028D
:1013D000028004E002884FF6FE731A4002807047D4
:1013E00030B50246002000230024158A05EA0103D7
:1013F000958905EA010413B10CB1012000E0002039
:1014000030BD1AB183890B43838102E083898B430A
:1014100083817047002202881D4B98420ED01D4BDD
:1014200098420BD0B0F1804F08D01B4B984205D0AA
:101430001A4B984202D01A4B984204D14FF68F7340
:101440001A404B881A43174B984207D0164B9842C4
:1014500004D04FF6FF431A40CB881A4302808B8892
:1014600083850B8803850A4B98420BD0094B984221
:1014700008D00E4B984205D00D4B984202D00D4B30
:10148000984201D10B7A03860123838270470000C2
:10149000002C0140003401400004004000080040DE
:1014A000000C0040001000400014004000400140CB
:1014B000004401400048014000BFFEE702E008C8C8
:1014C000121F08C1002AFAD170477047002001E0BE
:1014D00001C1121F002AFBD17047000008B5FFF7B9
:1014E00037FDFFF79BFDFFF7CBFDFFF76BFD0EE030
:1014F0004FF48770FFF7F4FE10B105A0FFF7E9FB8A
:1015000000200346024601460090FFF75DFBEFE72F
:10151000410000000000000000000000000000008A
:1015200000000000000000007F9090907F0000000D
:1015300000000000000000000000000000000000AB
:10154000000000000000000000000000000000009B
:101550000000FF999999660000000000000000005B
:1015600000000000000000000000000000007E817C
:101570008181420000000000000000000000000027
:1015800000000000000000000000FF8181817E005B
:10159000000000000000000000000000000000004B
:1015A000000000000000FF999999810000000000F0
:1015B000000000000000000000000000000000002B
:1015C0000000FF90909080000000000000000000EC
:1015D00000000000000000000000000000007E810C
:1015E00091919E000000000000000000000000003B
:1015F00000000000000000000000FF181818FF00A5
:1016000000000000000000000000000000000000DA
:101610000000000000008181FF81810000000000C7
:1016200000000000000000000000000000000000BA
:1016300000000E0101FF000000000000000000009B
:101640000000000000000000000000000000FF1883
:1016500024428100000000000000000000000000A3
:1016600000000000000000000000FF010101010077
:10167000000000000000000000000000000000006A
:10168000000000000000FF403002FF0000000000EA
:10169000000000000000000000000000000000004A
:1016A0000000FF60300CFF000000000000000000A0
:1016B00000000000000000000000000000007E812B
:1016C00081817E000000000000000000000000009A
:1016D00000000000000000000000FF9090906000FB
:1016E00000000000000000000000000000000000FA
:1016F0000000000000007E8185837F000000000064
:1017000000000000000000000000000000000000D9
:101710000000FF90989463000000000000000000AB
:1017200000000000000000000000000000007191B7
:1017300091918E00000000000000000000000000F9
:10174000000000000000000000008080FF8080009A
:101750000000000000000000000000000000000089
:10176000000000000000FE010101FE00000000007A
:101770000000000000000000000000000000000069
:101780000000FC020102FC0000000000000000005C
:101790000000000000000000000000000000FF0248
:1017A0000C02FF000000000000000000000000002C
:1017B00000000000000000000000C3241824C30043
:1017C0000000000000000000000000000000000019
:1017D000000000000000C0201F20C000000000002A
:1017E00000000000000000000000000000000000F9
:1017F0000000838599A1C1000000000000000000E6
:101800000000000024180008000000202400000050
:10181000BC1400084818000824000020040400003C
:10182000CC14000800A24A040000000000000000E0
:101830000102030406070809000000000000000080
:081840000000000000000000A0
:0400000508000145A9
:00000001FF
