:020000040800F2
:100000001004002045010008DD1100087F100008E1
:10001000D9110008E5010008711500080000000072
:100020000000000000000000000000009512000821
:100030000502000800000000511200085D010008E0
:100040005F0100085F0100085F0100085F01000810
:100050005F0100085F0100085F0100085F01000800
:100060005F0100085F0100085F0100085F010008F0
:100070005F0100085F0100085F0100085F010008E0
:100080005F0100085F0100085F0100085F010008D0
:100090005F0100085F0100085F010008250E0008ED
:1000A0005F0100085F0100085F0100085F010008B0
:1000B000411400085F0100085F0100085F010008AB
:1000C0005F0100085F0100085F0100085F01000890
:1000D0005F0100085F0100085F0100085F01000880
:1000E0005F0100085F0100085F0100085F01000870
:1000F0005F0100085F0100085F0100085F01000860
:100100005F0100085F0100085F0100085F0100084F
:100110005F0100085F0100085F0100085F0100083F
:100120005F0100085F0100085F0100085F0100082F
:10013000DFF80CD000F044F800480047951500089F
:10014000100400200648804706480047FEE7FEE707
:10015000FEE7FEE7FEE7FEE7FEE7FEE7FEE7FEE777
:10016000E11300083101000840EA01039B0703D0B6
:1001700009E008C9121F08C0042AFAD203E011F8E6
:10018000013B00F8013B521EF9D27047D2B201E0A8
:1001900000F8012B491EFBD270470022F6E710B58C
:1001A00013460A4604461946FFF7F0FF204610BDE5
:1001B000421C10F8011B0029FBD1801A7047000077
:1001C000064C074D06E0E06840F0010394E80700A4
:1001D00098471034AC42F6D3FFF7AEFF98180008EA
:1001E000B818000800BFFEE710B51021044800F061
:1001F00042FF01F051F81021014800F03EFF10BD10
:1002000000080140704700000349086000BF024930
:1002100009680029FBD170470000002001B58EB0AD
:100220000E9820282DD11C2106A8FFF7B6FF00202C
:100230000D9022E00BA80D99405C00900DF1270075
:10024000405C05900DF12200405C04900DF11D0012
:10025000405C06A903900D98085C029003A90EC9A2
:1002600000F052FDFE48006800EB40000590FFF7EB
:10027000CBFF0D98401CC0B20D900D980528D9DB1E
:1002800000BF0E9841282ED11C22F64906A8FFF780
:100290006BFF00200D9022E00BA80D99405C0090B0
:1002A0000DF12700405C05900DF12200405C0490A8
:1002B0000DF11D00405C06A903900D98085C0290AA
:1002C00003A90EC900F020FDE548006800EB4000DE
:1002D0000590FFF799FF0D98401CC0B20D900D9846
:1002E0000528D9DB00BF0E9842282FD11C22DD49FA
:1002F0001C3106A8FFF738FF00200D9022E00BA864
:100300000D99405C00900DF12700405C05900DF1C7
:100310002200405C04900DF11D00405C06A9039092
:100320000D98085C029003A90EC900F0EDFCCC48C2
:10033000006800EB40000590FFF766FF0D98401C39
:10034000C0B20D900D980528D9DB00BF0E98432848
:100350002FD11C22C349383106A8FFF705FF002022
:100360000D9022E00BA80D99405C00900DF1270044
:10037000405C05900DF12200405C04900DF11D00E1
:10038000405C06A903900D98085C029003A90EC971
:1003900000F0BAFCB248006800EB40000590FFF79F
:1003A00033FF0D98401CC0B20D900D980528D9DB85
:1003B00000BF0E9844282FD11C22AA49543106A808
:1003C000FFF7D2FE00200D9022E00BA80D99405CB3
:1003D00000900DF12700405C05900DF12200405C7B
:1003E00004900DF11D00405C06A903900D98085C77
:1003F000029003A90EC900F087FC9948006800EB41
:1004000040000590FFF700FF0D98401CC0B20D9012
:100410000D980528D9DB00BF0E9845282FD11C2246
:100420009049703106A8FFF79FFE00200D9022E052
:100430000BA80D99405C00900DF12700405C0590E1
:100440000DF12200405C04900DF11D00405C06A9F6
:1004500003900D98085C029003A90EC900F054FCAB
:100460007F48006800EB40000590FFF7CDFE0D9837
:10047000401CC0B20D900D980528D9DB00BF0E9826
:1004800046282FD11C2277498C3106A8FFF76CFE35
:1004900000200D9022E00BA80D99405C00900DF11A
:1004A0002700405C05900DF12200405C04900DF1A6
:1004B0001D00405C06A903900D98085C029003A9FA
:1004C0000EC900F021FC6648006800EB4000059072
:1004D000FFF79AFE0D98401CC0B20D900D980528AC
:1004E000D9DB00BF0E9847282FD11C225D49A831C7
:1004F00006A8FFF739FE00200D9022E00BA80D9909
:10050000405C00900DF12700405C05900DF1220049
:10051000405C04900DF11D00405C06A903900D980D
:10052000085C029003A90EC900F0EEFB4C4800687D
:1005300000EB40000590FFF767FE0D98401CC0B22D
:100540000D900D980528D9DB00BF0E9848282FD1B3
:100550001C224449C43106A8FFF706FE00200D9076
:1005600022E00BA80D99405C00900DF12700405C43
:1005700005900DF12200405C04900DF11D00405CDF
:1005800006A903900D98085C029003A90EC900F01B
:10059000BBFB3348006800EB40000590FFF734FEDA
:1005A0000D98401CC0B20D900D980528D9DB00BFF6
:1005B0000E9849282FD11C222A49E03106A8FFF7BE
:1005C000D3FD00200D9022E00BA80D99405C009017
:1005D0000DF12700405C05900DF12200405C049075
:1005E0000DF11D00405C06A903900D98085C029077
:1005F00003A90EC900F088FB1948006800EB400011
:100600000590FFF701FE0D98401CC0B20D900D98AB
:100610000528D9DB00BF0E984A2834D11C22114985
:10062000FC3106A8FFF7A0FD00200D9027E00BA8E5
:100630000D99405C00900DF12700405C05900DF194
:100640002200405C04900DF11D00405C06A903905F
:100650000D98085C029003A90EC900F055FB03E059
:1006600008000020C0150008FE48006800EB4000AC
:100670000590FFF7C9FD0D98401CC0B20D900D9874
:100680000528D4DB00BF0E984B282ED11C22F6493A
:1006900006A8FFF769FD00200D9022E00BA80D9938
:1006A000405C00900DF12700405C05900DF12200A8
:1006B000405C04900DF11D00405C06A903900D986C
:1006C000085C029003A90EC900F01EFBE548006813
:1006D00000EB40000590FFF797FD0D98401CC0B25D
:1006E0000D900D980528D9DB00BF0E984C282FD10E
:1006F0001C22DD491C3106A8FFF736FD00200D90B5
:1007000022E00BA80D99405C00900DF12700405CA1
:1007100005900DF12200405C04900DF11D00405C3D
:1007200006A903900D98085C029003A90EC900F079
:10073000EBFACC48006800EB40000590FFF764FD41
:100740000D98401CC0B20D900D980528D9DB00BF54
:100750000E984D282FD11C22C349383106A8FFF727
:1007600003FD00200D9022E00BA80D99405C009045
:100770000DF12700405C05900DF12200405C0490D3
:100780000DF11D00405C06A903900D98085C0290D5
:1007900003A90EC900F0B8FAB248006800EB4000A7
:1007A0000590FFF731FD0D98401CC0B20D900D98DB
:1007B0000528D9DB00BF0E984E282FD11C22AA494C
:1007C000543106A8FFF7D0FC00200D9022E00BA8C2
:1007D0000D99405C00900DF12700405C05900DF1F3
:1007E0002200405C04900DF11D00405C06A90390BE
:1007F0000D98085C029003A90EC900F085FA99488B
:10080000006800EB40000590FFF7FEFC0D98401CCF
:10081000C0B20D900D980528D9DB00BF0E984F2867
:100820002FD11C229049703106A8FFF79DFC0020B3
:100830000D9022E00BA80D99405C00900DF127006F
:10084000405C05900DF12200405C04900DF11D000C
:10085000405C06A903900D98085C029003A90EC99C
:1008600000F052FA7F48006800EB40000590FFF767
:10087000CBFC0D98401CC0B20D900D980528D9DB1B
:1008800000BF0E9850282FD11C2277498C3106A822
:10089000FFF76AFC00200D9022E00BA80D99405C48
:1008A00000900DF12700405C05900DF12200405CA6
:1008B00004900DF11D00405C06A903900D98085CA2
:1008C000029003A90EC900F01FFA6648006800EB09
:1008D00040000590FFF798FC0D98401CC0B20D90A9
:1008E0000D980528D9DB00BF0E9851282FD11C2266
:1008F0005D49A83106A8FFF737FC00200D9022E0E3
:100900000BA80D99405C00900DF12700405C05900C
:100910000DF12200405C04900DF11D00405C06A921
:1009200003900D98085C029003A90EC900F0ECF941
:100930004C48006800EB40000590FFF765FC0D98FF
:10094000401CC0B20D900D980528D9DB00BF0E9851
:1009500052282FD11C224449C43106A8FFF704FCB9
:1009600000200D9022E00BA80D99405C00900DF145
:100970002700405C05900DF12200405C04900DF1D1
:100980001D00405C06A903900D98085C029003A925
:100990000EC900F0B9F93348006800EB400005903B
:1009A000FFF732FC0D98401CC0B20D900D98052841
:1009B000D9DB00BF0E9853282FD11C222A49E031E1
:1009C00006A8FFF7D1FB00200D9022E00BA80D999F
:1009D000405C00900DF12700405C05900DF1220075
:1009E000405C04900DF11D00405C06A903900D9839
:1009F000085C029003A90EC900F086F91948006846
:100A000000EB40000590FFF7FFFB0D98401CC0B2C3
:100A10000D900D980528D9DB00BF0E98542834D1CD
:100A20001C221149FC3106A8FFF79EFB00200D9007
:100A300027E00BA80D99405C00900DF12700405C69
:100A400005900DF12200405C04900DF11D00405C0A
:100A500006A903900D98085C029003A90EC900F046
:100A600053F903E008000020D8160008A4480068E5
:100A700000EB40000590FFF7C7FB0D98401CC0B28B
:100A80000D900D980528D4DB00BF0E9855282ED167
:100A90001C229C4906A8FFF767FB00200D9022E06E
:100AA0000BA80D99405C00900DF12700405C05906B
:100AB0000DF12200405C04900DF11D00405C06A980
:100AC00003900D98085C029003A90EC900F01CF970
:100AD0008B48006800EB40000590FFF795FB0D98F0
:100AE000401CC0B20D900D980528D9DB00BF0E98B0
:100AF00056282FD11C2283491C3106A8FFF734FB4E
:100B000000200D9022E00BA80D99405C00900DF1A3
:100B10002700405C05900DF12200405C04900DF12F
:100B20001D00405C06A903900D98085C029003A983
:100B30000EC900F0E9F87248006800EB400005902B
:100B4000FFF762FB0D98401CC0B20D900D98052870
:100B5000D9DB00BF0E9857282FD11C2269493831A4
:100B600006A8FFF701FB00200D9022E00BA80D99CD
:100B7000405C00900DF12700405C05900DF12200D3
:100B8000405C04900DF11D00405C06A903900D9897
:100B9000085C029003A90EC900F0B6F85848006836
:100BA00000EB40000590FFF72FFB0D98401CC0B2F2
:100BB0000D900D980528D9DB00BF0E9858282FD12D
:100BC0001C225049543106A8FFF7CEFA00200D90A0
:100BD00022E00BA80D99405C00900DF12700405CCD
:100BE00005900DF12200405C04900DF11D00405C69
:100BF00006A903900D98085C029003A90EC900F0A5
:100C000083F83F48006800EB40000590FFF7FCFACE
:100C10000D98401CC0B20D900D980528D9DB00BF7F
:100C20000E9859282FD11C223649703106A8FFF79B
:100C30009BFA00200D9022E00BA80D99405C0090DB
:100C40000DF12700405C05900DF12200405C0490FE
:100C50000DF11D00405C06A903900D98085C029000
:100C600003A90EC900F050F82548006800EB4000C9
:100C70000590FFF7C9FA0D98401CC0B20D900D9871
:100C80000528D9DB00BF0E985A282FD11C221D49F8
:100C90008C3106A8FFF768FA00200D9022E00BA81F
:100CA0000D99405C00900DF12700405C05900DF11E
:100CB0002200405C04900DF11D00405C06A90390E9
:100CC0000D98085C029003A90EC900F01DF80C48AD
:100CD000006800EB40000590FFF796FA0D98401C65
:100CE000C0B20D900D980528D9DB00BFFFF77CFA44
:100CF0000348006880000C90FFF786FA0FB000BD33
:100D000008000020F01700082DE9F04107460C46C6
:100D100015461E46DDF81880384600F010F82046CB
:100D200000F00DF8284600F00AF8304600F007F809
:100D3000404600F004F800F0AFFABDE8F08110B5CD
:100D4000044604F0800018B1012000F035FA02E0FA
:100D5000002000F031FA00F01FFB04F0400018B151
:100D6000012000F029FA02E0002000F025FA00F04E
:100D700013FB04F0200018B1012000F01DFA02E07E
:100D8000002000F019FA00F007FB04F0100018B181
:100D9000012000F011FA02E0002000F00DFA00F04E
:100DA000FBFA04F0080018B1012000F005FA02E097
:100DB000002000F001FA00F0EFFA04F0040018B18E
:100DC000012000F0F9F902E0002000F0F5F900F050
:100DD000E3FA04F0020018B1012000F0EDF902E09E
:100DE000002000F0E9F900F0D7FA04F0010018B192
:100DF000012000F0E1F902E0002000F0DDF900F050
:100E0000CBFA10BD70B50546002404E0285DFFF75D
:100E100005FA601CC4B22846FFF7CAF9A042F5D80B
:100E200070BD000010B54FF4007000F01BF870B1F9
:100E3000074800684FF4B471B0FBF1F00549086051
:100E40000020034908604FF4007000F005F810BD61
:100E500004000020080000200149086070470000DD
:100E600014040140014600200022074B1B6803EADE
:100E70000102054B14331B680B4013B10AB101206A
:100E800000E00020704700000004014000212349D9
:100E90008279002A3AD00A46126803689A430B46C0
:100EA0001A600A1D126803689A430B1D1A600279C2
:100EB00011440A6803681A430A60184A0832126823
:100EC00003689A43154B08331A601A1D12680368A9
:100ED0009A43124B0C331A604279102A0ED11A1F12
:100EE000126803681A430D4B08331A601A1D126802
:100EF00003681A43094B0C331A600DE00749427925
:100F000011440A6803681A430A6005E00279114433
:100F10000A6803689A430A607047000000040140B1
:100F200030B500228B071C0F0F2303FA04F20B4B82
:100F30008C1053F824309343084C8D1044F825301E
:100F400023468C1053F824308C07240F00FA04F445
:100F50002343024C8D1044F8253030BD0800014079
:100F60002DE9F04102460025002600200023002440
:100F7000002791F803C00CF00F0591F803C00CF0A6
:100F8000100CBCF1000F03D091F802C04CEA05052B
:100F900091F800C0BCF1000F31D0146800202BE0A4
:100FA0004FF0010C0CFA00F3B1F800C00CEA030694
:100FB0009E4220D183004FF00F0C0CFA03F7BC4384
:100FC00005FA03FC4CEA040491F803C0BCF1280FB5
:100FD00006D14FF0010C0CFA00FCC2F814C00AE074
:100FE00091F803C0BCF1480F05D14FF0010C0CFA89
:100FF00000FCC2F810C0401C0828D1D31460B1F81E
:1010000000C0BCF1FF0F34DD546800202EE000F179
:10101000080C4FF0010808FA0CF3B1F800C00CEA14
:1010200003069E4221D183004FF00F0C0CFA03F708
:10103000BC4305FA03FC4CEA040491F803C0BCF17C
:10104000280F05D100F1080C08FA0CF8C2F814803A
:1010500091F803C0BCF1480F07D100F1080C4FF024
:10106000010808FA0CF8C2F81080401C0828CED3FA
:101070005460BDE8F081416170470161704700BF75
:10108000FEE7000008B50121042000F0F3F801217B
:10109000082000F0EFF81E20ADF8000010208DF8B9
:1010A000030003208DF8020069461148FFF758FF3E
:1010B0004FF40070ADF8000004208DF80300032009
:1010C0008DF8020069460B48FFF74AFF02210848E5
:1010D000FFF7D1FF04210648FFF7CDFF08210448A0
:1010E000FFF7C9FF10210248FFF7C7FF08BD000046
:1010F00000080140000C01400EB50121084600F037
:10110000B9F809210120FFF70BFF4FF40070FFF73A
:10111000A3FE4FF40070019000208DF808000C2011
:101120008DF8090001208DF80A0001A8FFF7AEFE36
:1011300017208DF8000001208DF8010000208DF8A7
:10114000020001208DF80300684600F049F80EBD4A
:101150001FB50121084600F07DF80121022000F0B2
:1011600079F81320ADF804004720ADF808000020FE
:10117000ADF8060001A94FF0804000F0A7F9012169
:10118000880700F077F901221146900700F095F9E1
:101190001C208DF8000000208DF801008DF8020061
:1011A00001208DF80300684600F01AF80121880735
:1011B00000F066F91FBD000010B5044624B10221FD
:1011C0000448FFF75AFF03E002210248FFF753FFEC
:1011D00010BD00000008014000BFFEE7704700009E
:1011E00070B5002100230F22C47804B3154C246885
:1011F00004F4E064C4F5E064210AC1F10403CA40C8
:10120000447804FA03F184781440214309010E4C18
:101210000678A155047804F01F050124AC40057838
:101220006D11AD0005F1E025C5F8004109E0047835
:1012300004F01F050124AC40044D0678761145F8F2
:10124000264070BD0CED00E000E400E080E100E02D
:101250007047000029B1064AD2690243044BDA61A3
:1012600004E0034AD2698243014BDA61704700000F
:101270000010024029B1064A92690243044B9A6168
:1012800004E0034A92698243014B9A61704700006F
:10129000001002407047000010B508210348FFF716
:1012A000EAFE08210148FFF7E8FE10BD00080140F2
:1012B00010B500F001F810BD0CB5002001900090B1
:1012C0003348006840F480303149086000BF30483E
:1012D000006800F4003000900198401C01900098D4
:1012E00018B90198B0F5A06FF1D12948006800F451
:1012F000003010B10120009001E000200090009823
:10130000012843D12348006840F0100021490860BB
:101310000846006820F0030008600846006840F0B6
:10132000020008601A484068194948600846406849
:1013300048600846406840F480604860084640685D
:1013400020F47C1048600846406840F4E81048608B
:101350000846006840F08070086000BF0C480068D4
:1013600000F000700028F9D00948406820F0030020
:10137000074948600846406840F00200486000BFE6
:101380000348406800F00C000828F9D10CBD0000AB
:10139000001002400020024010B504210348FFF76E
:1013A0006AFE04210148FFF768FE10BD00080140F5
:1013B0000146094800684843084A1268904208D824
:1013C000054800684843054A1268904201D301204D
:1013D00070470020FCE70000080000200400002007
:1013E00010B51348006840F0010011490860084634
:1013F0004068104908400E494860084600680E4998
:1014000008400B4908600846006820F48020086006
:101410000846406820F4FE0048604FF41F008860D2
:10142000FFF746FF4FF000600449086010BD000060
:10143000001002400000FFF8FFFFF6FE08ED00E09C
:1014400010B50121880700F027F868B10748006847
:10145000401C0649086006480068401E04490860B0
:101460000121880700F009F810BD000004000020E9
:1014700000000020CA4302827047CA4302827047BC
:1014800021B1028842F00102028004E002884FF696
:10149000FE731A400280704730B5024600200023D8
:1014A0000024158A05EA0103958905EA010413B1B0
:1014B0000CB1012000E0002030BD1AB183890B433C
:1014C000838102E083898B438381704700220288F5
:1014D0001D4B98420ED01D4B98420BD0B0F1804F5F
:1014E00008D01B4B984205D01A4B984202D01A4B99
:1014F000984204D14FF68F731A404B881A43174B0A
:10150000984207D0164B984204D04FF6FF431A403A
:10151000CB881A4302808B8883850B8803850A4B0E
:1015200098420BD0094B984208D00E4B984205D0F8
:101530000D4B984202D00D4B984201D10B7A038695
:101540000123838270470000002C014000340140D9
:101550000004004000080040000C00400010004063
:101560000014004000400140004401400048014098
:1015700000BFFEE702E008C8121F08C1002AFAD126
:1015800070477047002001E001C1121F002AFBD103
:1015900070470000FFF776FDFFF7DAFDFFF7ACFDBF
:1015A00007E04FF49670FFF703FF10B101A0FFF7BB
:1015B00029FCF6E748454C4C4F20554954000000A3
:1015C000000000000000000000007E9090907E006F
:1015D000000000000000000000000000000000000B
:1015E000000000000000FF999999660000000000CB
:1015F00000000000000000000000000000000000EB
:1016000000007E8181814200000000000000000097
:101610000000000000000000000000000000FF814A
:1016200081817E000000000000000000000000003A
:1016300000000000000000000000FF99999981005F
:10164000000000000000000000000000000000009A
:10165000000000000000FF9090908000000000005B
:10166000000000000000000000000000000000007A
:1016700000007E8191919E000000000000000000AB
:101680000000000000000000000000000000FF1843
:101690001818FF000000000000000000000000001B
:1016A000000000000000000000008181FF81810037
:1016B000000000000000000000000000000000002A
:1016C0000000000000000E0101FF0000000000000B
:1016D000000000000000000000000000000000000A
:1016E0000000FF18244281000000000000000000FC
:1016F0000000000000000000000000000000FF01EA
:1017000001010100000000000000000000000000D6
:1017100000000000000000000000FF403002FF0059
:1017200000000000000000000000000000000000B9
:10173000000000000000FF60300CFF00000000000F
:101740000000000000000000000000000000000099
:1017500000007E8181817E0000000000000000000A
:101760000000000000000000000000000000FF90EA
:1017700090906000000000000000000000000000E9
:10178000000000000000000000007E8185837F00D3
:101790000000000000000000000000000000000049
:1017A000000000000000FF9098946300000000001B
:1017B0000000000000000000000000000000000029
:1017C0000000719191918E00000000000000000067
:1017D0000000000000000000000000000000808009
:1017E000FF808000000000000000000000000000FA
:1017F00000000000000000000000FE010101FE00EA
:1018000000000000000000000000000000000000D8
:10181000000000000000FC020102FC0000000000CB
:1018200000000000000000000000000000000000B8
:101830000000FF020C02FF0000000000000000009A
:101840000000000000000000000000000000C324B1
:101850001824C30000000000000000000000000089
:1018600000000000000000000000C0201F20C00099
:101870000000000000000000000000000000000068
:10188000000000000000838599A1C1000000000055
:101890000000000000000000B81800080000002050
:1018A0001000000074150008C8180008100000207F
:1018B0000004000084150008000000000000000083
:0818C000000000000000000020
:0400000508000145A9
:00000001FF
