:020000040800F2
:10000000100400204501000881100008230F00089B
:100010007D100008B1010008251400080000000050
:10002000000000000000000000000000391100087E
:10003000B501000800000000F51000085D0100088F
:100040005F0100085F0100085F0100085F01000810
:100050005F0100085F0100085F0100085F01000800
:100060005F0100085F0100085F0100085F010008F0
:100070005F0100085F0100085F0100085F010008E0
:100080005F0100085F0100085F0100085F010008D0
:100090005F0100085F0100085F010008C90C00084B
:1000A0005F0100085F0100085F0100085F010008B0
:1000B000F51200085F0100085F0100085F010008F9
:1000C0005F0100085F0100085F0100085F01000890
:1000D0005F0100085F0100085F0100085F01000880
:1000E0005F0100085F0100085F0100085F01000870
:1000F0005F0100085F0100085F0100085F01000860
:100100005F0100085F0100085F0100085F0100084F
:100110005F0100085F0100085F0100085F0100083F
:100120005F0100085F0100085F0100085F0100082F
:10013000DFF80CD000F02AF8004800474714000808
:10014000100400200648804706480047FEE7FEE707
:10015000FEE7FEE7FEE7FEE7FEE7FEE7FEE7FEE777
:10016000951200083101000840EA01039B0703D003
:1001700009E008C9121F08C0042AFAD203E011F8E6
:10018000013B00F8013B521EF9D27047064C074D67
:1001900006E0E06840F0010394E807009847103457
:1001A000AC42F6D3FFF7C8FF4017000860170008FD
:1001B00000BFFEE7704700000349086000BF024926
:1001C00009680029FBD170470000002001B58EB0FE
:1001D0000E9841282ED11C22F74906A8FFF7C4FF2C
:1001E00000200D9022E00BA80D99405C00900DF1CD
:1001F0002700405C05900DF12200405C04900DF159
:100200001D00405C06A903900D98085C029003A9AC
:100210000EC900F0DBFCE948006800EB40000590E7
:10022000FFF7CAFF0D98401CC0B20D900D9805282D
:10023000D9DB00BF0E9842282FD11C22DE491C3189
:1002400006A8FFF791FF00200D9022E00BA80D9962
:10025000405C00900DF12700405C05900DF12200FC
:10026000405C04900DF11D00405C06A903900D98C0
:10027000085C029003A90EC900F0A8FCCF480068F2
:1002800000EB40000590FFF797FF0D98401CC0B2AF
:100290000D900D980528D9DB00BF0E9843282FD16B
:1002A0001C22C549383106A8FFF75EFF00200D90DB
:1002B00022E00BA80D99405C00900DF12700405CF6
:1002C00005900DF12200405C04900DF11D00405C92
:1002D00006A903900D98085C029003A90EC900F0CE
:1002E00075FCB648006800EB40000590FFF764FF1E
:1002F0000D98401CC0B20D900D980528D9DB00BFA9
:100300000E9844282CD11C22AB49543106A8FFF783
:100310002BFF00200D901FE00BA80D99405C009072
:100320000DF12700405C05900DF12200405C049027
:100330000DF11D00405C06A903900D98085C029029
:1003400003A90EC900F042FC9C480068FFF734FF87
:100350000D98401CC0B20D900D980528DCDB00BF45
:100360000E9845282CD11C229349703106A8FFF71E
:10037000FBFE00200D901FE00BA80D99405C009043
:100380000DF12700405C05900DF12200405C0490C7
:100390000DF11D00405C06A903900D98085C0290C9
:1003A00003A90EC900F012FC84480068FFF704FF9F
:1003B0000D98401CC0B20D900D980528DCDB00BFE5
:1003C0000E9846282CD11C227B498C3106A8FFF7B9
:1003D000CBFE00200D901FE00BA80D99405C009013
:1003E0000DF12700405C05900DF12200405C049067
:1003F0000DF11D00405C06A903900D98085C029069
:1004000003A90EC900F0E2FB6C480068FFF7D4FEB8
:100410000D98401CC0B20D900D980528DCDB00BF84
:100420000E9847282CD11C226349A83106A8FFF753
:100430009BFE00200D901FE00BA80D99405C0090E2
:100440000DF12700405C05900DF12200405C049006
:100450000DF11D00405C06A903900D98085C029008
:1004600003A90EC900F0B2FB54480068FFF7A4FED0
:100470000D98401CC0B20D900D980528DCDB00BF24
:100480000E9848282CD11C224B49C43106A8FFF7EE
:100490006BFE00200D901FE00BA80D99405C0090B2
:1004A0000DF12700405C05900DF12200405C0490A6
:1004B0000DF11D00405C06A903900D98085C0290A8
:1004C00003A90EC900F082FB3C480068FFF774FEE8
:1004D0000D98401CC0B20D900D980528DCDB00BFC4
:1004E0000E9849282CD11C223349E03106A8FFF789
:1004F0003BFE00200D901FE00BA80D99405C009082
:100500000DF12700405C05900DF12200405C049045
:100510000DF11D00405C06A903900D98085C029047
:1005200003A90EC900F052FB24480068FFF744FEFF
:100530000D98401CC0B20D900D980528DCDB00BF63
:100540000E984A282CD11C221B49FC3106A8FFF723
:100550000BFE00200D901FE00BA80D99405C009051
:100560000DF12700405C05900DF12200405C0490E5
:100570000DF11D00405C06A903900D98085C0290E7
:1005800003A90EC900F022FB0C480068FFF714FE17
:100590000D98401CC0B20D900D980528DCDB00BF03
:1005A0000E984B2832D11C22054906A8FFF7DCFD26
:1005B00000200D9026E000006814000808000020CC
:1005C000801500080BA80D99405C00900DF12700E4
:1005D000405C05900DF12200405C04900DF11D007F
:1005E000405C06A903900D98085C029003A90EC90F
:1005F00000F0ECFAFA480068FFF7DEFD0D98401CA9
:10060000C0B20D900D980528DCDB00BF0E984C2879
:100610002BD11C22F34906A8FFF7A6FD00200D9060
:100620001FE00BA80D99405C00900DF12700405C85
:1006300005900DF12200405C04900DF11D00405C1E
:1006400006A903900D98085C029003A90EC900F05A
:10065000BDFAE3480068FFF7AFFD0D98401CC0B23B
:100660000D900D980528DCDB00BF0E984D282CD18D
:100670001C22DC491C3106A8FFF776FD00200D90F6
:100680001FE00BA80D99405C00900DF12700405C25
:1006900005900DF12200405C04900DF11D00405CBE
:1006A00006A903900D98085C029003A90EC900F0FA
:1006B0008DFACB480068FFF77FFD0D98401CC0B253
:1006C0000D900D980528DCDB00BF0E984E282CD12C
:1006D0001C22C449383106A8FFF746FD00200D90C2
:1006E0001FE00BA80D99405C00900DF12700405CC5
:1006F00005900DF12200405C04900DF11D00405C5E
:1007000006A903900D98085C029003A90EC900F099
:100710005DFAB3480068FFF74FFD0D98401CC0B26A
:100720000D900D980528DCDB00BF0E984F282CD1CA
:100730001C22AC49543106A8FFF716FD00200D908D
:100740001FE00BA80D99405C00900DF12700405C64
:1007500005900DF12200405C04900DF11D00405CFD
:1007600006A903900D98085C029003A90EC900F039
:100770002DFA9B480068FFF71FFD0D98401CC0B282
:100780000D900D980528DCDB00BF0E9850282CD169
:100790001C229449703106A8FFF7E6FC00200D905A
:1007A0001FE00BA80D99405C00900DF12700405C04
:1007B00005900DF12200405C04900DF11D00405C9D
:1007C00006A903900D98085C029003A90EC900F0D9
:1007D000FDF983480068FFF7EFFC0D98401CC0B29C
:1007E0000D900D980528DCDB00BF0E9851282CD108
:1007F0001C227C498C3106A8FFF7B6FC00200D9026
:100800001FE00BA80D99405C00900DF12700405CA3
:1008100005900DF12200405C04900DF11D00405C3C
:1008200006A903900D98085C029003A90EC900F078
:10083000CDF96B480068FFF7BFFC0D98401CC0B2B3
:100840000D900D980528DCDB00BF0E9852282CD1A6
:100850001C226449A83106A8FFF786FC00200D90F1
:100860001FE00BA80D99405C00900DF12700405C43
:1008700005900DF12200405C04900DF11D00405CDC
:1008800006A903900D98085C029003A90EC900F018
:100890009DF953480068FFF78FFC0D98401CC0B2CB
:1008A0000D900D980528DCDB00BF0E9853282CD145
:1008B0001C224C49C43106A8FFF756FC00200D90BD
:1008C0001FE00BA80D99405C00900DF12700405CE3
:1008D00005900DF12200405C04900DF11D00405C7C
:1008E00006A903900D98085C029003A90EC900F0B8
:1008F0006DF93B480068FFF75FFC0D98401CC0B2E3
:100900000D900D980528DCDB00BF0E9854282CD1E3
:100910001C223449E03106A8FFF726FC00200D9088
:100920001FE00BA80D99405C00900DF12700405C82
:1009300005900DF12200405C04900DF11D00405C1B
:1009400006A903900D98085C029003A90EC900F057
:100950003DF923480068FFF72FFC0D98401CC0B2FA
:100960000D900D980528DCDB00BF0E9855282CD182
:100970001C221C49FC3106A8FFF7F6FB00200D9055
:100980001FE00BA80D99405C00900DF12700405C22
:1009900005900DF12200405C04900DF11D00405CBB
:1009A00006A903900D98085C029003A90EC900F0F7
:1009B0000DF90B480068FFF7FFFB0D98401CC0B213
:1009C0000D900D980528DCDB00BF0E98562831D11C
:1009D0001C22054906A8FFF7C7FB00200D9025E063
:1009E000080000209C150008B41600080BA80D99FB
:1009F000405C00900DF12700405C05900DF1220055
:100A0000405C04900DF11D00405C06A903900D9818
:100A1000085C029003A90EC900F0D8F86948006884
:100A2000FFF7CAFB0D98401CC0B20D900D98052829
:100A3000DCDB00BF0E9857282BD11C22624906A888
:100A4000FFF792FB00200D901FE00BA80D99405C72
:100A500000900DF12700405C05900DF12200405CF4
:100A600004900DF11D00405C06A903900D98085CF0
:100A7000029003A90EC900F0A9F852480068FFF7D8
:100A80009BFB0D98401CC0B20D900D980528DCDB37
:100A900000BF0E9858282CD11C224B491C3106A8A7
:100AA000FFF762FB00200D901FE00BA80D99405C42
:100AB00000900DF12700405C05900DF12200405C94
:100AC00004900DF11D00405C06A903900D98085C90
:100AD000029003A90EC900F079F83A480068FFF7C0
:100AE0006BFB0D98401CC0B20D900D980528DCDB07
:100AF00000BF0E9859282CD11C223349383106A842
:100B0000FFF732FB00200D901FE00BA80D99405C11
:100B100000900DF12700405C05900DF12200405C33
:100B200004900DF11D00405C06A903900D98085C2F
:100B3000029003A90EC900F049F822480068FFF7A7
:100B40003BFB0D98401CC0B20D900D980528DCDBD6
:100B500000BF0E985A282CD11C221B49543106A8DC
:100B6000FFF702FB00200D901FE00BA80D99405CE1
:100B700000900DF12700405C05900DF12200405CD3
:100B800004900DF11D00405C06A903900D98085CCF
:100B9000029003A90EC900F019F80A480068FFF78F
:100BA0000BFB0D98401CC0B20D900D980528DCDBA6
:100BB00000BF0020034602460146009000F006F800
:100BC0000FB000BD08000020D01600082DE9F0414C
:100BD00007460C4615461E46DDF81880384600F0DC
:100BE00010F8204600F00DF8284600F00AF83046CC
:100BF00000F007F8404600F004F800F09FFABDE866
:100C0000F08110B5044604F0800018B1012000F016
:100C100025FA02E0002000F021FA00F00FFB04F0BA
:100C2000400018B1012000F019FA02E0002000F0A5
:100C300015FA00F003FB04F0200018B1012000F0C9
:100C40000DFA02E0002000F009FA00F0F7FA04F0D3
:100C5000100018B1012000F001FA02E0002000F0BD
:100C6000FDF900F0EBFA04F0080018B1012000F0E3
:100C7000F5F902E0002000F0F1F900F0DFFA04F0ED
:100C8000040018B1012000F0E9F902E0002000F0B2
:100C9000E5F900F0D3FA04F0020018B1012000F0E9
:100CA000DDF902E0002000F0D9F900F0C7FA04F005
:100CB000010018B1012000F0D1F902E0002000F09D
:100CC000CDF900F0BBFA10BD10B54FF4007000F084
:100CD0001BF870B1074800684FF4B471B0FBF1F035
:100CE000054908600020034908604FF4007000F0D7
:100CF00005F810BD0400002008000020014908602C
:100D00007047000014040140014600200022074BF8
:100D10001B6803EA0102054B14331B680B4013B137
:100D20000AB1012000E000207047000000040140EB
:100D3000002123498279002A3AD00A4612680368C2
:100D40009A430B461A600A1D126803689A430B1DEA
:100D50001A60027911440A6803681A430A60184A43
:100D60000832126803689A43154B08331A601A1D3B
:100D7000126803689A43124B0C331A604279102AA6
:100D80000ED11A1F126803681A430D4B08331A60FC
:100D90001A1D126803681A43094B0C331A600DE0E0
:100DA0000749427911440A6803681A430A6005E05A
:100DB000027911440A6803689A430A607047000088
:100DC0000004014030B500228B071C0F0F2303FAEB
:100DD00004F20B4B8C1053F824309343084C8D10C5
:100DE00044F8253023468C1053F824308C07240F08
:100DF00000FA04F42343024C8D1044F8253030BD32
:100E0000080001402DE9F04102460025002600209F
:100E100000230024002791F803C00CF00F0591F87F
:100E200003C00CF0100CBCF1000F03D091F802C00D
:100E30004CEA050591F800C0BCF1000F31D01468F0
:100E400000202BE04FF0010C0CFA00F3B1F800C0C9
:100E50000CEA03069E4220D183004FF00F0C0CFADF
:100E600003F7BC4305FA03FC4CEA040491F803C001
:100E7000BCF1280F06D14FF0010C0CFA00FCC2F8AF
:100E800014C00AE091F803C0BCF1480F05D14FF03F
:100E9000010C0CFA00FCC2F810C0401C0828D1D389
:100EA0001460B1F800C0BCF1FF0F34DD54680020BD
:100EB0002EE000F1080C4FF0010808FA0CF3B1F82D
:100EC00000C00CEA03069E4221D183004FF00F0CB4
:100ED0000CFA03F7BC4305FA03FC4CEA040491F84E
:100EE00003C0BCF1280F05D100F1080C08FA0CF87A
:100EF000C2F8148091F803C0BCF1480F07D100F18B
:100F0000080C4FF0010808FA0CF8C2F81080401CD9
:100F10000828CED35460BDE8F0814161704701617B
:100F2000704700BFFEE7000008B50121042000F073
:100F3000F3F80121082000F0EFF81E20ADF80000C2
:100F400010208DF8030003208DF802006946114837
:100F5000FFF758FF4FF40070ADF8000048208DF8FF
:100F6000030003208DF8020069460B48FFF74AFF93
:100F700002210848FFF7D1FF04210648FFF7CDFF03
:100F800008210448FFF7C9FF10210248FFF7C7FFF7
:100F900008BD000000080140000C01400EB5012111
:100FA000084600F0B9F809210120FFF70BFF4FF4C4
:100FB0000070FFF7A3FE4FF40070019000208DF841
:100FC00008000C208DF8090001208DF80A0001A806
:100FD000FFF7AEFE17208DF8000001208DF801000C
:100FE00000208DF8020001208DF80300684600F013
:100FF00049F80EBD1FB50121084600F07DF801211A
:10100000022000F079F81320ADF804002320ADF899
:1010100008000020ADF8060001A94FF0804000F064
:10102000AFF90121880700F07FF9012211469007EE
:1010300000F09DF91C208DF8000000208DF80100C3
:101040008DF8020001208DF80300684600F01AF8C0
:101050000121880700F06EF91FBD000010B504469D
:1010600024B102210448FFF75AFF03E0022102489D
:10107000FFF753FF10BD00000008014000BFFEE76E
:101080007047000070B5002100230F22C47804B31C
:10109000154C246804F4E064C4F5E064210AC1F14D
:1010A0000403CA40447804FA03F1847814402143CD
:1010B00009010E4C0678A155047804F01F0501249F
:1010C000AC4005786D11AD0005F1E025C5F8004193
:1010D00009E0047804F01F050124AC40044D0678B3
:1010E000761145F8264070BD0CED00E000E400E00C
:1010F00080E100E07047000029B1064AD26902434E
:10110000044BDA6104E0034AD2698243014BDA619D
:10111000704700000010024029B1064A926902435C
:10112000044B9A6104E0034A92698243014B9A613D
:1011300070470000001002407047000010B5082101
:101140000348FFF7EAFE08210148FFF7E8FE10BD5B
:101150000008014010B500F001F810BD0CB50020EA
:10116000019000903348006840F4803031490860B5
:1011700000BF3048006800F4003000900198401C27
:101180000190009818B90198B0F5A06FF1D12948E5
:10119000006800F4003010B10120009001E0002050
:1011A00000900098012843D12348006840F01000C7
:1011B000214908600846006820F0030008600846DE
:1011C000006840F0020008601A4840681949486009
:1011D0000846406848600846406840F480604860BF
:1011E0000846406820F47C1048600846406840F497
:1011F000E81048600846006840F08070086000BF52
:101200000C48006800F000700028F9D009484068D8
:1012100020F00300074948600846406840F002009B
:10122000486000BF0348406800F00C000828F9D16E
:101230000CBD0000001002400020024010B5042147
:101240000348FFF76AFE04210148FFF768FE10BD5E
:101250000008014001460D48006848430B4A1268E7
:10126000A0EB42000A4A126890420CDC0748006872
:101270004843064A126800EB4200054A1268904251
:1012800001DB012070470020FCE70000080000207F
:101290000400002010B51348006840F00100114917
:1012A000086008464068104908400E4948600846F2
:1012B00000680E4908400B4908600846006820F4A1
:1012C000802008600846406820F4FE0048604FF423
:1012D0001F008860FFF73EFF4FF000600449086080
:1012E00010BD0000001002400000FFF8FFFFF6FEF6
:1012F00008ED00E010B50121880700F027F868B17B
:1013000007480068401C0649086006480068401EFF
:10131000044908600121880700F009F810BD0000A9
:101320000400002000000020CA4302827047CA4324
:101330000282704721B1028842F00102028004E07B
:1013400002884FF6FE731A400280704730B502469D
:10135000002000230024158A05EA0103958905EA87
:10136000010413B10CB1012000E0002030BD1AB11E
:1013700083890B43838102E083898B438381704798
:10138000002202881D4B98420ED01D4B98420BD074
:10139000B0F1804F08D01B4B984205D01A4B9842B1
:1013A00002D01A4B984204D14FF68F731A404B88E3
:1013B0001A43174B984207D0164B984204D04FF669
:1013C000FF431A40CB881A4302808B8883850B88A1
:1013D00003850A4B98420BD0094B984208D00E4B1C
:1013E000984205D00D4B984202D00D4B984201D146
:1013F0000B7A03860123838270470000002C014092
:10140000003401400004004000080040000C00408F
:101410000010004000140040004001400044014022
:101420000048014000BFFEE702E008C8121F08C1E3
:10143000002AFAD170477047002001E001C1121F55
:10144000002AFBD17047FFF76FFDFFF7D3FDFFF7D1
:10145000A5FD07E04FF48770FFF7FCFE10B14220B6
:10146000FEF7B4FEF6E700000000000000000000F8
:101470000000FF909090FF000000000000000000BE
:101480000000000000000000000000000000FF99C4
:1014900099996600000000000000000000000000B4
:1014A000000000000000000000007E8181814200F9
:1014B000000000000000000000000000000000002C
:1014C000000000000000FF8181817E00000000001C
:1014D000000000000000000000000000000000000C
:1014E0000000FF99999981000000000000000000B1
:1014F0000000000000000000000000000000FF905D
:10150000909080000000000000000000000000003B
:10151000000000000000000000007E8191919E000C
:1015200000000000000000000000000000000000BB
:10153000000000000000FF181818FF000000000065
:10154000000000000000000000000000000000009B
:1015500000008181FF818100000000000000000088
:1015600000000000000000000000000000000E016C
:1015700001FF00000000000000000000000000006B
:1015800000000000000000000000FF18244281005D
:10159000000000000000000000000000000000004B
:1015A000000000000000FF01010101000000000038
:1015B000000000000000000000000000000000002B
:1015C0000000FF403002FF000000000000000000AB
:1015D0000000000000000000000000000000FF60AC
:1015E000300CFF00000000000000000000000000C0
:1015F000000000000000000000007E8181817E006C
:1016000000000000000000000000000000000000DA
:10161000000000000000FF909090600000000000BB
:1016200000000000000000000000000000000000BA
:1016300000007E8185837F00000000000000000024
:101640000000000000000000000000000000FF900B
:1016500098946300000000000000000000000000FB
:1016600000000000000000000000719191918E00C8
:10167000000000000000000000000000000000006A
:101680000000000000008080FF808000000000005B
:10169000000000000000000000000000000000004A
:1016A0000000FE010101FE0000000000000000003B
:1016B0000000000000000000000000000000FC022C
:1016C0000102FC000000000000000000000000001B
:1016D00000000000000000000000FF020C02FF00FC
:1016E00000000000000000000000000000000000FA
:1016F000000000000000C3241824C3000000000004
:1017000000000000000000000000000000000000D9
:101710000000C0201F20C0000000000000000000EA
:1017200000000000000000000000000000008385B1
:1017300099A1C100000000000000000000000000AE
:1017400060170008000000201000000028140008A6
:101750007017000810000020000400003814000872
:101760000000000000000000000000000000000079
:0400000508000145A9
:00000001FF
