:020000040800F2
:1000000028040020450100086D110008450F000874
:1000100069110008B10100081D150008000000006A
:100020000000000000000000000000002512000891
:10003000B501000800000000E111000841130008AC
:100040005F0100085F0100085F0100085F01000810
:100050005F0100085F0100085F0100085F01000800
:100060005F0100085F0100085F0100085F010008F0
:100070005F0100085F0100085F0100085F010008E0
:100080005F0100085F0100085F0100085F010008D0
:100090005F0100085F0100085F010008A90C00086B
:1000A0005F0100085F0100085F0100085F010008B0
:1000B000B9130008DD1300085F0100085F010008A4
:1000C0005F0100085F0100085F0100085F01000890
:1000D0005F0100085F0100085F0100085F01000880
:1000E0005F0100085F0100085F0100085F01000870
:1000F0005F0100085F0100085F0100085F01000860
:100100005F0100085F0100085F0100085F0100084F
:100110005F0100085F0100085F0100085F0100083F
:100120005F0100085F0100085F0100085F0100082F
:10013000DFF80CD000F02AF8004800473F1500080F
:10014000280400200648804706480047FEE7FEE7EF
:10015000FEE7FEE7FEE7FEE7FEE7FEE7FEE7FEE777
:10016000591300083101000840EA01039B0703D03E
:1001700009E008C9121F08C0042AFAD203E011F8E6
:10018000013B00F8013B521EF9D27047064C074D67
:1001900006E0E06840F0010394E807009847103457
:1001A000AC42F6D3FFF7C8FF5018000870180008DB
:1001B00000BFFEE7704700000349086000BF024926
:1001C00009680029FBD170471400002001B594B0E4
:1001D000149841282AD13422FE4906A8FFF7C4FF0B
:1001E000002013901EE010A81399405C00900DF1C0
:1001F0003600405C05900BA8405C04900DF1220095
:10020000405C06A903901398085C029003A90EC9EC
:1002100000F0CCFCF0480078FFF7CEFF1398401CAC
:10022000C0B2139013980528DDDB00BF1498422854
:100230002CD11C22E74934310CA8FFF795FF002090
:1002400013901FE011A81399405C00900DF13F003E
:10025000405C0B900DF13A00405C0A900DF13500C6
:10026000405C0CA909901398085C089009A90EC974
:1002700000F09CFCD8480078FFF79EFF1398401CC4
:10028000C0B2139013980528DCDB00BF14984328F4
:100290002CD11C22CF4950310CA8FFF765FF00205C
:1002A00013901FE011A81399405C00900DF13F00DE
:1002B000405C0B900DF13A00405C0A900DF1350066
:1002C000405C0CA909901398085C089009A90EC914
:1002D00000F06CFCC0480078FFF76EFF1398401CDC
:1002E000C0B2139013980528DCDB00BF1498442893
:1002F0002CD11C22B7496C310CA8FFF735FF002028
:1003000013901FE011A81399405C00900DF13F007D
:10031000405C0B900DF13A00405C0A900DF1350005
:10032000405C0CA909901398085C089009A90EC9B3
:1003300000F03CFCA8480078FFF73EFF1398401CF3
:10034000C0B2139013980528DCDB00BF1498452831
:100350002CD11C229F4988310CA8FFF705FF0020F3
:1003600013901FE011A81399405C00900DF13F001D
:10037000405C0B900DF13A00405C0A900DF13500A5
:10038000405C0CA909901398085C089009A90EC953
:1003900000F00CFC90480078FFF70EFF1398401C0B
:1003A000C0B2139013980528DCDB00BF14984628D0
:1003B0002CD11C228749A4310CA8FFF7D5FE0020C0
:1003C00013901FE011A81399405C00900DF13F00BD
:1003D000405C0B900DF13A00405C0A900DF1350045
:1003E000405C0CA909901398085C089009A90EC9F3
:1003F00000F0DCFB78480078FFF7DEFE1398401C25
:10040000C0B2139013980528DCDB00BF149847286E
:100410002CD11C226F49C0310CA8FFF7A5FE00208B
:1004200013901FE011A81399405C00900DF13F005C
:10043000405C0B900DF13A00405C0A900DF13500E4
:10044000405C0CA909901398085C089009A90EC992
:1004500000F0ACFB60480078FFF7AEFE1398401C3C
:10046000C0B2139013980528DCDB00BF149848280D
:100470002CD11C225749DC310CA8FFF775FE002057
:1004800013901FE011A81399405C00900DF13F00FC
:10049000405C0B900DF13A00405C0A900DF1350084
:1004A000405C0CA909901398085C089009A90EC932
:1004B00000F07CFB48480078FFF77EFE1398401C54
:1004C000C0B2139013980528DCDB00BF14984928AC
:1004D0002CD11C223F49F8310CA8FFF745FE002023
:1004E00013901FE011A81399405C00900DF13F009C
:1004F000405C0B900DF13A00405C0A900DF1350024
:10050000405C0CA909901398085C089009A90EC9D1
:1005100000F04CFB30480078FFF74EFE1398401C6B
:10052000C0B2139013980528DCDB00BF14984A284A
:100530002BD11C2229490CA8FFF716FE002013908E
:100540001FE011A81399405C00900DF13F00405C42
:100550000B900DF13A00405C0A900DF13500405CC3
:100560000CA909901398085C089009A90EC900F01D
:100570001DFB19480078FFF71FFE1398401CC0B2FE
:10058000139013980528DCDB00BF14984B2833D157
:100590001C2212491C310CA8FFF7E6FD0020139025
:1005A00026E011A81399405C00900DF13F00405CDB
:1005B0000B900DF13A00405C0A900DF13500405C63
:1005C0000CA909901398085C089009A90EC900F0BD
:1005D000EDFA05E0601500081C0000207416000804
:1005E000FA480078FFF7E8FD1398401CC0B213905A
:1005F00013980528D5DB00BF14984C282BD11C225A
:10060000F3490CA8FFF7B0FD002013901FE011A8DC
:100610001399405C00900DF13F00405C0B900DF190
:100620003A00405C0A900DF13500405C0CA909903D
:100630001398085C089009A90EC900F0B7FAE348BE
:100640000078FFF7B9FD1398401CC0B213901398BF
:100650000528DCDB00BF14984D282CD11C22DC4976
:100660001C310CA8FFF780FD002013901FE011A89B
:100670001399405C00900DF13F00405C0B900DF130
:100680003A00405C0A900DF13500405C0CA90990DD
:100690001398085C089009A90EC900F087FACB48A6
:1006A0000078FFF789FD1398401CC0B2139013988F
:1006B0000528DCDB00BF14984E282CD11C22C4492D
:1006C00038310CA8FFF750FD002013901FE011A84F
:1006D0001399405C00900DF13F00405C0B900DF1D0
:1006E0003A00405C0A900DF13500405C0CA909907D
:1006F0001398085C089009A90EC900F057FAB3488E
:100700000078FFF759FD1398401CC0B2139013985E
:100710000528DCDB00BF14984F282CD11C22AC49E3
:1007200054310CA8FFF720FD002013901FE011A802
:100730001399405C00900DF13F00405C0B900DF16F
:100740003A00405C0A900DF13500405C0CA909901C
:100750001398085C089009A90EC900F027FA9B4875
:100760000078FFF729FD1398401CC0B2139013982E
:100770000528DCDB00BF149850282CD11C2294499A
:1007800070310CA8FFF7F0FC002013901FE011A8B7
:100790001399405C00900DF13F00405C0B900DF10F
:1007A0003A00405C0A900DF13500405C0CA90990BC
:1007B0001398085C089009A90EC900F0F7F983485E
:1007C0000078FFF7F9FC1398401CC0B213901398FF
:1007D0000528DCDB00BF149851282CD11C227C4951
:1007E0008C310CA8FFF7C0FC002013901FE011A86B
:1007F0001399405C00900DF13F00405C0B900DF1AF
:100800003A00405C0A900DF13500405C0CA909905B
:100810001398085C089009A90EC900F0C7F96B4845
:100820000078FFF7C9FC1398401CC0B213901398CE
:100830000528DCDB00BF149852282CD11C22644907
:10084000A8310CA8FFF790FC002013901FE011A81E
:100850001399405C00900DF13F00405C0B900DF14E
:100860003A00405C0A900DF13500405C0CA90990FB
:100870001398085C089009A90EC900F097F953482D
:100880000078FFF799FC1398401CC0B2139013989E
:100890000528DCDB00BF149853282CD11C224C49BE
:1008A000C4310CA8FFF760FC002013901FE011A8D2
:1008B0001399405C00900DF13F00405C0B900DF1EE
:1008C0003A00405C0A900DF13500405C0CA909909B
:1008D0001398085C089009A90EC900F067F93B4815
:1008E0000078FFF769FC1398401CC0B2139013986E
:1008F0000528DCDB00BF149854282CD11C22344975
:10090000E0310CA8FFF730FC002013901FE011A885
:100910001399405C00900DF13F00405C0B900DF18D
:100920003A00405C0A900DF13500405C0CA909903A
:100930001398085C089009A90EC900F037F92348FC
:100940000078FFF739FC1398401CC0B2139013983D
:100950000528DCDB00BF149855282CD11C221C492B
:10096000FC310CA8FFF700FC002013901FE011A839
:100970001399405C00900DF13F00405C0B900DF12D
:100980003A00405C0A900DF13500405C0CA90990DA
:100990001398085C089009A90EC900F007F90B48E4
:1009A0000078FFF709FC1398401CC0B2139013980D
:1009B0000528DCDB00BF1498562831D11C220549DC
:1009C0000CA8FFF7D1FB0020139025E01C000020AD
:1009D000AC160008C417000811A81399405C0090D9
:1009E0000DF13F00405C0B900DF13A00405C0A9025
:1009F0000DF13500405C0CA909901398085C089033
:100A000009A90EC900F0D2F866480078FFF7D4FBB8
:100A10001398401CC0B2139013980528DCDB00BF6C
:100A2000149857282BD11C225F490CA8FFF79CFB78
:100A3000002013901FE011A81399405C00900DF165
:100A40003F00405C0B900DF13A00405C0A900DF1C4
:100A50003500405C0CA909901398085C089009A91E
:100A60000EC900F0A3F84F480078FFF7A5FB1398D4
:100A7000401CC0B2139013980528DCDB00BF14980B
:100A800058282CD11C2248491C310CA8FFF76CFBBC
:100A9000002013901FE011A81399405C00900DF105
:100AA0003F00405C0B900DF13A00405C0A900DF164
:100AB0003500405C0CA909901398085C089009A9BE
:100AC0000EC900F073F837480078FFF775FB1398EC
:100AD000401CC0B2139013980528DCDB00BF1498AB
:100AE00059282CD11C22304938310CA8FFF73CFB87
:100AF000002013901FE011A81399405C00900DF1A5
:100B00003F00405C0B900DF13A00405C0A900DF103
:100B10003500405C0CA909901398085C089009A95D
:100B20000EC900F043F81F480078FFF745FB139803
:100B3000401CC0B2139013980528DCDB00BF14984A
:100B40005A282CD11C22184954310CA8FFF70CFB51
:100B5000002013901FE011A81399405C00900DF144
:100B60003F00405C0B900DF13A00405C0A900DF1A3
:100B70003500405C0CA909901398085C089009A9FD
:100B80000EC900F013F807480078FFF715FB13981B
:100B9000401CC0B2139013980528DCDB00BF15B0D1
:100BA00000BD00001C000020E01700082DE9F04106
:100BB00007460C4615461E46DDF81880384600F0FC
:100BC00010F8204600F00DF8284600F00AF83046EC
:100BD00000F007F8404600F004F800F025FBBDE8FF
:100BE000F08110B5044604F0800018B1012000F037
:100BF000ABFA02E0002000F0A7FA00F095FB04F049
:100C0000400018B1012000F09FFA02E0002000F03F
:100C10009BFA00F089FB04F0200018B1012000F0DD
:100C200093FA02E0002000F08FFA00F07DFB04F060
:100C3000100018B1012000F087FA02E0002000F057
:100C400083FA00F071FB04F0080018B1012000F0F5
:100C50007BFA02E0002000F077FA00F065FB04F078
:100C6000040018B1012000F06FFA02E0002000F04B
:100C70006BFA00F059FB04F0020018B1012000F0FB
:100C800063FA02E0002000F05FFA00F04DFB04F090
:100C9000010018B1012000F057FA02E0002000F036
:100CA00053FA00F041FB10BD10B54FF4007000F096
:100CB00033F8F8B14FF400710F4800F036F988B9F5
:100CC00000210E4800F01CFC0D4800684FF4B47180
:100CD000B0FBF1F00B4908700020094908600A498F
:100CE000086003E00121054800F00AFC4FF40070A1
:100CF00000F00CF810BD0000000C014000040040A2
:100D0000200000201C00002018000020014908607D
:100D10007047000014040140014600200022074BE8
:100D20001B6803EA0102054B14331B680B4013B127
:100D30000AB1012000E000207047000000040140DB
:100D4000002123498279002A3AD00A4612680368B2
:100D50009A430B461A600A1D126803689A430B1DDA
:100D60001A60027911440A6803681A430A60184A33
:100D70000832126803689A43154B08331A601A1D2B
:100D8000126803689A43124B0C331A604279102A96
:100D90000ED11A1F126803681A430D4B08331A60EC
:100DA0001A1D126803681A43094B0C331A600DE0D0
:100DB0000749427911440A6803681A430A6005E04A
:100DC000027911440A6803689A430A607047000078
:100DD0000004014030B500228B071C0F0F2303FADB
:100DE00004F20B4B8C1053F824309343084C8D10B5
:100DF00044F8253023468C1053F824308C07240FF8
:100E000000FA04F42343024C8D1044F8253030BD21
:100E1000080001402DE9F04102460025002600208F
:100E200000230024002791F803C00CF00F0591F86F
:100E300003C00CF0100CBCF1000F03D091F802C0FD
:100E40004CEA050591F800C0BCF1000F31D01468E0
:100E500000202BE04FF0010C0CFA00F3B1F800C0B9
:100E60000CEA03069E4220D183004FF00F0C0CFACF
:100E700003F7BC4305FA03FC4CEA040491F803C0F1
:100E8000BCF1280F06D14FF0010C0CFA00FCC2F89F
:100E900014C00AE091F803C0BCF1480F05D14FF02F
:100EA000010C0CFA00FCC2F810C0401C0828D1D379
:100EB0001460B1F800C0BCF1FF0F34DD54680020AD
:100EC0002EE000F1080C4FF0010808FA0CF3B1F81D
:100ED00000C00CEA03069E4221D183004FF00F0CA4
:100EE0000CFA03F7BC4305FA03FC4CEA040491F83E
:100EF00003C0BCF1280F05D100F1080C08FA0CF86A
:100F0000C2F8148091F803C0BCF1480F07D100F17A
:100F1000080C4FF0010808FA0CF8C2F81080401CC9
:100F20000828CED35460BDE8F081024600209368C3
:100F30000B400BB1012000E0002070474161704779
:100F40000161704700BFFEE708B50121042000F0F1
:100F500059F90121082000F055F91E20ADF80000D4
:100F600010208DF8030003208DF802006946114817
:100F7000FFF750FF4FF40070ADF8000028208DF807
:100F8000030003208DF8020069460B48FFF742FF7B
:100F900002210848FFF7D2FF04210648FFF7CEFFE1
:100FA00008210448FFF7CAFF10210248FFF7C8FFD5
:100FB00008BD000000080140000C01401FB50121E0
:100FC000092000F01FF94FF40070ADF80C00482024
:100FD0008DF80F0003208DF80E0003A91448FFF7C9
:100FE00019FF09210120FFF7F5FE4FF40070FFF70C
:100FF0008DFE4FF40070019000208DF80800102045
:101000008DF8090001208DF80A0001A8FFF798FE6D
:1010100017208DF8000000208DF801008DF80200E7
:1010200001208DF80300684600F0A2F81FBD000003
:10103000000C014030B514480068144AB0FBF2F1CE
:10104000B1F1807F00D31DE021F07F40401E4FF0C2
:10105000E022506150170F22002807DA13071D0EF7
:101060000B4B00F00F04241F1D5503E013071C0E4B
:10107000084B1C5400BF00204FF0E0229061072075
:10108000106100BF30BD00000000002040420F0092
:1010900018ED00E000E400E01FB50121084600F073
:1010A000A1F80121022000F09DF80120ADF8040014
:1010B0002320ADF808000020ADF8060001A94FF08C
:1010C000804000F0CBF90121880700F09BF9012254
:1010D0001146900700F0B9F91C208DF8000002209D
:1010E0008DF8010000208DF8020001208DF803002A
:1010F000684600F03DF80120ADF804002320ADF86B
:1011000008000020ADF8060001A90E4800F0A6F97D
:1011100001210C4800F076F901221146094800F03F
:1011200094F91D208DF8000003208DF801000020A7
:101130008DF8020001208DF80300684600F018F8D1
:101140001FBD00000004004010B5044624B1022178
:101150000448FFF7F5FE03E002210248FFF7EEFE28
:1011600010BD00000008014000BFFEE7704700000E
:1011700070B5002100230F22C47804B3154C2468F5
:1011800004F4E064C4F5E064210AC1F10403CA4038
:10119000447804FA03F184781440214309010E4C89
:1011A0000678A155047804F01F050124AC400578A9
:1011B0006D11AD0005F1E025C5F8004109E00478A6
:1011C00004F01F050124AC40044D0678761145F863
:1011D000264070BD0CED00E000E400E080E100E09E
:1011E0007047000029B1064AD2690243044BDA6114
:1011F00004E0034AD2698243014BDA617047000080
:101200000010024029B1064A92690243044B9A61D8
:1012100004E0034A92698243014B9A6170470000DF
:10122000001002407047000010B508210348FFF786
:1012300085FE08210148FFF783FE10BD000801402C
:1012400010B500F001F810BD0CB500200190009021
:101250003348006840F480303149086000BF3048AE
:10126000006800F4003000900198401C0190009844
:1012700018B90198B0F5A06FF1D12948006800F4C1
:10128000003010B10120009001E000200090009893
:10129000012843D12348006840F01000214908602C
:1012A0000846006820F0030008600846006840F027
:1012B000020008601A4840681949486008464068BA
:1012C00048600846406840F48060486008464068CE
:1012D00020F47C1048600846406840F4E8104860FC
:1012E0000846006840F08070086000BF0C48006845
:1012F00000F000700028F9D00948406820F0030091
:10130000074948600846406840F00200486000BF56
:101310000348406800F00C000828F9D10CBD00001B
:10132000001002400020024010B504210348FFF7DE
:1013300005FE04210148FFF703FE10BD000801402F
:101340000448006820B103480068401E0149086055
:10135000704700001400002010B51348006840F0EA
:1013600001001149086008464068104908400E49CC
:101370004860084600680E4908400B490860084666
:10138000006820F4802008600846406820F4FE00D1
:1013900048604FF41F008860FFF752FF4FF0006075
:1013A0000449086010BD0000001002400000FFF872
:1013B000FFFFF6FE08ED00E010B50121880700F000
:1013C00033F840B104480068401C0349086001211B
:1013D000880700F01AF810BD1800002010B5012190
:1013E000064800F021F840B105480068401C044957
:1013F00008600121014800F008F810BD0004004019
:1014000020000020CA4302827047CA43028270470C
:1014100021B1028842F00102028004E002884FF606
:10142000FE731A400280704730B502460020002348
:101430000024158A05EA0103958905EA010413B120
:101440000CB1012000E0002030BD1AB183890B43AC
:10145000838102E083898B43838170470022028865
:101460001D4B98420ED01D4B98420BD0B0F1804FCF
:1014700008D01B4B984205D01A4B984202D01A4B09
:10148000984204D14FF68F731A404B881A43174B7A
:10149000984207D0164B984204D04FF6FF431A40AB
:1014A000CB881A4302808B8883850B8803850A4B7F
:1014B00098420BD0094B984208D00E4B984205D069
:1014C0000D4B984202D00D4B984201D10B7A038606
:1014D0000123838270470000002C0140003401404A
:1014E0000004004000080040000C004000100040D4
:1014F0000014004000400140004401400048014009
:1015000070B505460C4624B101212846FFF780FF3F
:1015100003E000212846FFF77BFF70BD00BFFEE718
:1015200002E008C8121F08C1002AFAD170477047AC
:10153000002001E001C1121F002AFBD17047FFF714
:1015400003FDFFF777FDFFF7A7FDFFF737FD01214B
:101550008807FFF7D5FF02E04120FEF737FEFBE7E3
:10156000000000000000000000000000000000007B
:10157000000000007F9090907F00000000000000BD
:10158000000000000000000000000000000000005B
:101590000000000000000000000000000000FF99B3
:1015A00099996600000000000000000000000000A3
:1015B000000000000000000000007E8181814200E8
:1015C000000000000000000000000000000000001B
:1015D000000000000000FF8181817E00000000000B
:1015E00000000000000000000000000000000000FB
:1015F0000000FF99999981000000000000000000A0
:101600000000000000000000000000000000FF904B
:10161000909080000000000000000000000000002A
:10162000000000000000000000007E8191919E00FB
:1016300000000000000000000000000000000000AA
:10164000000000000000FF181818FF000000000054
:10165000000000000000000000000000000000008A
:1016600000008181FF818100000000000000000077
:1016700000000000000000000000000000000E015B
:1016800001FF00000000000000000000000000005A
:1016900000000000000000000000FF18244281004C
:1016A000000000000000000000000000000000003A
:1016B000000000000000FF01010101000000000027
:1016C000000000000000000000000000000000001A
:1016D0000000FF403002FF0000000000000000009A
:1016E0000000000000000000000000000000FF609B
:1016F000300CFF00000000000000000000000000AF
:10170000000000000000000000007E8181817E005A
:1017100000000000000000000000000000000000C9
:10172000000000000000FF909090600000000000AA
:1017300000000000000000000000000000000000A9
:1017400000007E8185837F00000000000000000013
:101750000000000000000000000000000000FF90FA
:1017600098946300000000000000000000000000EA
:1017700000000000000000000000719191918E00B7
:101780000000000000000000000000000000000059
:101790000000000000008080FF808000000000004A
:1017A0000000000000000000000000000000000039
:1017B0000000FE010101FE0000000000000000002A
:1017C0000000000000000000000000000000FC021B
:1017D0000102FC000000000000000000000000000A
:1017E00000000000000000000000FF020C02FF00EB
:1017F00000000000000000000000000000000000E9
:10180000000000000000C3241824C30000000000F2
:1018100000000000000000000000000000000000C8
:101820000000C0201F20C0000000000000000000D9
:1018300000000000000000000000000000008385A0
:1018400099A1C1000000000000000000000000009D
:101850007018000800000020240000002015000877
:10186000941800082400002004040000301500082B
:1018700000A24A040000000000000000010203046E
:101880000607080900000000000000000500000035
:041890000000000054
:0400000508000145A9
:00000001FF
