:020000040800F2
:10000000100400204501000893150008571400084B
:100010008F1500089D010008151900080000000058
:100020000000000000000000000000004916000869
:100030006904000800000000051600085D010008C2
:100040005F0100085F0100085F0100085F01000810
:100050005F0100085F0100085F0100085F01000800
:100060005F0100085F0100085F0100085F010008F0
:100070005F0100085F0100085F0100085F010008E0
:100080005F0100085F0100085F0100085F010008D0
:100090005F0100085F0100085F01000811120008FD
:1000A0005F0100085F0100085F0100085F010008B0
:1000B000D91700085F0100085F0100085F01000810
:1000C0005F0100085F0100085F0100085F01000890
:1000D0005F0100085F0100085F0100085F01000880
:1000E0005F0100085F0100085F0100085F01000870
:1000F0005F0100085F0100085F0100085F01000860
:100100005F0100085F0100085F0100085F0100084F
:100110005F0100085F0100085F0100085F0100083F
:100120005F0100085F0100085F0100085F0100082F
:10013000DFF80CD000F020F800480047391900081B
:10014000100400200648804706480047FEE7FEE707
:10015000FEE7FEE7FEE7FEE7FEE7FEE7FEE7FEE777
:100160007917000831010008421C10F8011B002912
:10017000FBD1801A70470000064C074D06E0E0688E
:1001800040F0010394E8070098471034AC42F6D3DE
:10019000FFF7D2FFD41A0008F41A000800BFFEE7E8
:1001A0000CB502464D2A7FD01ADC462A48D00EDC18
:1001B000432A30D006DC202A74D0412A1DD0422A9E
:1001C00071D121E0442A2DD0452AF9D131E0A2F1A4
:1001D0004700062867D2DFE800F03A41484F575EF3
:1001E000A2F14E000D28F5D2DFE800F0656C737ABD
:1001F00081888F969DA4ABB2B90060A309CBCDE9ED
:1002000000031DF801000CBD5EA309CBCDE900037E
:100210001DF80100F7E75DA309CBCDE900031DF848
:100220000100F0E75BA309CBCDE900031DF8010055
:10023000E9E75AA309CBCDE900031DF80100E2E785
:1002400058A309CBCDE900031DF80100DBE757A354
:1002500009CBCDE900031DF80100D4E755A309CB74
:10026000CDE900031DF80100CDE754A309CBCDE98A
:1002700000031DF80100C6E752A309CBCDE9000336
:100280001DF80100BFE70FE050A309CBCDE9000343
:100290001DF80100B7E74FA309CBCDE900031DF816
:1002A0000100B0E762E067E04CA309CBCDE90003B1
:1002B0001DF80100A7E74BA309CBCDE900031DF80A
:1002C0000100A0E749A309CBCDE900031DF8010017
:1002D00099E748A309CBCDE900031DF8010092E797
:1002E00046A309CBCDE900031DF801008BE745A328
:1002F00009CBCDE900031DF8010084E743A309CB36
:10030000CDE900031DF801007DE742A309CBCDE94B
:1003100000031DF8010076E740A309CBCDE90003F7
:100320001DF801006FE73FA309CBCDE900031DF8DD
:10033000010068E73DA309CBCDE900031DF80100EA
:1003400061E73CA309CBCDE900031DF801005AE7A2
:100350003AA309CBCDE900031DF8010053E739A307
:1003600009CBCDE900031DF801004CE70020009007
:1003700001901DF8010046E7002044E77E90909030
:100380007E000000FE9292926C0000007C828282CD
:1003900044000000FE8282827C000000FE92929265
:1003A00082000000FE909090800000007C8292927B
:1003B0009C000000FE101010FE0000008282FE82F1
:1003C000820000000C0202FC00000000FE10284425
:1003D00082000000FE02020202000000FE403040E7
:1003E000FE000000FE201008FE0000007C828282D9
:1003F0007C000000FE909090600000007C828A8665
:100400007E000000FE90989462000000729292922A
:100410008C0000008080FE8080000000FC02020250
:10042000FC000000F8040204F8000000FE041804B8
:10043000FE000000C6281028C6000000C0201E20B4
:10044000C0000000868A92A2C200000000B5102001
:100450000449086001F0FAF810200249091F0860F9
:1004600000BD000014080140704700000349086007
:1004700000BF024909680029FBD170470400002031
:1004800001B581B0019801F05DF900287ED000200F
:10049000034602460146009000F0C8FDFE48006891
:1004A00000EB40000090FFF7E1FF0020034602460A
:1004B0000146009000F0BAFDF748006800EB4000EC
:1004C0000090FFF7D3FF0020034602466021009012
:1004D000012000F0ABFDF048006800EB4000009008
:1004E000FFF7C4FF002003460246E02100900120F0
:1004F00000F09CFDE848006800EB40000090FFF72A
:10050000B5FF002003460246E0210090012000F0E4
:100510008DFDE148006800EB40000090FFF7A6FF6A
:10052000002003460246C0210090012000F07EFD1D
:10053000D948006800EB40000090FFF797FF0020CB
:1005400003460246C0210090012000F06FFDD24812
:10055000006800EB40000090FFF788FF0020034692
:100560000246C0210090012000F060FDCA480068EA
:1005700000EB40000090FFF779FF002003460246A1
:10058000C0210090012000F051FD00E0FDE3C248D1
:10059000006800EB40000090FFF768FF0020034672
:1005A0000246E021009000F041FDBB48006800EBEE
:1005B00040000090FFF75AFF002003460246E0216A
:1005C000009000F033FDB448006800EB400000905C
:1005D000FFF74CFF002003460246F0210090012067
:1005E00000F024FDAC48006800EB40000090FFF7ED
:1005F0003DFF002003460246F8210090012000F054
:1006000015FDA548006800EB40000090FFF72EFFA5
:10061000002003460246FF210090012000F006FD65
:100620009D48006800EB40000090FFF71FFF00208E
:1006300003468022FF210090012000F0F7FC96483D
:10064000006800EB40000090FFF710FF0020034619
:10065000C022FF21009000F0E9FC8F48006800EB09
:1006600040000090FFF702FF00200346C022FF2158
:10067000009000F0DBFC8848006800EB4000009030
:10068000FFF7F4FE00200346F022FF21009000F067
:10069000CDFC8148006800EB40000090FFF7E6FECB
:1006A00000200346F822FF21009000F0BFFC7A48AA
:1006B000006800EB40000090FFF7D8FE00200346E2
:1006C000FC22FF21009000F0B1FC7348006800EBB1
:1006D00040000090FFF7CAFE00200346F422FF21ED
:1006E000009000F0A3FC6C48006800EB4000009014
:1006F000FFF7BCFE00200346E422CF21009000F06B
:1007000095FC6548006800EB40000090FFF7AEFEE6
:1007100000200346E6228F21009000F087FC5E480F
:10072000006800EB40000090FFF7A0FE00200346A9
:10073000E2220F21009000F079FC5748006800EB9E
:1007400040000090FFF792FE00203023C1220721D5
:10075000009000F06BFC5048006800EB40000090F7
:10076000FFF784FE0020F823C1220721009000F04B
:100770005DFC4948006800EB40000090FFF776FE02
:100780003E20FC2380223F210090002000F04EFC00
:100790004148006800EB40000090FFF767FEFC2036
:1007A000FF2300223F210090104600F03FFC3A4812
:1007B000006800EB40000090FFF758FEF020FF2398
:1007C00000221E210090104600F030FC32480068E4
:1007D00000EB40000090FFF749FEE0207F2300225D
:1007E0001A210090202000F021FC2B48006800EB2B
:1007F00040000090FFF73AFEC0207F23002208212E
:100800000090302000F012FC2348006800EB40000C
:100810000090FFF72BFE80207F230022082100900C
:10082000702000F003FC1C48006800EB40000090C2
:10083000FFF71CFE80201F23002204210090792056
:1008400000F0F4FB1448006800EB40000090FFF754
:100850000DFE00201E23024680210090FF2000F0A4
:10086000E5FB0D48006800EB40000090FFF7FEFD3F
:1008700000201E230246C0210090FF2000F0D6FB7E
:100880000548006800EB40000090FFF7EFFD0020F6
:100890001C230246C02101E00C00002000907F20B4
:1008A00000F0C4FBFE48006800EB40000090FFF73A
:1008B000DDFD002003460246014600907F2000F047
:1008C000B5FBF748006800EB40000090FFF7CEFD55
:1008D000002003460246014600903E2000F0A6FBA1
:1008E000EF48006800EB40000090FFF7BFFD0020DC
:1008F00003460246014600901C2000F097FBE848A2
:10090000006800EB40000090FFF7B0FD00200346B8
:10091000024601460090082000F088FBE04800688D
:1009200000EB40000090FFF7A1FD002003460246C7
:100930000146009000F07AFBD948006800EB4000C7
:100940000090FFF793FD0020034618220146009017
:1009500000F06CFBD248006800EB40000090FFF70D
:1009600085FD002003463C220146009000F05EFB1E
:10097000CB48006800EB40000090FFF777FD0020B7
:100980000346FE220321009000F050FBC44800689B
:1009900000EB40000090FFF769FD00200346FE22B7
:1009A0006221009000F042FBBD48006800EB40006F
:1009B0000090FFF75BFD00200346FE223E210090E1
:1009C00000F034FBB648006800EB40000090FFF7F1
:1009D0004DFD00200346FE220C21009000F026FB76
:1009E000AF48006800EB40000090FFF73FFD00209B
:1009F0000346FE229D21009000F018FBA8480068E5
:100A000000EB40000090FFF731FD00200346FF227D
:100A100098210090012000F009FBA148006800EB3C
:100A200040000090FFF722FD002090237F22D82174
:100A30000090012000F0FAFA9948006800EB4000AD
:100A40000090FFF713FD0020FE237F2298210090E5
:100A5000032000F0EBFA9248006800EB40000090A1
:100A6000FFF704FD0020FF237F221C2100900220BD
:100A700000F0DCFA8A48006800EB40000090FFF7C5
:100A8000F5FC0020FE237F22BC210090062000F010
:100A9000CDFA8348006800EB40000090FFF7E6FCC9
:100AA0000020FE237F22FC210090072000F0BEFAE8
:100AB0007B48006800EB40000090FFF7D7FC002067
:100AC000FC237F22FA210090052000F0AFFA744841
:100AD000006800EB40000090FFF7C8FC0020F02306
:100AE0005F22FA210090022000F0A0FA6C48006812
:100AF00000EB40000090FFF7B9FC0020F023CF226C
:100B0000FB210090022000F091FA6548006800EB9C
:100B100040000090FFF7AAFC00200346E722FF21D7
:100B2000009000F083FA5E48006800EB40000090FF
:100B3000FFF79CFC00200C23FA22FF2100900120EB
:100B400000F074FA5648006800EB40000090FFF790
:100B50008DFC00201823BA22F9210090032000F018
:100B600065FA4F48006800EB40000090FFF77EFCFC
:100B700000200346D022F8210090032000F056FA0E
:100B80004748006800EB40000090FFF76FFC002032
:100B90000346D022FF210090032000F047FA40488E
:100BA000006800EB40000090FFF760FC0020034667
:100BB000C022FF210090032000F038FA3848006876
:100BC00000EB40000090FFF751FC00200346C022DC
:100BD000FF210090032000F029FA3148006800EB63
:100BE00040000090FFF742FC00200346C022FF2196
:100BF0000090032000F01AFA2948006800EB40003A
:100C00000090FFF733FC00200346E022FF21009014
:100C10000D2000F00BFA2248006800EB4000009025
:100C2000FFF724FC00200346F022FF21009007205C
:100C300000F0FCF91A48006800EB40000090FFF754
:100C400015FC00200346FC22FF210090052000F047
:100C5000EDF91348006800EB40000090FFF706FC38
:100C600000200346F022FF210090072000F0DEF96B
:100C70000B48006800EB40000090FFF7F7FB0020F6
:100C80000346E022FF2100900F2000F0CFF9044836
:100C9000006800EB40000090FFF7E8FB002001E057
:100CA0000C0000200346E022FF2100900F2000F0FE
:100CB000BDF9DD48006800EB40000090FFF7D6FB6F
:100CC00000200346E022FF2100901F2000F0AEF933
:100CD000D548006800EB40000090FFF7C7FB0020FC
:100CE0000346F022FF2100901F2000F09FF9CE481C
:100CF000006800EB40000090FFF7B8FB00200346BF
:100D0000F822FF2100901F2000F090F9C6480068EB
:100D100000EB40000090FFF7A9FB00200346FC22F7
:100D2000FF2100903F2000F081F9BF48006800EBF0
:100D300040000090FFF79AFB00200346FE22FF21AF
:100D400000903F2000F072F9B748006800EB4000C7
:100D50000090FFF78BFB00200346E422FF21009068
:100D60001F2000F063F9B048006800EB40000090DD
:100D7000FFF77CFB00200346E022FF2100900F20BC
:100D800000F054F9A848006800E04CE100EB400096
:100D90000090FFF76BFB00200346E022FF2100904C
:100DA0000F2000F043F9A048006800EB40000090DD
:100DB000FFF75CFB00200346C022FE2100900F20BD
:100DC00000F034F99848006800EB40000090FFF70D
:100DD0004DFB002003460246FE2100900F2000F04C
:100DE00025F99148006800EB40000090FFF73EFBBA
:100DF000C02003230022FF2100900F2000F016F9ED
:100E00008948006800EB40000090FFF72FFB80202E
:100E100003230022FC210090072000F007F98248FC
:100E2000006800EB40000090FFF720FB80200723C4
:100E30000022FC210090184600F0F8F87A4800687B
:100E400000EB40000090FFF711FB802007230022F9
:100E5000D8210090184600F0E9F87348006800EBCC
:100E600040000090FFF702FB00200F230246802184
:100E70000090072000F0DAF86B48006800EB4000B3
:100E80000090FFF7F3FA00200F2302468021009024
:100E9000184600F0CBF86448006800EB4000009072
:100EA000FFF7E4FA8020072300220146009018464D
:100EB00000F0BCF85C48006800EB40000090FFF7D1
:100EC000D5FAC0200723002280210090184600F0A8
:100ED000ADF85548006800EB40000090FFF7C6FAF7
:100EE000C0200F23002280210090072000F09EF8F0
:100EF0004D48006800EB40000090FFF7B7FAD020A3
:100F00000723002260210090184600F08FF8464821
:100F1000006800EB40000090FFF7A8FAC020012312
:100F2000002240210090032000F080F83E48006835
:100F300000EB40000090FFF799FA002003460246BC
:100F400080210090032000F071F83748006800EB22
:100F500040000090FFF78AFA0020034602468021F5
:100F60000090032000F062F82F48006800EB40007A
:100F70000090FFF77BFA0020034602468021009094
:100F8000032000F053F82848006800EB4000009070
:100F9000FFF76CFA0020034602460146009002204B
:100FA00000F044F82048006800EB40000090FFF794
:100FB0005DFA00200346024601460090022000F040
:100FC00035F81948006800EB40000090FFF74EFA32
:100FD00000200346024601460090022000F026F859
:100FE0001148006800EB40000090FFF73FFA002036
:100FF000034602460146009000F018F80A480068CF
:1010000000EB40000090FFF731FA00200346024653
:101010000146009000F00AF80348006800EB400029
:101020000090FFF723FA0CBD0C0000202DE9F041E1
:1010300007460C4615461E46DDF81880384600F077
:1010400015F8204600F012F8284600F00FF8304658
:1010500000F00CF8404600F009F80820024908604A
:10106000091F0860BDE8F0811408014010B5024670
:101070008021002013E002EA01031BB10223094C86
:10108000236003E00223074C241D23600423054C46
:10109000241D2360241F23604910431CD8B2082854
:1010A000E9DB10BD100801402DE9FF4F85B00D466A
:1010B00016461F46DDE9129A059800F043FB00280A
:1010C00072D02846FFF750F8C0B28DF804003046C1
:1010D000FFF74AF8C0B28DF805003846FFF744F82C
:1010E000C0B28DF806004846FFF73EF8C0B28DF852
:1010F00007005046FFF738F8C0B28DF808009DF899
:1011000004B0012408E001A8005D584502DD01A8F3
:1011100010F804B0601CC4B2052CF4DB00246FE0AE
:101120004FF000085FE09DF80400A04203DA0020C1
:101130008DF80C0005E0285D4146FFF731F88DF889
:101140000C009DF80500A04203DA00208DF80D0088
:1011500005E0305D4146FFF723F88DF80D009DF85E
:101160000600A04203DA00208DF80E0005E0385D8D
:101170004146FFF715F88DF80E009DF80700A042D4
:1011800003DA00208DF80F0006E019F8040041464C
:10119000FFF706F88DF80F009DF80800A04204DA6A
:1011A00000208DF8100007E02DE01AF804004146F9
:1011B000FEF7F6FF8DF810009DF8100000909DF8E6
:1011C0000F309DF80E209DF80D109DF80C00FFF7D4
:1011D0002DFF0E49096801EB4100FFF747F908F1BF
:1011E000010000F0FF08B8F1050F9CDBFFF72EF9B6
:1011F0000649096801EB8100FFF738F9601CC4B2A9
:101200005C458DDB00BF09B0BDE8F08F0C0000200D
:1012100010B54FF4007000F011F830B10020034910
:1012200008604FF4007000F003F810BD08000020C3
:101230000149086070470000140401400146002085
:101240000022074B1B6803EA0102054B14331B689D
:101250000B4013B10AB1012000E0002070470000EC
:1012600000040140002123498279002A3AD00A462D
:10127000126803689A430B461A600A1D12680368D5
:101280009A430B1D1A60027911440A6803681A43D5
:101290000A60184A0832126803689A43154B0833EB
:1012A0001A601A1D126803689A43124B0C331A60B5
:1012B0004279102A0ED11A1F126803681A430D4B87
:1012C00008331A601A1D126803681A43094B0C335D
:1012D0001A600DE00749427911440A6803681A430D
:1012E0000A6005E0027911440A6803689A430A60BB
:1012F000704700000004014030B500228B071C0F2E
:101300000F2303FA04F20B4B8C1053F82430934351
:10131000084C8D1044F8253023468C1053F82430A7
:101320008C07240F00FA04F42343024C8D1044F878
:10133000253030BD080001402DE9F041024600256E
:101340000026002000230024002791F803C00CF0A1
:101350000F0591F803C00CF0100CBCF1000F03D086
:1013600091F802C04CEA050591F800C0BCF1000FED
:1013700031D0146800202BE04FF0010C0CFA00F380
:10138000B1F800C00CEA03069E4220D183004FF062
:101390000F0C0CFA03F7BC4305FA03FC4CEA0404F7
:1013A00091F803C0BCF1280F06D14FF0010C0CFAE4
:1013B00000FCC2F814C00AE091F803C0BCF1480F69
:1013C00005D14FF0010C0CFA00FCC2F810C0401C13
:1013D0000828D1D31460B1F800C0BCF1FF0F34DD90
:1013E000546800202EE000F1080C4FF0010808FAC4
:1013F0000CF3B1F800C00CEA03069E4221D1830031
:101400004FF00F0C0CFA03F7BC4305FA03FC4CEA4F
:10141000040491F803C0BCF1280F05D100F1080CB9
:1014200008FA0CF8C2F8148091F803C0BCF1480F18
:1014300007D100F1080C4FF0010808FA0CF8C2F8C7
:101440001080401C0828CED35460BDE8F081416173
:1014500070470161704700BFFEE7000008B5012139
:10146000042000F0E1F80121082000F0DDF81E2042
:10147000ADF8000010208DF8030003208DF8020065
:1014800069461148FFF758FF4FF40070ADF80000AF
:1014900004208DF8030003208DF8020069460B48F4
:1014A000FFF74AFF02210848FFF7D1FF0421064851
:1014B000FFF7CDFF08210448FFF7C9FF10210248BC
:1014C000FFF7C7FF08BD000000080140000C014005
:1014D0000EB50121084600F0A7F809210120FFF709
:1014E0000BFF4FF40070FFF7A3FE4FF40070019064
:1014F00000208DF808000C208DF8090001208DF8DF
:101500000A0001A8FFF7AEFE17208DF800000020AA
:101510008DF801008DF8020001208DF80300684667
:1015200000F038F80EBD1FB50121084600F06CF838
:101530000121022000F068F81820ADF804004720CF
:10154000ADF808000020ADF8060001A94FF080407A
:1015500000F08EF90121880700F05EF901221146A2
:10156000900700F07CF91C208DF8000001208DF818
:10157000010000208DF8020001208DF8030068466C
:1015800000F008F80121880700F04CF91FBD00BFEA
:10159000FEE7704770B5002100230F22C47804B322
:1015A000154C246804F4E064C4F5E064210AC1F138
:1015B0000403CA40447804FA03F1847814402143B8
:1015C00009010E4C0678A155047804F01F0501248A
:1015D000AC4005786D11AD0005F1E025C5F800417E
:1015E00009E0047804F01F050124AC40044D06789E
:1015F000761145F8264070BD0CED00E000E400E0F7
:1016000080E100E07047000029B1064AD269024338
:10161000044BDA6104E0034AD2698243014BDA6188
:10162000704700000010024029B1064A9269024347
:10163000044B9A6104E0034A92698243014B9A6128
:101640007047000000100240704700000820024967
:101650000860091F086070471408014010B500F0C9
:1016600001F810BD0CB500200190009033480068CF
:1016700040F480303149086000BF3048006800F411
:10168000003000900198401C0190009818B9019812
:10169000B0F5A06FF1D12948006800F4003010B116
:1016A0000120009001E0002000900098012843D123
:1016B0002348006840F0100021490860084600688F
:1016C00020F0030008600846006840F0020008604F
:1016D0001A4840681949486008464068486008460A
:1016E000406840F4806048600846406820F47C1000
:1016F00048600846406840F4E810486008460068C2
:1017000040F08070086000BF0C48006800F0007076
:101710000028F9D00948406820F0030007494860D4
:101720000846406840F00200486000BF0348406837
:1017300000F00C000828F9D10CBD00000010024098
:101740000020024001460A4800684843094A1268DE
:1017500090420BD3064800684843064A1268044B7F
:101760001B681A44904201D8012070470020FCE712
:101770000C0000200800002010B51348006840F05D
:1017800001001149086008464068104908400E49A8
:101790004860084600680E4908400B490860084642
:1017A000006820F4802008600846406820F4FE00AD
:1017B00048604FF41F008860FFF750FF4FF0006053
:1017C0000449086010BD0000001002400000FFF84E
:1017D000FFFFF6FE08ED00E010B50121880700F0DC
:1017E0002DF890B109480068401C08490860084875
:1017F0000068401E0649086006480068401E05490A
:1018000008600121880700F00AF810BD08000020D8
:101810000400002000000020CA4302827047CA432F
:101820000282704721B1028842F00102028004E086
:1018300002884FF6FE731A400280704730B50246A8
:10184000002000230024158A05EA0103958905EA92
:10185000010413B10CB1012000E0002030BD1AB129
:1018600083890B43838102E083898B4383817047A3
:10187000002202881D4B98420ED01D4B98420BD07F
:10188000B0F1804F08D01B4B984205D01A4B9842BC
:1018900002D01A4B984204D14FF68F731A404B88EE
:1018A0001A43174B984207D0164B984204D04FF674
:1018B000FF431A40CB881A4302808B8883850B88AC
:1018C00003850A4B98420BD0094B984208D00E4B27
:1018D000984205D00D4B984202D00D4B984201D151
:1018E0000B7A03860123838270470000002C01409D
:1018F000003401400004004000080040000C00409B
:10190000001000400014004000400140004401402D
:101910000048014000BFFEE702E008C8121F08C1EE
:10192000002AFAD170477047002001E001C1121F60
:10193000002AFBD1704700001CB5FFF78FFDFFF7B1
:10194000F2FDFFF7C5FDA2E0FF2003460246014677
:101950000090FFF76BFB4E48FEF788FD0A2512E06A
:10196000FEF774FD44F62060FEF780FDFF2003467D
:10197000024601460090FFF759FB44F62060FEF74F
:1019800075FD681EC5B2002DEAD100BF2DE0414CA7
:1019900011E00020FFF7D6FE30B1FF2003460246DB
:1019A00001460090FFF742FBB420FFF7CBFE08B1E1
:1019B000FEF74CFD641E002CEBD1364C11E00020EC
:1019C000FFF7C0FE08B1FEF741FDB420FFF7BAFEF5
:1019D00030B1FF200346024601460090FFF726FB88
:1019E000641E002CEBD1681CC5B20A2DCFDB00258C
:1019F00018E04FF4B97610E040F2DC540AE0641EBF
:101A000025A026A1CDE90010B0B226A327A222A1CD
:101A1000FFF74AFB002CF2D1761EB6F5B97FEBD961
:101A2000681CC5B2052DE4DB002518E04FF4B9763B
:101A300010E040F6C4140AE0641E17A01DA1CDE911
:101A40000010B0B21DA320A213A1FFF72DFB002CA4
:101A5000F2D1761EB6F5B97FEBD9681CC5B2052D5B
:101A6000E4DB002511E04FF4B97609E040F6BE242E
:101A700003E0641EB0B2FEF703FD002CF9D1761E20
:101A8000B6F5B97FF2D9681CC5B2052DEBDB5BE773
:101A9000F0490200400D03000000000020205549DD
:101AA000542000002020544F2020000057454C4374
:101AB0004F4D45002020204345454300454E4749B2
:101AC0004E454552494E47002020434F4D505554F6
:101AD00045520000F41A0008000000201000000029
:101AE00018190008041B0008100000200004000062
:101AF000281900080000000000000000000000009D
:041B00000A000000D7
:0400000508000145A9
:00000001FF
