:020000040800F2
:10000000180400204501000807090008CB07000874
:10001000030900088D010008890C00080000000099
:10002000000000000000000000000000BD09000802
:10003000AD01000800000000790900085D0100081A
:100040005F0100085F0100085F0100085F01000810
:100050005F0100085F0100085F0100085F01000800
:100060005F0100085F0100085F0100085F010008F0
:100070005F0100085F0100085F0100085F010008E0
:100080005F0100085F0100085F0100085F010008D0
:100090005F0100085F0100085F01000855050008C6
:1000A0005F0100085F0100085F0100085F010008B0
:1000B000550B00085F0100085F0100085F010008A0
:1000C0005F0100085F0100085F0100085F01000890
:1000D0005F0100085F0100085F0100085F01000880
:1000E0005F0100085F0100085F0100085F01000870
:1000F0005F0100085F0100085F0100085F01000860
:100100005F0100085F0100085F0100085F0100084F
:100110005F0100085F0100085F0100085F0100083F
:100120005F0100085F0100085F0100085F0100082F
:10013000DFF80CD000F018F800480047AB0C0008BE
:10014000180400200648804706480047FEE7FEE7FF
:10015000FEE7FEE7FEE7FEE7FEE7FEE7FEE7FEE777
:10016000F50A000831010008064C074D06E0E0687A
:1001700040F0010394E8070098471034AC42F6D3EE
:10018000FFF7DAFFC40C0008E40C000800BFFEE72C
:1001900000B510200449086000F012FC102002494C
:1001A000091F086000BD00001408014070470000EE
:1001B0000549096800EB5101044A116000BF034979
:1001C00009680029FBD170470800002000000020CA
:1001D0002DE9F04107460C4615461E46DDF818800D
:1001E000384600F099F9204600F096F9284600F0CC
:1001F00093F9304600F090F9404600F08DF9082060
:1002000002490860091F0860BDE8F0811408014038
:1002100018B50446204600F04FFC00287ED0002090
:10022000FC23024601460090FFF7D2FFB948006860
:10023000FFF7BEFF0020FE23032201460090FFF7D8
:10024000C7FFB4480068FFF7B3FF0020FF230F2269
:1002500001460090FFF7BCFFAE480068FFF7A8FF1B
:1002600000200F235E2201460090FFF7B1FFA9484E
:100270000068FFF79DFF80200323B8223221009001
:100280000020FFF7A5FFA3480068FFF791FF80203B
:1002900003236022F52100900020FFF799FF9D487D
:1002A0000068FFF785FF80204123C022EA210090EB
:1002B0000120FFF78DFF97480068FFF779FF802046
:1002C00060238C22952100900320FFF781FF914845
:1002D0000068FFF76DFF802031230C222B21009056
:1002E0000320FFF775FF8B480068FFF761FF802050
:1002F000B1230022562100900720FFF769FF8548AF
:100300000068FFF755FF8020992366225421009052
:100310000620FFF75DFF7F48006800E0F8E0FFF788
:1003200047FF0020D923D622A82100900620FFF7FE
:100330004FFF78480068FFF73BFF00206D23B42291
:10034000592100900120FFF743FF72480068FFF732
:100350002FFF00203D237022512100900120FFF744
:1003600037FF6C480068FFF723FF00200D23F822B9
:10037000A02100900220FFF72BFF66480068FFF7DE
:1003800017FF00203D237022A12100900220FFF7DB
:100390001FFF60480068FFF70BFF00206D23B422A9
:1003A000412100900120FFF713FF5A480068FFF732
:1003B000FFFE0020DA23D622402100900120FFF723
:1003C00007FF54480068FFF7F3FE002098236622D9
:1003D00080210090FFF7FCFE4E480068FFF7E8FE22
:1003E0000020B023024680210090FFF7F1FE49482B
:1003F0000068FFF7DDFE002030230C2280210090F2
:10040000FFF7E6FE43480068FFF7D2FE00206023B6
:100410000C22C0210090FFF7DBFE3E480068FFF78A
:10042000C7FE002040230246A02100900120FFF7D4
:10043000CFFE38480068FFF7BBFE00208023012272
:10044000102100901046FFF7C3FE32480068FFF706
:10045000AFFE002003460222082100900120FFF792
:10046000B7FE2C480068FFF7A3FE002003461C22BD
:10047000872100900120FFF7ABFE26480068FFF7B8
:1004800097FE00200346E022C02100900320FFF7E2
:100490009FFE20480068FFF78BFE002003460246BF
:1004A000C02100900320FFF793FE1A480068FFF771
:1004B0007FFE002003460246802100900120FFF7C6
:1004C00087FE14480068FFF773FE002003463022C1
:1004D00080210090FFF77CFE0E480068FFF768FE61
:1004E00000200346C02261210090FFF771FE0948F9
:1004F0000068FFF75DFE0020034602463E210090A3
:10050000FFF766FE03480068FFF752FEFFF740FE64
:1005100018BD00000800002010B502468021002010
:1005200013E002EA01031BB10223094C236003E03C
:100530000223074C241D23600423054C241D236043
:10054000241F23604910431CD8B20828E9DB10BDE2
:100550001008014010B54FF4007000F029F8C8B140
:100560000D480078401C0C490870084600780F2898
:1005700009DB0A480068B421B0FBF1F008490860C3
:100580000020054908700020044908604FF40070FD
:1005900000F008F810BD00000C000020040000204E
:1005A0000800002001490860704700001404014061
:1005B000014600200022074B1B6803EA0102054B9D
:1005C00014331B680B4013B10AB1012000E0002076
:1005D0007047000000040140002123498279002A6D
:1005E0003AD00A46126803689A430B461A600A1DFD
:1005F000126803689A430B1D1A60027911440A6855
:1006000003681A430A60184A0832126803689A435A
:10061000154B08331A601A1D126803689A43124B6F
:100620000C331A604279102A0ED11A1F126803681F
:100630001A430D4B08331A601A1D126803681A43D7
:10064000094B0C331A600DE00749427911440A68DE
:1006500003681A430A6005E0027911440A680368D6
:100660009A430A60704700000004014030B5002240
:100670008B071C0F0F2303FA04F20B4B8C1053F85B
:1006800024309343084C8D1044F8253023468C10B9
:1006900053F824308C07240F00FA04F42343024C4F
:1006A0008D1044F8253030BD080001402DE9F0419F
:1006B000024600250026002000230024002791F890
:1006C00003C00CF00F0591F803C00CF0100CBCF146
:1006D000000F03D091F802C04CEA050591F800C064
:1006E000BCF1000F31D0146800202BE04FF0010C5A
:1006F0000CFA00F3B1F800C00CEA03069E4220D1C8
:1007000083004FF00F0C0CFA03F7BC4305FA03FC0F
:100710004CEA040491F803C0BCF1280F06D14FF055
:10072000010C0CFA00FCC2F814C00AE091F803C0F6
:10073000BCF1480F05D14FF0010C0CFA00FCC2F8D7
:1007400010C0401C0828D1D31460B1F800C0BCF11F
:10075000FF0F34DD546800202EE000F1080C4FF04C
:10076000010808FA0CF3B1F800C00CEA03069E4237
:1007700021D183004FF00F0C0CFA03F7BC4305FAAC
:1007800003FC4CEA040491F803C0BCF1280F05D126
:1007900000F1080C08FA0CF8C2F8148091F803C0B4
:1007A000BCF1480F07D100F1080C4FF0010808FA1E
:1007B0000CF8C2F81080401C0828CED35460BDE865
:1007C000F081416170470161704700BFFEE70000A2
:1007D00008B50121042000F0E1F80121082000F013
:1007E000DDF81E20ADF8000010208DF80300032076
:1007F0008DF8020069461148FFF758FF4FF400706A
:10080000ADF8000004208DF8030003208DF80200ED
:1008100069460B48FFF74AFF02210848FFF7D1FF5E
:1008200004210648FFF7CDFF08210448FFF7C9FF60
:1008300010210248FFF7C7FF08BD00000008014073
:10084000000C01400EB50121084600F0A7F809216F
:100850000120FFF70BFF4FF40070FFF7A3FE4FF4EA
:100860000070019000208DF808000C208DF8090020
:1008700001208DF80A0001A8FFF7AEFE17208DF8C1
:10088000000000208DF801008DF8020001208DF895
:100890000300684600F038F80EBD1FB50121084678
:1008A00000F06CF80121022000F068F80920ADF892
:1008B00004004720ADF808000020ADF8060001A9AB
:1008C0004FF0804000F08EF90121880700F05EF9BA
:1008D00001221146900700F07CF91C208DF80000E1
:1008E00001208DF8010000208DF8020001208DF814
:1008F0000300684600F008F80121880700F04CF971
:100900001FBD00BFFEE7704770B5002100230F2216
:10091000C47804B3154C246804F4E064C4F5E064BE
:10092000210AC1F10403CA40447804FA03F184782F
:100930001440214309010E4C0678A155047804F0B7
:100940001F050124AC4005786D11AD0005F1E025CF
:10095000C5F8004109E0047804F01F050124AC400B
:10096000044D0678761145F8264070BD0CED00E088
:1009700000E400E080E100E07047000029B1064A91
:10098000D2690243044BDA6104E0034AD26982432C
:10099000014BDA61704700000010024029B1064A9D
:1009A00092690243044B9A6104E0034A92698243CC
:1009B000014B9A6170470000001002407047000030
:1009C000082002490860091F0860704714080140A8
:1009D00010B500F001F810BD0CB50020019000909A
:1009E0003348006840F480303149086000BF304827
:1009F000006800F4003000900198401C01900098BD
:100A000018B90198B0F5A06FF1D12948006800F439
:100A1000003010B10120009001E00020009000980B
:100A2000012843D12348006840F0100021490860A4
:100A30000846006820F0030008600846006840F09F
:100A4000020008601A484068194948600846406832
:100A500048600846406840F4806048600846406846
:100A600020F47C1048600846406840F4E810486074
:100A70000846006840F08070086000BF0C480068BD
:100A800000F000700028F9D00948406820F0030009
:100A9000074948600846406840F00200486000BFCF
:100AA0000348406800F00C000828F9D10CBD000094
:100AB00000100240002002400146B42048434FF499
:100AC000B47290FBF2F0094A1288504381B2084890
:100AD0000068884208D806480068044A1268104432
:100AE000884201D3012070470020FCE70800002065
:100AF0000400002010B51348006840F001001149BF
:100B0000086008464068104908400E494860084699
:100B100000680E4908400B4908600846006820F448
:100B2000802008600846406820F4FE0048604FF4CA
:100B30001F008860FFF74CFF4FF000600449086019
:100B400010BD0000001002400000FFF8FFFFF6FE9D
:100B500008ED00E010B50121880700F029F880B108
:100B600008480068401C074908600748006820B131
:100B700005480068401E044908600121880700F00C
:100B800008F810BD0400002000000020CA430282C3
:100B90007047CA430282704721B1028842F00102C5
:100BA000028004E002884FF6FE731A40028070470C
:100BB00030B50246002000230024158A05EA01030F
:100BC000958905EA010413B10CB1012000E0002071
:100BD00030BD1AB183890B43838102E083898B4343
:100BE00083817047002202881D4B98420ED01D4B16
:100BF00098420BD0B0F1804F08D01B4B984205D0E3
:100C00001A4B984202D01A4B984204D14FF68F7378
:100C10001A404B881A43174B984207D0164B9842FC
:100C200004D04FF6FF431A40CB881A4302808B88CA
:100C300083850B8803850A4B98420BD0094B984259
:100C400008D00E4B984205D00D4B984202D00D4B68
:100C5000984201D10B7A03860123838270470000FA
:100C6000002C014000340140000400400008004016
:100C7000000C004000100040001400400040014003
:100C8000004401400048014000BFFEE702E008C800
:100C9000121F08C1002AFAD170477047002001E0F6
:100CA00001C1121F002AFBD17047FFF791FDFFF72A
:100CB000F4FDFFF7C7FD03E04FF49670FFF7A8FAC5
:100CC000FAE70000E40C0008000000201400000017
:100CD0008C0C0008F80C000814000020040400002C
:100CE0009C0C000800000000000000000000000054
:080CF0000000000000000000FC
:0400000508000145A9
:00000001FF
