:020000040800F2
:1000000018040020450100086F1900083B1800087B
:100010006B1900089D010008F11C00080000000099
:10002000000000000000000000000000251A000889
:100030007505000800000000E11900085D010008D6
:100040005F0100085F0100085F0100085F01000810
:100050005F0100085F0100085F0100085F01000800
:100060005F0100085F0100085F0100085F010008F0
:100070005F0100085F0100085F0100085F010008E0
:100080005F0100085F0100085F0100085F010008D0
:100090005F0100085F0100085F010008C515000846
:1000A0005F0100085F0100085F0100085F010008B0
:1000B000BD1B00085F0100085F0100085F01000828
:1000C0005F0100085F0100085F0100085F01000890
:1000D0005F0100085F0100085F0100085F01000880
:1000E0005F0100085F0100085F0100085F01000870
:1000F0005F0100085F0100085F0100085F01000860
:100100005F0100085F0100085F0100085F0100084F
:100110005F0100085F0100085F0100085F0100083F
:100120005F0100085F0100085F0100085F0100082F
:10013000DFF80CD000F020F800480047151D00083B
:10014000180400200648804706480047FEE7FEE7FF
:10015000FEE7FEE7FEE7FEE7FEE7FEE7FEE7FEE777
:100160005D1B000831010008421C10F8011B00292A
:10017000FBD1801A70470000064C074D06E0E0688E
:1001800040F0010394E8070098471034AC42F6D3DE
:10019000FFF7D2FFFC2000081C21000800BFFEE78B
:1001A0000CB50246A2F120003B2873D2DFE800F034
:1001B000D5F27272727272727272727272F17272BD
:1001C000DBE2F3FAEEEDECEBEAE972727272727254
:1001D000721E252C333A41484F565D646B737A8109
:1001E000888F969DA4ABB2B9C0C7CE008EA309CBB1
:1001F000CDE900031DF801000CBD8DA309CBCDE9AD
:1002000000031DF80100F7E78BA309CBCDE900033C
:100210001DF80100F0E78AA309CBCDE900031DF822
:100220000100E9E788A309CBCDE900031DF801002F
:10023000E2E787A309CBCDE900031DF80100DBE766
:1002400085A309CBCDE900031DF80100D4E784A301
:1002500009CBCDE900031DF80100CDE782A309CB4E
:10026000CDE900031DF80100C6E781A309CBCDE964
:1002700000031DF80100BFE77FA309CBCDE9000310
:100280001DF80100B8E77EA309CBCDE900031DF8F6
:100290000100B1E7C5E07CA309CBCDE900031DF85F
:1002A0000100A9E77AA309CBCDE900031DF80100FD
:1002B000A2E779A309CBCDE900031DF801009BE774
:1002C00077A309CBCDE900031DF8010094E776A3DD
:1002D00009CBCDE900031DF801008DE774A309CB1C
:1002E000CDE900031DF8010086E773A309CBCDE932
:1002F00000031DF801007FE771A309CBCDE90003DE
:100300001DF8010078E770A309CBCDE900031DF8C3
:10031000010071E76EA309CBCDE900031DF80100D0
:100320006AE76DA309CBCDE900031DF8010063E77F
:100330006BA309CBCDE900031DF801005CE76AA3BC
:1003400009CBCDE900031DF8010055E768A309CBEF
:10035000CDE900031DF801004EE700200090019058
:100360001DF8010048E764A309CBCDE900031DF89F
:10037000010041E762A309CBCDE900031DF80100AC
:100380003AE739E031E029E021E019E011E009E045
:1003900001E038E03EE05CA309CBCDE900031DF8A5
:1003A000010029E75AA309CBCDE900031DF801009C
:1003B00022E759A309CBCDE900031DF801001BE793
:1003C00057A309CBCDE900031DF8010014E756A39C
:1003D00009CBCDE900031DF801000DE754A309CBBB
:1003E000CDE900031DF8010006E753A309CBCDE9D1
:1003F00000031DF80100FFE651A309CBCDE900037E
:100400001DF80100F8E650A309CBCDE900031DF863
:100410000100F1E64EA309CBCDE900031DF8010070
:10042000EAE60020E8E600007E9090907E00000062
:10043000FE9292926C0000007C8282824400000056
:10044000FE8282827C000000FE9292928200000076
:10045000FE909090800000007C8292929C000000B0
:10046000FE101010FE0000008282FE82820000005A
:100470000C0202FC00000000FE1028448200000074
:10048000FE02020202000000FE403040FE000000BA
:10049000FE201008FE0000007C8282827C000000AA
:1004A000FE909090600000007C828A867E000000B2
:1004B000FE90989462000000729292928C0000006C
:1004C0008080FE8080000000FC020202FC00000030
:1004D000F8040204F8000000FE041804FE00000006
:1004E000C6281028C6000000C0201E20C000000042
:1004F000868A92A2C20000007CA2928A7C00000040
:100500000044FE020000000042868A926200000061
:10051000848292B2CC000000182848FF0800000036
:10052000E4A2A2A29C0000007C9292924C000000E7
:10053000808E90A0C00000006C9292926C0000002F
:10054000649292927C0000000810101010000000CD
:100550000000FA000000000000B510200449086007
:1005600001F062FA10200249091F086000BD000076
:1005700014080140704700000549096800EB51016B
:10058000044A116000BF034909680029FBD1704784
:10059000080000200000002018B50446204601F0A5
:1005A000BFFA00287ED00020034602460146009094
:1005B00000F094FDFE480068FFF7DEFF00200346D0
:1005C00002460146009000F089FDF9480068FFF7F7
:1005D000D3FF00200346024660210090012000F076
:1005E0007DFDF3480068FFF7C7FF00200346024681
:1005F000E0210090012000F071FDED480068FFF758
:10060000BBFF002003460246E0210090012000F0DD
:1006100065FDE7480068FFF7AFFF0020034602468C
:10062000C0210090012000F059FDE1480068FFF76B
:10063000A3FF002003460246C0210090012000F0E5
:100640004DFDDB480068FFF797FF00200346024698
:10065000C0210090012000F041FDD5480068FFF75F
:100660008BFF002003460246C0210090012000F0CD
:1006700035FDCF480068FFF77FFF002003460246A4
:10068000E021009000F02AFDC9480068FFF774FFE0
:10069000002003460246E021009000F01FFDC44800
:1006A000006800E0FEE3FFF767FF00200346024614
:1006B000F0210090012000F011FDBD480068FFF717
:1006C0005BFF002003460246F8210090012000F065
:1006D00005FDB7480068FFF74FFF002003460246BC
:1006E000FF210090012000F0F9FCB1480068FFF7FD
:1006F00043FF002003468022FF210090012000F0EC
:10070000EDFCAB480068FFF737FF00200346C0222E
:10071000FF21009000F0E2FCA5480068FFF72CFFE5
:1007200000200346C022FF21009000F0D7FCA04823
:100730000068FFF721FF00200346F022FF21009010
:1007400000F0CCFC9A480068FFF716FF0020034633
:10075000F822FF21009000F0C1FC95480068FFF7E7
:100760000BFF00200346FC22FF21009000F0B6FCA6
:100770008F480068FFF700FF00200346F422FF21A6
:10078000009000F0ABFC8A480068FFF7F5FE0020FF
:100790000346E422CF21009000F0A0FC84480068CA
:1007A000FFF7EAFE00200346E6228F21009000F0CA
:1007B00095FC7F480068FFF7DFFE00200346E22239
:1007C0000F21009000F08AFC79480068FFF7D4FE02
:1007D00000203023C1220721009000F07FFC7448E4
:1007E0000068FFF7C9FE0020F823C122072100900E
:1007F00000F074FC6E480068FFF7BEFE3E20FC234C
:1008000080223F210090002000F068FC68480068CA
:10081000FFF7B2FEFC20FF2300223F21009010468C
:1008200000F05CFC62480068FFF7A6FEF020FF23A2
:1008300000221E210090104600F050FC5C48006829
:10084000FFF79AFEE0207F2300221A21009020204B
:1008500000F044FC56480068FFF78EFEC0207F235E
:10086000002208210090302000F038FC5048006839
:10087000FFF782FE80207F23002208210090702055
:1008800000F02CFC4A480068FFF776FE80201F230A
:10089000002204210090792000F020FC44480068E8
:1008A000FFF76AFE00201E23024680210090FF20F1
:1008B00000F014FC3E480068FFF75EFE00201E2397
:1008C0000246C0210090FF2000F008FC3848006874
:1008D000FFF752FE00201C230246C02100907F201B
:1008E00000F0FCFB32480068FFF746FE002003469C
:1008F0000246014600907F2000F0F0FB2C48006883
:10090000FFF73AFE002003460246014600903E20D3
:1009100000F0E4FB26480068FFF72EFE00200346A7
:100920000246014600901C2000F0D8FB20480068D9
:10093000FFF722FE002003460246014600900820F1
:1009400000F0CCFB1A480068FFF716FE00200346B3
:1009500002460146009000F0C1FB15480068FFF711
:100960000BFE0020034602460146009000F0B6FB55
:100970000F480068FFF700FE0020034618220146DA
:10098000009000F0ABFB0A480068FFF7F5FD00207F
:1009900003463C220146009000F0A0FB044800689A
:1009A000FFF7EAFD00200346FE220321009001E04C
:1009B0000800002000F092FBFE480068FFF7DCFD15
:1009C00000200346FE226221009000F087FBF948D8
:1009D0000068FFF7D1FD00200346FE223E21009073
:1009E00000F07CFBF3480068FFF7C6FD00200346DB
:1009F000FE220C21009000F071FBEE480068FFF72A
:100A0000BBFD00200346FE229D21009000F066FB06
:100A1000E8480068FFF7B0FD00200346FF22982158
:100A20000090012000F05AFBE2480068FFF7A4FDA7
:100A3000002090237F22D8210090012000F04EFB5F
:100A4000DC480068FFF798FD0020FE237F229821F4
:100A50000090032000F042FBD6480068FFF78CFDB1
:100A60000020FF237F221C210090022000F036FB93
:100A7000D0480068FFF780FD0020FE237F22BC21C4
:100A80000090062000F02AFBCA480068FFF774FDBA
:100A90000020FE237F22FC210090072000F01EFB97
:100AA000C4480068FFF768FD0020FC237F22FA217C
:100AB0000090052000F012FBBE480068FFF75CFDC7
:100AC0000020F0235F22FA210090022000F006FBB4
:100AD000B8480068FFF750FD0020F023CF22FB212B
:100AE0000090022000F0FAFAB2480068FFF744FDD7
:100AF00000200346E722FF21009000F0EFFAAD4806
:100B00000068FFF739FD00200C23FA22FF21009036
:100B1000012000F0E3FAA7480068FFF72DFD002050
:100B20001823BA22F9210090032000F0D7FAA14837
:100B30000068FFF721FD00200346D022F821009035
:100B4000032000F0CBFA9B480068FFF715FD00205A
:100B50000346D022FF210090032000F0BFFA954801
:100B60000068FFF709FD00200346C022FF21009026
:100B7000032000F0B3FA8F480068FFF7FDFC002067
:100B80000346C022FF210090032000F0A7FA894805
:100B90000068FFF7F1FC00200346C022FF2100900F
:100BA000032000F09BFA83480068FFF7E5FC002073
:100BB0000346E022FF2100900D2000F08FFA7D48CF
:100BC0000068FFF7D9FC00200346F022FF210090C7
:100BD000072000F083FA77480068FFF7CDFC00207B
:100BE0000346FC22FF210090052000F077FA7148AF
:100BF0000068FFF7C1FC00200346F022FF210090AF
:100C0000072000F06BFA6B480068FFF7B5FC002086
:100C10000346E022FF2100900F2000F05FFA6548B4
:100C20000068FFF7A9FC00200346E022FF210090A6
:100C30000F2000F053FA5F480068FFF79DFC00208A
:100C40000346E022FF2100901F2000F047FA594898
:100C50000068FFF791FC00200346F022FF2100907E
:100C60001F2000F03BFA53480068FFF785FC002086
:100C70000346F822FF2100901F2000F02FFA4D4874
:100C80000068FFF779FC00200346FC22FF2100905A
:100C90003F2000F023FA47480068FFF76DFC002072
:100CA0000346FE22FF2100903F2000F017FA414842
:100CB0000068FFF761FC00200346E422FF2100905A
:100CC0001F2000F00BFA3B480068FFF755FC00209E
:100CD0000346E022FF2100900F2000F0FFF9354885
:100CE0000068FFF749FC00200346E022FF21009046
:100CF0000F2000F0F3F92F480068FFF73DFC0020BB
:100D00000346C022FE2100900F2000F0E7F9294899
:100D10000068FFF731FC002003460246FE210090E8
:100D20000F2000F0DBF923480068FFF725FCC02006
:100D300003230022FF2100900F2000F0CFF91D486F
:100D40000068FFF719FC802003230022FC2100909B
:100D5000072000F0C3F917480068FFF70DFC80205A
:100D600007230022FC210090184600F0B7F9114833
:100D70000068FFF701FC802007230022D8210090A3
:100D8000184600F0ABF90B480068FFF7F5FB0020B0
:100D90000F23024680210090072000F09FF90548AC
:100DA0000068FFF7E9FB00200F2302468021009036
:100DB000184601E00800002000F090F9464800685D
:100DC000FFF7DAFB80200723002201460090184637
:100DD00000F084F940480068FFF7CEFBC0200723ED
:100DE000002280210090184600F078F93A48006807
:100DF000FFF7C2FBC0200F230022802100900720B4
:100E000000F06CF934480068FFF7B6FBD0200723E8
:100E1000002260210090184600F060F92E4800681A
:100E2000FFF7AAFBC02001230022402100900320ED
:100E300000F054F928480068FFF79EFB00200346A5
:100E4000024680210090032000F048F92248006803
:100E5000FFF792FB0020034602468021009003200A
:100E600000F03CF91C480068FFF786FB00200346B1
:100E7000024680210090032000F030F916480068F7
:100E8000FFF77AFB0020034602460146009002204D
:100E900000F024F910480068FFF76EFB00200346BD
:100EA000024600E014E001460090022000F016F92E
:100EB00009480068FFF760FB002003460246014630
:100EC0000090022000F00AF903480068FFF754FB85
:100ED000FFF742FB18BD00000800002018B50446CB
:100EE000204600F01DFE00287ED000200346E022B0
:100EF0000121009000F0F2F877480068FFF73CFB12
:100F000000200346F0220321009000F0E7F8724829
:100F10000068FFF731FB00200346F822072100900C
:100F200000F0DCF86C480068FFF726FB0020034661
:100F3000FC220F21009000F0D1F867480068FFF70D
:100F40001BFB00200346FE221F21009000F0C6F884
:100F500061480068FFF710FB00200346FF223F2195
:100F6000009000F0BBF85C480068FFF705FB00202C
:100F70008023FF223F21009000F0B0F8564800681F
:100F8000FFF7FAFA0020C023FF223F21009000F073
:100F9000A5F851480068FFF7EFFA0020E023FF2290
:100FA0001F21009000F09AF84B480068FFF7E4FA20
:100FB0000020F023FF220F21009000F08FF8464818
:100FC0000068FFF7D9FA0020F823FF220F210090D4
:100FD00000F084F840480068FFF7CEFA0020FC23B8
:100FE000FF220721009000E073E000F077F83A4814
:100FF0000068FFF7C1FA0020F823FF220F210090BC
:1010000000F06CF834480068FFF7B6FA0020F023CF
:10101000FF220F21009000F061F82F480068FFF7D1
:10102000ABFA0020E023FF221F21009000F056F8C9
:1010300029480068FFF7A0FA0020C023FF223F21C3
:10104000009000F04BF824480068FFF795FA002064
:101050008023FF223F21009000F040F81E480068E6
:10106000FFF78AFA00200346FF223F21009000F09C
:1010700035F819480068FFF77FFA00200346FE2282
:101080001F21009000F02AF813480068FFF774FA57
:1010900000200346F8220721009000F01FF80E48B8
:1010A0000068FFF769FA00200346F0220321009050
:1010B00000F014F808480068FFF75EFA00200346C5
:1010C000E0220121009000F009F803480068FFF7D2
:1010D00053FAFFF741FA18BD080000202DE9F0414E
:1010E00007460C4615461E46DDF81880384600F0C7
:1010F00099F9204600F096F9284600F093F9304619
:1011000000F090F9404600F08DF90820024908608F
:10111000091F0860BDE8F0811408014018B50446B5
:10112000204600F0FDFC00287ED00020FC23024673
:1011300001460090FFF7D2FFB9480068FFF71CFA9C
:101140000020FE23032201460090FFF7C7FFB448AA
:101150000068FFF711FA0020FF230F2201460090DC
:10116000FFF7BCFFAE480068FFF706FA00200F2328
:101170005E2201460090FFF7B1FFA9480068FFF723
:10118000FBF980200323B822322100900020FFF7D2
:10119000A5FFA3480068FFF7EFF980200323602232
:1011A000F52100900020FFF799FF9D480068FFF7A8
:1011B000E3F980204123C022EA2100900120FFF7BB
:1011C0008DFF97480068FFF7D7F9802060238C22B5
:1011D000952100900320FFF781FF91480068FFF7F9
:1011E000CBF9802031230C222B2100900320FFF724
:1011F00075FF8B480068FFF7BFF98020B1230022FC
:10120000562100900720FFF769FF85480068FFF727
:10121000B3F9802099236622542100900620FFF71D
:101220005DFF7F48006800E0F8E0FFF7A5F90020C7
:10123000D923D622A82100900620FFF74FFF784837
:101240000068FFF799F900206D23B422592100901E
:101250000120FFF743FF72480068FFF78DF9002077
:101260003D237022512100900120FFF737FF6C4889
:101270000068FFF781F900200D23F822A0210090DB
:101280000220FFF72BFF66480068FFF775F9002082
:101290003D237022A12100900220FFF71FFF60482C
:1012A0000068FFF769F900206D23B4224121009006
:1012B0000120FFF713FF5A480068FFF75DF900208F
:1012C000DA23D622402100900120FFF707FF54487F
:1012D0000068FFF751F900209823662280210090D2
:1012E000FFF7FCFE4E480068FFF746F90020B023E8
:1012F000024680210090FFF7F1FE49480068FFF7A1
:101300003BF9002030230C2280210090FFF7E6FEFD
:1013100043480068FFF730F9002060230C22C02109
:101320000090FFF7DBFE3E480068FFF725F900203C
:1013300040230246A02100900120FFF7CFFE38484D
:101340000068FFF719F90020802301221021009086
:101350001046FFF7C3FE32480068FFF70DF9002082
:1013600003460222082100900120FFF7B7FE2C4817
:101370000068FFF701F9002003461C228721009036
:101380000120FFF7ABFE26480068FFF7F5F80020C4
:101390000346E022C02100900320FFF79FFE204873
:1013A0000068FFF7E9F8002003460246C0210090DC
:1013B0000320FFF793FE1A480068FFF7DDF80020CE
:1013C00003460246802100900120FFF787FE144863
:1013D0000068FFF7D1F800200346302280210090FA
:1013E000FFF77CFE0E480068FFF7C6F800200346B2
:1013F000C02261210090FFF771FE09480068FFF7E5
:10140000BBF80020034602463E210090FFF766FE2F
:1014100003480068FFF7B0F8FFF79EF818BD00001A
:101420000800002010B502468021002013E002EAE7
:1014300001031BB10223094C236003E00223074C84
:10144000241D23600423054C241D2360241F2360D6
:101450004910431CD8B20828E9DB10BD1008014030
:101460002DE9FF4F85B00D4616461F46DDE9129A5D
:10147000059800F055FB002872D02846FEF774FE50
:10148000C0B28DF804003046FEF76EFEC0B28DF893
:1014900005003846FEF768FEC0B28DF806004846E3
:1014A000FEF762FEC0B28DF807005046FEF75CFE04
:1014B000C0B28DF808009DF804B0012408E001A82E
:1014C000005D584502DD01A810F804B0601CC4B2EC
:1014D000052CF4DB00246BE04FF000085DE09DF884
:1014E0000400A04203DA00208DF80C0005E0285D1E
:1014F0004146FEF755FE8DF80C009DF80500A04210
:1015000003DA00208DF80D0005E0305D4146FEF75E
:1015100047FE8DF80D009DF80600A04203DA00207A
:101520008DF80E0005E0385D4146FEF739FE8DF876
:101530000E009DF80700A04203DA00208DF80F008E
:1015400006E019F804004146FEF72AFE8DF80F0068
:101550009DF80800A04204DA00208DF8100007E092
:1015600029E01AF804004146FEF71AFE8DF8100033
:101570009DF8100000909DF80F309DF80E209DF80A
:101580000D109DF80C00FFF7A9FD0D480068FEF74F
:10159000F3FF08F1010000F0FF08B8F1050F9EDB32
:1015A000FEF7DAFF06480068FEF7E6FF601CC4B2EB
:1015B0005C4591DB00BFFEF7CFFF09B0BDE8F08FBF
:1015C0000800002010B54FF4007000F029F8C8B1F1
:1015D0000D480078401C0C490870084600780F2818
:1015E00009DB0A480068B421B0FBF1F00849086043
:1015F0000020054908700020044908604FF400707D
:1016000000F008F810BD00000C00002004000020CD
:1016100008000020014908607047000014040140E0
:10162000014600200022074B1B6803EA0102054B1C
:1016300014331B680B4013B10AB1012000E00020F5
:101640007047000000040140002123498279002AEC
:101650003AD00A46126803689A430B461A600A1D7C
:10166000126803689A430B1D1A60027911440A68D4
:1016700003681A430A60184A0832126803689A43DA
:10168000154B08331A601A1D126803689A43124BEF
:101690000C331A604279102A0ED11A1F126803689F
:1016A0001A430D4B08331A601A1D126803681A4357
:1016B000094B0C331A600DE00749427911440A685E
:1016C00003681A430A6005E0027911440A68036856
:1016D0009A430A60704700000004014030B50022C0
:1016E0008B071C0F0F2303FA04F20B4B8C1053F8DB
:1016F00024309343084C8D1044F8253023468C1039
:1017000053F824308C07240F00FA04F42343024CCE
:101710008D1044F8253030BD080001402DE9F0411E
:10172000024600250026002000230024002791F80F
:1017300003C00CF00F0591F803C00CF0100CBCF1C5
:10174000000F03D091F802C04CEA050591F800C0E3
:10175000BCF1000F31D0146800202BE04FF0010CD9
:101760000CFA00F3B1F800C00CEA03069E4220D147
:1017700083004FF00F0C0CFA03F7BC4305FA03FC8F
:101780004CEA040491F803C0BCF1280F06D14FF0D5
:10179000010C0CFA00FCC2F814C00AE091F803C076
:1017A000BCF1480F05D14FF0010C0CFA00FCC2F857
:1017B00010C0401C0828D1D31460B1F800C0BCF19F
:1017C000FF0F34DD546800202EE000F1080C4FF0CC
:1017D000010808FA0CF3B1F800C00CEA03069E42B7
:1017E00021D183004FF00F0C0CFA03F7BC4305FA2C
:1017F00003FC4CEA040491F803C0BCF1280F05D1A6
:1018000000F1080C08FA0CF8C2F8148091F803C033
:10181000BCF1480F07D100F1080C4FF0010808FA9D
:101820000CF8C2F81080401C0828CED35460BDE8E4
:10183000F081416170470161704700BFFEE7000021
:1018400008B50121042000F0DDF80121082000F096
:10185000D9F81E20ADF8000010208DF803000320F9
:101860008DF8020069461148FFF758FF4FF40070E9
:10187000ADF8000004208DF8030003208DF802006D
:1018800069460B48FFF74AFF02210848FFF7D1FFDE
:1018900004210648FFF7CDFF08210448FFF7C9FFE0
:1018A00010210248FFF7C7FF08BD000000080140F3
:1018B000000C01400EB50121084600F0A3F80921F3
:1018C0000120FFF70BFF4FF40070FFF7A3FE4FF46A
:1018D0000070019000208DF808000C208DF80900A0
:1018E00001208DF80A0001A8FFF7AEFE17208DF841
:1018F000000000208DF801008DF8020001208DF815
:101900000300684600F034F80EBD1FB501210846FB
:1019100000F068F80920ADF804004720ADF8080091
:101920000020ADF8060001A94FF0804000F08EF9CC
:101930000121880700F05EF901221146900700F0AE
:101940007CF91C208DF8000001208DF8010000209A
:101950008DF8020001208DF80300684600F008F8B9
:101960000121880700F04CF91FBD00BFFEE770475A
:1019700070B5002100230F22C47804B3154C2468ED
:1019800004F4E064C4F5E064210AC1F10403CA4030
:10199000447804FA03F184781440214309010E4C81
:1019A0000678A155047804F01F050124AC400578A1
:1019B0006D11AD0005F1E025C5F8004109E004789E
:1019C00004F01F050124AC40044D0678761145F85B
:1019D000264070BD0CED00E000E400E080E100E096
:1019E0007047000029B1064AD2690243044BDA610C
:1019F00004E0034AD2698243014BDA617047000078
:101A00000010024029B1064A92690243044B9A61D0
:101A100004E0034A92698243014B9A6170470000D7
:101A20000010024070470000082002490860091FAA
:101A3000086070471408014010B500F001F810BDAF
:101A40000CB50020019000903348006840F48030CD
:101A50003149086000BF3048006800F40030009051
:101A60000198401C0190009818B90198B0F5A06F3A
:101A7000F1D12948006800F4003010B10120009035
:101A800001E0002000900098012843D1234800681D
:101A900040F01000214908600846006820F003006B
:101AA00008600846006840F0020008601A48406874
:101AB000194948600846406848600846406840F454
:101AC000806048600846406820F47C104860084602
:101AD000406840F4E81048600846006840F08070B4
:101AE000086000BF0C48006800F000700028F9D0C2
:101AF0000948406820F003000749486008464068EC
:101B000040F00200486000BF0348406800F00C004D
:101B10000828F9D10CBD000000100240002002404E
:101B20000146B42048434FF4B47290FBF2F0094AE6
:101B30001288504381B208480068884208D8064895
:101B40000068044A12681044884201D3012070479B
:101B50000020FCE7080000200400002010B5134816
:101B6000006840F0010011490860084640681049CB
:101B700008400E494860084600680E4908400B4975
:101B800008600846006820F4802008600846406825
:101B900020F4FE0048604FF41F008860FFF74CFF00
:101BA0004FF000600449086010BD000000100240C2
:101BB0000000FFF8FFFFF6FE08ED00E010B5012180
:101BC000880700F029F880B108480068401C0749E0
:101BD00008600748006820B105480068401E0449B5
:101BE00008600121880700F008F810BD04000020FB
:101BF00000000020CA4302827047CA430282704735
:101C000021B1028842F00102028004E002884FF60E
:101C1000FE731A400280704730B502460020002350
:101C20000024158A05EA0103958905EA010413B128
:101C30000CB1012000E0002030BD1AB183890B43B4
:101C4000838102E083898B4383817047002202886D
:101C50001D4B98420ED01D4B98420BD0B0F1804FD7
:101C600008D01B4B984205D01A4B984202D01A4B11
:101C7000984204D14FF68F731A404B881A43174B82
:101C8000984207D0164B984204D04FF6FF431A40B3
:101C9000CB881A4302808B8883850B8803850A4B87
:101CA00098420BD0094B984208D00E4B984205D071
:101CB0000D4B984202D00D4B984201D10B7A03860E
:101CC0000123838270470000002C01400034014052
:101CD0000004004000080040000C004000100040DC
:101CE0000014004000400140004401400048014011
:101CF00000BFFEE702E008C8121F08C1002AFAD19F
:101D000070477047002001E001C1121F002AFBD17B
:101D1000704700001CB5FFF793FDFFF7F6FDFFF7D6
:101D2000C9FD0027FF200346024601460090FFF749
:101D3000D5F900BFE04800681428FBD9BAE1DF4CB0
:101D40000BE0DFA0DEA1DFA3DFA2CDE90010DCA164
:101D50004FF4AA70FFF784FB641E002CF1D100261B
:101D60001FE04FF4AA7516E040F6C4140AE0D4A0B0
:101D7000D3A1CDE90010A8B2D2A3D3A2D0A1FFF77E
:101D80006FFB641E40F6C4108442F0D9012D01D1CE
:101D900040F26B156D1E40F255108542E4D1701C67
:101DA000C6B2022EDDDBC54C0BE0C5A0C4A1C7A3A3
:101DB000C8A2CDE90010C2A14FF4AA70FFF750FBF2
:101DC000641E002CF1D100261FE04FF4AA7516E026
:101DD00040F6C4140AE0BAA0B9A1CDE90010A8B237
:101DE000BAA3BCA2B6A1FFF73BFB641E40F6C41029
:101DF0008442F0D9012D01D140F26B156D1E40F2E5
:101E000055108542E4D1701CC6B2022EDDDBB24C07
:101E100007E04FF4A070FFF781F99120FFF77EF9FA
:101E2000641E002CF5D1002625E04FF4A0751CE0BF
:101E300040F6C4140FE0A8B2FFF770F905F1AA004C
:101E400087B2B7F5B57F02DDA7F5B47087B2384623
:101E5000FFF764F9641E40F6C4108442EBD940F2E7
:101E60006B10854200D100256D1C40F23F10854269
:101E7000DED1701CC6B2032ED7DB4FF4B47511E06F
:101E80004FF4FA640AE08EA08DA1CDE90010A8B24B
:101E900092A38BA28AA1FFF7E3FA641EB4F5FA6F4E
:101EA000F1D96D1E002DEBD14FF4B47511E04FF454
:101EB000FA640AE082A082A1CDE90010A8B288A34A
:101EC0007FA27FA1FFF7CCFA641EB4F5FA6FF1D9B7
:101ED0006D1E002DEBD14FF4B47512E040F6C41422
:101EE0000AE077A07FA1CDE90010A8B27EA377A277
:101EF00073A1FFF7B5FA641E40F6C4108442F0D90E
:101F00006D1E002DEAD17A4C03E0DC20FEF744FB85
:101F1000641E002CF9D1002615E0DC250FE040F20C
:101F2000DC5403E0A8B2FEF737FB641E40F2DC503D
:101F30008442F7D9B5F5B47F00D100256D1CDB2DA7
:101F4000EDD1701CC6B2022EE7DB694C03E0DC2049
:101F5000FEF722FB641E002CF9D1002622E0654C1E
:101F600004E040F24F10FEF7B9FF641E002CF8D1D8
:101F7000604C03E04120FEF7B1FF641E002CF9D154
:101F80005C4C03E09B20FEF7A9FF641E002CF9D1F6
:101F9000584C03E0F520FEF7A1FF641E002CF9D198
:101FA000701CC6B2012EDADB002622E0524C04E09F
:101FB00040F24F10FEF792FF641E002CF8D14E4CF9
:101FC00003E04120FEF78AFF641E002CF9D14A4C41
:101FD00003E09B20FEF782FF641E002CF9D1464CE3
:101FE00003E0F520FEF77AFF641E002CF9D1701C87
:101FF000C6B2022EDADB002626E04FF2244404E0CB
:1020000040F24F10FEF76AFF641E002CF8D14FF229
:10201000244403E04120FEF761FF641E002CF9D147
:102020004FF2244403E09B20FEF758FF641E002C6F
:10203000F9D14FF2244403E0F520FEF74FFF641E70
:10204000002CF9D1701CC6B2032ED6DB002626E088
:1020500047F6122404E040F24F10FEF73FFF641EE3
:10206000002CF8D147F6122403E04120FEF736FF9A
:10207000641E002CF9D147F6122403E09B20FEF7E2
:102080002DFF641E002CF9D147F6122403E0F52041
:10209000FEF724FF641E002CF9D1701CC6B2052E79
:1020A000D6DB144C04E040F24F10FEF717FF641E1D
:1020B000002CF8D143E6000008000020B0710B00AE
:1020C000000000004441590043450000434545439A
:1020D00000000000434C4200400D03005745000043
:1020E0004152450020202020202020434545430028
:1020F00020A1070090D0030048E801001C2100083F
:102100000000002014000000F41C0008302100082A
:102110001400002004040000041D0008000000005A
:1021200000000000000000000000000000000000AF
:0400000508000145A9
:00000001FF
