:020000040800F2
:100000001804002045010008430F0008070E0008EF
:100010003F0F00088D010008C51200080000000015
:10002000000000000000000000000000F90F0008C0
:10003000AD01000800000000B50F00085D010008D8
:100040005F0100085F0100085F0100085F01000810
:100050005F0100085F0100085F0100085F01000800
:100060005F0100085F0100085F0100085F010008F0
:100070005F0100085F0100085F0100085F010008E0
:100080005F0100085F0100085F0100085F010008D0
:100090005F0100085F0100085F010008910B000884
:1000A0005F0100085F0100085F0100085F010008B0
:1000B000911100085F0100085F0100085F0100085E
:1000C0005F0100085F0100085F0100085F01000890
:1000D0005F0100085F0100085F0100085F01000880
:1000E0005F0100085F0100085F0100085F01000870
:1000F0005F0100085F0100085F0100085F01000860
:100100005F0100085F0100085F0100085F0100084F
:100110005F0100085F0100085F0100085F0100083F
:100120005F0100085F0100085F0100085F0100082F
:10013000DFF80CD000F018F800480047E71200087C
:10014000180400200648804706480047FEE7FEE7FF
:10015000FEE7FEE7FEE7FEE7FEE7FEE7FEE7FEE777
:100160003111000831010008064C074D06E0E06837
:1001700040F0010394E8070098471034AC42F6D3EE
:10018000FFF7DAFF181300083813000800BFFEE776
:1001900000B510200449086000F030FF102002492B
:1001A000091F086000BD00001408014070470000EE
:1001B0000549096800EB5101044A116000BF034979
:1001C00009680029FBD170470800002000000020CA
:1001D00018B50446204600F08DFF00287ED0002090
:1001E000034602460146009000F094FCFE48006879
:1001F000FFF7DEFF0020034602460146009000F0B4
:1002000089FCF9480068FFF7D3FF00200346024647
:1002100060210090012000F07DFCF3480068FFF7AA
:10022000C7FF002003460246E0210090012000F0B5
:1002300071FCED480068FFF7BBFF00200346024653
:10024000E0210090012000F065FCE7480068FFF71E
:10025000AFFF002003460246C0210090012000F0BD
:1002600059FCE1480068FFF7A3FF0020034602465F
:10027000C0210090012000F04DFCDB480068FFF732
:1002800097FF002003460246C0210090012000F0A5
:1002900041FCD5480068FFF78BFF0020034602466B
:1002A000C0210090012000F035FCCF480068FFF726
:1002B0007FFF002003460246E021009000F02AFC68
:1002C000C9480068FFF774FF002003460246E0219A
:1002D000009000F01FFCC448006800E0FEE3FFF758
:1002E00067FF002003460246F0210090012000F045
:1002F00011FCBD480068FFF75BFF00200346024683
:10030000F8210090012000F005FCB7480068FFF7D5
:100310004FFF002003460246FF210090012000F01D
:10032000F9FBB1480068FFF743FF00200346802235
:10033000FF210090012000F0EDFBAB480068FFF7C3
:1003400037FF00200346C022FF21009000F0E2FBAF
:10035000A5480068FFF72CFF00200346C022FF21BC
:10036000009000F0D7FBA0480068FFF721FF0020B5
:100370000346F022FF21009000F0CCFB9A48006871
:10038000FFF716FF00200346F822FF21009000F03F
:10039000C1FB95480068FFF70BFF00200346FC22D5
:1003A000FF21009000F0B6FB8F480068FFF700FFC8
:1003B00000200346F422FF21009000F0ABFB8A48A6
:1003C0000068FFF7F5FE00200346E422CF210090ED
:1003D00000F0A0FB84480068FFF7EAFE0020034617
:1003E000E6228F21009000F095FB7F480068FFF720
:1003F000DFFE00200346E2220F21009000F08AFB7E
:1004000079480068FFF7D4FE00203023C12207217D
:10041000009000F07FFB74480068FFF7C9FE0020E1
:10042000F823C1220721009000F074FB6E48006899
:10043000FFF7BEFE3E20FC2380223F2100900020DB
:1004400000F068FB68480068FFF7B2FEFC20FF235D
:1004500000223F210090104600F05CFB62480068DB
:10046000FFF7A6FEF020FF2300221E210090104679
:1004700000F050FB5C480068FFF79AFEE0207F2305
:1004800000221A210090202000F044FB564800680A
:10049000FFF78EFEC0207F2300220821009030202D
:1004A00000F038FB50480068FFF782FE80207F2371
:1004B000002208210090702000F02CFB4A480068C0
:1004C000FFF776FE80201F23002204210090792070
:1004D00000F020FB44480068FFF76AFE00201E235E
:1004E000024680210090FF2000F014FB3E48006887
:1004F000FFF75EFE00201E230246C0210090FF2071
:1005000000F008FB38480068FFF752FE00201C236B
:100510000246C02100907F2000F0FCFA32480068BB
:10052000FFF746FE002003460246014600907F206A
:1005300000F0F0FA2C480068FFF73AFE002003466E
:100540000246014600903E2000F0E4FA264800688A
:10055000FFF72EFE002003460246014600901C20B5
:1005600000F0D8FA20480068FFF722FE002003467A
:10057000024601460090082000F0CCFA1A480068B4
:10058000FFF716FE0020034602460146009000F0E9
:10059000C1FA15480068FFF70BFE0020034602462B
:1005A0000146009000F0B6FA0F480068FFF700FE21
:1005B0000020034618220146009000F0ABFA0A48DA
:1005C0000068FFF7F5FD002003463C22014600903D
:1005D00000F0A0FA04480068FFF7EAFD0020034697
:1005E000FE220321009001E00800002000F092FAB2
:1005F000FE480068FFF7DCFD00200346FE22622172
:10060000009000F087FAF9480068FFF7D1FD00205C
:100610000346FE223E21009000F07CFAF348006879
:10062000FFF7C6FD00200346FE220C21009000F0DB
:1006300071FAEE480068FFF7BBFD00200346FE227A
:100640009D21009000F066FAE8480068FFF7B0FDD1
:1006500000200346FF2298210090012000F05AFA62
:10066000E2480068FFF7A4FD002090237F22D821F4
:100670000090012000F04EFADC480068FFF798FD7A
:100680000020FE237F2298210090032000F042FAF0
:10069000D6480068FFF78CFD0020FF237F221C2135
:1006A0000090022000F036FAD0480068FFF780FD85
:1006B0000020FE237F22BC210090062000F02AFAB1
:1006C000CA480068FFF774FD0020FE237F22FC214A
:1006D0000090072000F01EFAC4480068FFF768FD8C
:1006E0000020FC237F22FA210090052000F012FA5E
:1006F000BE480068FFF75CFD0020F0235F22FA216E
:100700000090022000F006FAB8480068FFF750FD9C
:100710000020F023CF22FB210090022000F0FAF904
:10072000B2480068FFF744FD00200346E722FF219E
:10073000009000F0EFF9AD480068FFF739FD0020A8
:100740000C23FA22FF210090012000F0E3F9A748D2
:100750000068FFF72DFD00201823BA22F921009030
:10076000032000F0D7F9A1480068FFF721FD002021
:100770000346D022F8210090032000F0CBF99B48DB
:100780000068FFF715FD00200346D022FF210090EE
:10079000032000F0BFF995480068FFF709FD00202D
:1007A0000346C022FF210090032000F0B3F98F48D8
:1007B0000068FFF7FDFC00200346C022FF210090E7
:1007C000032000F0A7F989480068FFF7F1FC00203A
:1007D0000346C022FF210090032000F09BF98348CC
:1007E0000068FFF7E5FC00200346E022FF210090AF
:1007F0000D2000F08FF97D480068FFF7D9FC00203C
:100800000346F022FF210090072000F083F977488B
:100810000068FFF7CDFC00200346FC22FF2100907A
:10082000052000F077F971480068FFF7C1FC00204F
:100830000346F022FF210090072000F06BF96B487F
:100840000068FFF7B5FC00200346E022FF2100907E
:100850000F2000F05FF965480068FFF7A9FC002051
:100860000346E022FF2100900F2000F053F95F487B
:100870000068FFF79DFC00200346E022FF21009066
:100880001F2000F047F959480068FFF791FC00204D
:100890000346F022FF2100901F2000F03BF953484F
:1008A0000068FFF785FC00200346F822FF21009036
:1008B0001F2000F02FF94D480068FFF779FC002059
:1008C0000346FC22FF2100903F2000F023F9474817
:1008D0000068FFF76DFC00200346FE22FF21009018
:1008E0003F2000F017F941480068FFF761FC002045
:1008F0000346E422FF2100901F2000F00BF93B4843
:100900000068FFF755FC00200346E022FF2100901D
:100910000F2000F0FFF835480068FFF749FC002081
:100920000346E022FF2100900F2000F0F3F82F484B
:100930000068FFF73DFC00200346C022FE21009026
:100940000F2000F0E7F829480068FFF731FC00208D
:1009500003460246FE2100900F2000F0DBF82348FA
:100960000068FFF725FCC02003230022FF21009030
:100970000F2000F0CFF81D480068FFF719FC802019
:1009800003230022FC210090072000F0C3F8174841
:100990000068FFF70DFC802007230022FC21009057
:1009A000184600F0B7F811480068FFF701FC8020F6
:1009B00007230022D8210090184600F0ABF80B481E
:1009C0000068FFF7F5FB00200F230246802100900E
:1009D000072000F09FF805480068FFF7E9FB0020BA
:1009E0000F23024680210090184601E008000020F5
:1009F00000F090F846480068FFF7DAFB80200723F4
:100A0000002201460090184600F084F84048006833
:100A1000FFF7CEFBC020072300228021009018465C
:100A200000F078F83A480068FFF7C2FBC0200F23B7
:100A3000002280210090072000F06CF83448006804
:100A4000FFF7B6FBD0200723002260210090184654
:100A500000F060F82E480068FFF7AAFBC0200123D1
:100A6000002240210090032000F054F8284800683C
:100A7000FFF79EFB002003460246802100900320E2
:100A800000F048F822480068FFF792FB0020034678
:100A9000024680210090032000F03CF81C480068CA
:100AA000FFF786FB002003460246802100900320CA
:100AB00000F030F816480068FFF77AFB0020034684
:100AC000024601460090022000F024F81048006819
:100AD000FFF76EFB00200346024600E014E00146EB
:100AE0000090022000F016F809480068FFF760FB4C
:100AF00000200346024601460090022000F00AF85A
:100B000003480068FFF754FBFFF742FB18BD0000E5
:100B1000080000202DE9F04107460C4615461E4608
:100B2000DDF81880384600F015F8204600F012F87D
:100B3000284600F00FF8304600F00CF8404600F070
:100B400009F8082002490860091F0860BDE8F08123
:100B50001408014010B502468021002013E002EA8B
:100B600001031BB10223094C236003E00223074C5D
:100B7000241D23600423054C241D2360241F2360AF
:100B80004910431CD8B20828E9DB10BD1008014009
:100B900010B54FF4007000F029F8C8B10D48007886
:100BA000401C0C49087008460078052809DB0A48F3
:100BB0000068B421B0FBF1F0084908600020054945
:100BC00008700020044908604FF4007000F008F835
:100BD00010BD00000C0000200400002008000020D0
:100BE00001490860704700001404014001460020DC
:100BF0000022074B1B6803EA0102054B14331B68F4
:100C00000B4013B10AB1012000E000207047000042
:100C100000040140002123498279002A3AD00A4683
:100C2000126803689A430B461A600A1D126803682B
:100C30009A430B1D1A60027911440A6803681A432B
:100C40000A60184A0832126803689A43154B083341
:100C50001A601A1D126803689A43124B0C331A600B
:100C60004279102A0ED11A1F126803681A430D4BDD
:100C700008331A601A1D126803681A43094B0C33B3
:100C80001A600DE00749427911440A6803681A4363
:100C90000A6005E0027911440A6803689A430A6011
:100CA000704700000004014030B500228B071C0F84
:100CB0000F2303FA04F20B4B8C1053F824309343A8
:100CC000084C8D1044F8253023468C1053F82430FE
:100CD0008C07240F00FA04F42343024C8D1044F8CF
:100CE000253030BD080001402DE9F04102460025C5
:100CF0000026002000230024002791F803C00CF0F8
:100D00000F0591F803C00CF0100CBCF1000F03D0DC
:100D100091F802C04CEA050591F800C0BCF1000F43
:100D200031D0146800202BE04FF0010C0CFA00F3D6
:100D3000B1F800C00CEA03069E4220D183004FF0B8
:100D40000F0C0CFA03F7BC4305FA03FC4CEA04044D
:100D500091F803C0BCF1280F06D14FF0010C0CFA3A
:100D600000FCC2F814C00AE091F803C0BCF1480FBF
:100D700005D14FF0010C0CFA00FCC2F810C0401C69
:100D80000828D1D31460B1F800C0BCF1FF0F34DDE6
:100D9000546800202EE000F1080C4FF0010808FA1A
:100DA0000CF3B1F800C00CEA03069E4221D1830087
:100DB0004FF00F0C0CFA03F7BC4305FA03FC4CEAA6
:100DC000040491F803C0BCF1280F05D100F1080C10
:100DD00008FA0CF8C2F8148091F803C0BCF1480F6F
:100DE00007D100F1080C4FF0010808FA0CF8C2F81E
:100DF0001080401C0828CED35460BDE8F0814161CA
:100E000070470161704700BFFEE7000008B501218F
:100E1000042000F0E1F80121082000F0DDF81E2098
:100E2000ADF8000010208DF8030003208DF80200BB
:100E300069461148FFF758FF4FF40070ADF8000005
:100E400004208DF8030003208DF8020069460B484A
:100E5000FFF74AFF02210848FFF7D1FF04210648A7
:100E6000FFF7CDFF08210448FFF7C9FF1021024812
:100E7000FFF7C7FF08BD000000080140000C01405B
:100E80000EB50121084600F0A7F809210120FFF75F
:100E90000BFF4FF40070FFF7A3FE4FF400700190BA
:100EA00000208DF808000C208DF8090001208DF835
:100EB0000A0001A8FFF7AEFE17208DF80000002001
:100EC0008DF801008DF8020001208DF803006846BE
:100ED00000F038F80EBD1FB50121084600F06CF88F
:100EE0000121022000F068F80920ADF80400472035
:100EF000ADF808000020ADF8060001A94FF08040D1
:100F000000F08EF90121880700F05EF901221146F8
:100F1000900700F07CF91C208DF8000001208DF86E
:100F2000010000208DF8020001208DF803006846C2
:100F300000F008F80121880700F04CF91FBD00BF40
:100F4000FEE7704770B5002100230F22C47804B378
:100F5000154C246804F4E064C4F5E064210AC1F18E
:100F60000403CA40447804FA03F18478144021430E
:100F700009010E4C0678A155047804F01F050124E0
:100F8000AC4005786D11AD0005F1E025C5F80041D4
:100F900009E0047804F01F050124AC40044D0678F4
:100FA000761145F8264070BD0CED00E000E400E04D
:100FB00080E100E07047000029B1064AD26902438F
:100FC000044BDA6104E0034AD2698243014BDA61DF
:100FD000704700000010024029B1064A926902439E
:100FE000044B9A6104E0034A92698243014B9A617F
:100FF00070470000001002407047000008200249BE
:101000000860091F086070471408014010B500F01F
:1010100001F810BD0CB50020019000903348006825
:1010200040F480303149086000BF3048006800F467
:10103000003000900198401C0190009818B9019868
:10104000B0F5A06FF1D12948006800F4003010B16C
:101050000120009001E0002000900098012843D179
:101060002348006840F010002149086008460068E5
:1010700020F0030008600846006840F002000860A5
:101080001A48406819494860084640684860084660
:10109000406840F4806048600846406820F47C1056
:1010A00048600846406840F4E81048600846006818
:1010B00040F08070086000BF0C48006800F00070CD
:1010C0000028F9D00948406820F00300074948602B
:1010D0000846406840F00200486000BF034840688E
:1010E00000F00C000828F9D10CBD000000100240EF
:1010F000002002400146B42048434FF4B47290FBF4
:10110000F2F0094A1288504381B2084800688842C8
:1011100008D806480068044A12681044884201D37F
:10112000012070470020FCE7080000200400002098
:1011300010B51348006840F00100114908600846E6
:101140004068104908400E494860084600680E494A
:1011500008400B4908600846006820F480200860B9
:101160000846406820F4FE0048604FF41F00886085
:10117000FFF74CFF4FF000600449086010BD00000D
:10118000001002400000FFF8FFFFF6FE08ED00E04F
:1011900010B50121880700F029F880B108480068DF
:1011A000401C074908600748006820B105480068EE
:1011B000401E044908600121880700F008F810BDAE
:1011C0000400002000000020CA4302827047CA4386
:1011D0000282704721B1028842F00102028004E0DD
:1011E00002884FF6FE731A400280704730B50246FF
:1011F000002000230024158A05EA0103958905EAE9
:10120000010413B10CB1012000E0002030BD1AB17F
:1012100083890B43838102E083898B4383817047F9
:10122000002202881D4B98420ED01D4B98420BD0D5
:10123000B0F1804F08D01B4B984205D01A4B984212
:1012400002D01A4B984204D14FF68F731A404B8844
:101250001A43174B984207D0164B984204D04FF6CA
:10126000FF431A40CB881A4302808B8883850B8802
:1012700003850A4B98420BD0094B984208D00E4B7D
:10128000984205D00D4B984202D00D4B984201D1A7
:101290000B7A03860123838270470000002C0140F3
:1012A000003401400004004000080040000C0040F1
:1012B0000010004000140040004001400044014084
:1012C0000048014000BFFEE702E008C8121F08C145
:1012D000002AFAD170477047002001E001C1121FB7
:1012E000002AFBD17047FFF791FDFFF7F4FDFFF7F0
:1012F000C7FD10E000240BE04FF4FA6503E0A0B254
:10130000FEF766FF6D1E40F6B8308542F7D9641CC3
:10131000B4F5B47FF0D9EDE73813000800000020E1
:1013200014000000C81200084C130008140000202C
:1013300004040000D81200080000000000000000B3
:0C134000000000000000000000000000A1
:0400000508000145A9
:00000001FF
