:020000040800F2
:100000001804002045010008CB1000088F0F0008DD
:10001000C71000089D0100084D14000800000000F2
:100020000000000000000000000000008111000836
:100030005D050008000000003D1100085D0100089A
:100040005F0100085F0100085F0100085F01000810
:100050005F0100085F0100085F0100085F01000800
:100060005F0100085F0100085F0100085F010008F0
:100070005F0100085F0100085F0100085F010008E0
:100080005F0100085F0100085F0100085F010008D0
:100090005F0100085F0100085F010008190D0008FA
:1000A0005F0100085F0100085F0100085F010008B0
:1000B000191300085F0100085F0100085F010008D4
:1000C0005F0100085F0100085F0100085F01000890
:1000D0005F0100085F0100085F0100085F01000880
:1000E0005F0100085F0100085F0100085F01000870
:1000F0005F0100085F0100085F0100085F01000860
:100100005F0100085F0100085F0100085F0100084F
:100110005F0100085F0100085F0100085F0100083F
:100120005F0100085F0100085F0100085F0100082F
:10013000DFF80CD000F020F80048004771140008E8
:10014000180400200648804706480047FEE7FEE7FF
:10015000FEE7FEE7FEE7FEE7FEE7FEE7FEE7FEE777
:10016000B912000831010008421C10F8011B0029D7
:10017000FBD1801A70470000064C074D06E0E0688E
:1001800040F0010394E8070098471034AC42F6D3DE
:10019000FFF7D2FF581500087815000800BFFEE7EA
:1001A0000CB50246A2F120003B2873D2DFE800F034
:1001B000D5727272727272727272727272F172723D
:1001C000DBE2F2F9EEEDECEBEAE972727272727256
:1001D000721E252C333A41484F565D646B737A8109
:1001E000888F969DA4ABB2B9C0C7CE008AA309CBB5
:1001F000CDE900031DF801000CBD89A309CBCDE9B1
:1002000000031DF80100F7E787A309CBCDE9000340
:100210001DF80100F0E786A309CBCDE900031DF826
:100220000100E9E784A309CBCDE900031DF8010033
:10023000E2E783A309CBCDE900031DF80100DBE76A
:1002400081A309CBCDE900031DF80100D4E780A309
:1002500009CBCDE900031DF80100CDE77EA309CB52
:10026000CDE900031DF80100C6E77DA309CBCDE968
:1002700000031DF80100BFE77BA309CBCDE9000314
:100280001DF80100B8E77AA309CBCDE900031DF8FA
:100290000100B1E7BDE078A309CBCDE900031DF86B
:1002A0000100A9E776A309CBCDE900031DF8010001
:1002B000A2E775A309CBCDE900031DF801009BE778
:1002C00073A309CBCDE900031DF8010094E772A3E5
:1002D00009CBCDE900031DF801008DE770A309CB20
:1002E000CDE900031DF8010086E76FA309CBCDE936
:1002F00000031DF801007FE76DA309CBCDE90003E2
:100300001DF8010078E76CA309CBCDE900031DF8C7
:10031000010071E76AA309CBCDE900031DF80100D4
:100320006AE769A309CBCDE900031DF8010063E783
:1003300067A309CBCDE900031DF801005CE766A3C4
:1003400009CBCDE900031DF8010055E764A309CBF3
:10035000CDE900031DF801004EE700200090019058
:100360001DF8010048E760A309CBCDE900031DF8A3
:10037000010041E75EA309CBCDE900031DF80100B0
:100380003AE738E030E028E020E018E010E008E04C
:1003900000E037E058A309CBCDE900031DF80100C8
:1003A0002AE757A309CBCDE900031DF8010023E795
:1003B00055A309CBCDE900031DF801001CE754A3A8
:1003C00009CBCDE900031DF8010015E752A309CBC5
:1003D000CDE900031DF801000EE751A309CBCDE9DB
:1003E00000031DF8010007E74FA309CBCDE9000387
:1003F0001DF8010000E74EA309CBCDE900031DF86D
:100400000100F9E64CA309CBCDE900031DF801007A
:10041000F2E60020F0E600007E9090907E00000062
:10042000FE9292926C0000007C8282824400000066
:10043000FE8282827C000000FE9292928200000086
:10044000FE909090800000007C8292929C000000C0
:10045000FE101010FE0000008282FE82820000006A
:100460000C0202FC00000000FE1028448200000084
:10047000FE02020202000000FE403040FE000000CA
:10048000FE201008FE0000007C8282827C000000BA
:10049000FE909090600000007C828A867E000000C2
:1004A000FE90989462000000729292928C0000007C
:1004B0008080FE8080000000FC020202FC00000040
:1004C000F8040204F8000000FE041804FE00000016
:1004D000C6281028C6000000C0201E20C000000052
:1004E000868A92A2C20000007CA2928A7C00000050
:1004F0000044FE020000000042868A926200000072
:10050000848292B2CC000000182848FF0800000046
:10051000E4A2A2A29C0000007C9292924C000000F7
:10052000808E90A0C00000006C9292926C0000003F
:10053000649292927C0000001010101010000000D5
:1005400000B510200449086000F01CFE102002498C
:10055000091F086000BD000014080140704700003A
:100560000549096800EB5101044A116000BF0349C5
:1005700009680029FBD17047080000200000002016
:1005800018B50446204600F079FE00287ED02020D1
:1005900000231A4619460090184600F0CDFAFE488E
:1005A0000068FFF7DDFF202000231A467821009025
:1005B000184600F0C1FAF8480068FFF7D1FF202084
:1005C00000231A46FF210090032000F0B5FAF248FC
:1005D0000068FFF7C5FF10200023C022FF21009014
:1005E000072000F0A9FAEC480068FFF7B9FF1020D7
:1005F0000023F022FF2100900F2000F09DFAE64832
:100600000068FFF7ADFF10200023F8221F210090A3
:10061000082000F091FAE0480068FFF7A1FF1020E1
:100620000023FC220721009000F086FADA480068D7
:10063000FFF796FF10200023FE220121009000F01A
:100640007BFAD5480068FFF78BFF30200023FF229C
:1006500019460090102000F06FFACF480068FFF7AD
:100660007FFF302080237F2200210090102000F0A7
:1006700063FAC9480068FFF773FF302080231F2208
:1006800000210090102000F057FA00E051E2C2482B
:100690000068FFF765FF3020C0230F220021009083
:1006A000102000F049FABC480068FFF759FF3020DD
:1006B000E0230F2200210090102000F03DFAB64800
:1006C0000068FFF74DFF3020F02307220021009043
:1006D000102000F031FAB0480068FFF741FF3020E9
:1006E000F023032200210090102000F025FAAA48F0
:1006F0000068FFF735FF3020F82301220021009029
:10070000102000F019FAA4480068FFF729FF3020F4
:10071000F823712200210090102000F00DFA9E486D
:100720000068FFF71DFF3020FC231A4600210090CF
:10073000102000F001FA98480068FFF711FF7020C0
:100740007E23FE2201210090182000F0F5F9924846
:100750000068FFF705FF70207F23FE220321009031
:10076000082000F0E9F98C480068FFF7F9FE7020D6
:100770003F23FF2207210090082000F0DDF9864882
:100780000068FFF7EDFE7020BE23FF2207210090D6
:10079000082000F0D1F980480068FFF7E1FEF02062
:1007A0009E23A7220E210090082000F0C5F97A4868
:1007B0000068FFF7D5FEE0209E2361220C21009007
:1007C000084600F0B9F974480068FFF7C9FEE02058
:1007D000CE23B0220E210090042000F0ADF96E4827
:1007E0000068FFF7BDFEE020CC23F0221F2100901F
:1007F000042000F0A1F968480068FFF7B1FEE0208E
:10080000CD23F8221F210090062000F095F96248C0
:100810000068FFF7A5FEE020ED2310221C210090C8
:10082000022000F089F95C480068FFF799FEC020BB
:10083000E923072218210090032000F07DF9564893
:100840000068FFF78DFEC020E323082250210090AE
:10085000012000F071F950480068FFF781FEC020C8
:10086000E323302250210090012000F065F94A482E
:100870000068FFF775FEC020E72340225F2100904B
:10088000002000F059F944480068FFF769FEE020B5
:10089000E723802258210090002000F04DF93E48C7
:1008A0000068FFF75DFEE020CF2304225C2100906A
:1008B000002000F041F938480068FFF751FEE020C1
:1008C000CF2309225E210090002000F035F9324844
:1008D0000068FFF745FEE020CF23F1224F21009072
:1008E000002000F029F92C480068FFF739FEE020CD
:1008F0009F238322CF210090002000F01DF926487D
:100900000068FFF72DFEE0209F23C722872100907B
:10091000002000F011F920480068FFF721FEE020D8
:100920003E23FF2287210090002000F005F91A489D
:100930000068FFF715FEE0203E23FF228321009090
:10094000002000F0F9F814480068FFF709FEE020E5
:100950007C23FE2283210090002000F0EDF80E4859
:100960000068FFF7FDFDE020FC231A46C12100903E
:10097000002000F0E1F808480068FFF7F1FD602072
:10098000F8231A4640210090002000F0D5F80248D4
:100990000068FFF7E5FD01E0080000206020F82373
:1009A000012240210090002000F0C6F86148006854
:1009B000FFF7D6FD6020F0230322402100900020A5
:1009C00000F0BAF85B480068FFF7CAFD6020F0232A
:1009D000072220210090002000F0AEF85548006862
:1009E000FFF7BEFD6020E0230F22202100900020B1
:1009F00000F0A2F84F480068FFF7B2FD6020C02366
:100A00001F2230210090002000F096F8494800682D
:100A1000FFF7A6FD602080237F2218210090002090
:100A200000F08AF843480068FFF79AFD6020002331
:100A3000FF221F210090184600F07EF83D48006814
:100A4000FFF78EFD60200023FE221F210090184634
:100A500000F072F837480068FFF782FD602000233D
:100A6000FC220F210090184600F066F8314800681B
:100A7000FFF776FDC0200023F822072100901846DA
:100A800000F05AF82B480068FFF76AFDC0200023E9
:100A9000E02219460090184600F04EF825480068FC
:100AA000FFF75EFDC02000231A4619460090184645
:100AB00000F042F81F480068FFF752FD8020002335
:100AC0001A4619460090184600F036F81948006892
:100AD000FFF746FD802001230022114600901046BA
:100AE00000F02AF813480068FFF73AFD00200123C0
:100AF00002460146009000F01FF80E480068FFF71C
:100B00002FFD0020012302460146009000F014F85A
:100B100008480068FFF724FD002002230246014632
:100B2000009000F009F803480068FFF719FDFFF78F
:100B300007FD18BD080000202DE9F04107460C46CE
:100B400015461E46DDF81880384600F015F8204698
:100B500000F012F8284600F00FF8304600F00CF8CC
:100B6000404600F009F8082002490860091F0860A3
:100B7000BDE8F0811408014010B502468021002034
:100B800013E002EA01031BB10223094C236003E0D6
:100B90000223074C241D23600423054C241D2360DD
:100BA000241F23604910431CD8B20828E9DB10BD7C
:100BB000100801402DE9FF4F85B00D4616461F462F
:100BC000DDE9129A059800F059FB002872D02846FA
:100BD000FFF7CAFAC0B28DF804003046FFF7C4FA36
:100BE000C0B28DF805003846FFF7BEFAC0B28DF8E6
:100BF00006004846FFF7B8FAC0B28DF80700504625
:100C0000FFF7B2FAC0B28DF808009DF804B00124D5
:100C100008E001A8005D584502DD01A810F804B005
:100C2000601CC4B2052CF4DB00246BE04FF000081C
:100C30005DE09DF80400A04203DA00208DF80C006E
:100C400005E0285D4146FFF7ABFA8DF80C009DF8F2
:100C50000500A04203DA00208DF80D0005E0305DAC
:100C60004146FFF79DFA8DF80D009DF80600A04261
:100C700003DA00208DF80E0005E0385D4146FFF7ED
:100C80008FFA8DF80E009DF80700A04203DA0020CD
:100C90008DF80F0006E019F804004146FFF780FACE
:100CA0008DF80F009DF80800A04204DA00208DF8AE
:100CB000100007E029E01AF804004146FFF770FA37
:100CC0008DF810009DF8100000909DF80F309DF8F1
:100CD0000E209DF80D109DF80C00FFF72DFF0D481C
:100CE0000068FFF73DFC08F1010000F0FF08B8F1D3
:100CF000050F9EDBFFF724FC06480068FFF730FC79
:100D0000601CC4B25C4591DB00BFFFF719FC09B061
:100D1000BDE8F08F0800002010B54FF4007000F01F
:100D200029F8C8B10D480078401C0C4908700846E5
:100D30000078052809DB0A480068B421B0FBF1F00F
:100D4000084908600020054908700020044908602F
:100D50004FF4007000F008F810BD00000C000020F7
:100D600004000020080000200149086070470000CE
:100D700014040140014600200022074B1B6803EACF
:100D80000102054B14331B680B4013B10AB101205B
:100D900000E00020704700000004014000212349CA
:100DA0008279002A3AD00A46126803689A430B46B1
:100DB0001A600A1D126803689A430B1D1A600279B3
:100DC00011440A6803681A430A60184A0832126814
:100DD00003689A43154B08331A601A1D126803689A
:100DE0009A43124B0C331A604279102A0ED11A1F03
:100DF000126803681A430D4B08331A601A1D1268F3
:100E000003681A43094B0C331A600DE00749427915
:100E100011440A6803681A430A6005E00279114424
:100E20000A6803689A430A607047000000040140A2
:100E300030B500228B071C0F0F2303FA04F20B4B73
:100E40008C1053F824309343084C8D1044F825300F
:100E500023468C1053F824308C07240F00FA04F436
:100E60002343024C8D1044F8253030BD080001406A
:100E70002DE9F04102460025002600200023002431
:100E8000002791F803C00CF00F0591F803C00CF097
:100E9000100CBCF1000F03D091F802C04CEA05051C
:100EA00091F800C0BCF1000F31D0146800202BE095
:100EB0004FF0010C0CFA00F3B1F800C00CEA030685
:100EC0009E4220D183004FF00F0C0CFA03F7BC4375
:100ED00005FA03FC4CEA040491F803C0BCF1280FA6
:100EE00006D14FF0010C0CFA00FCC2F814C00AE065
:100EF00091F803C0BCF1480F05D14FF0010C0CFA7A
:100F000000FCC2F810C0401C0828D1D31460B1F80E
:100F100000C0BCF1FF0F34DD546800202EE000F16A
:100F2000080C4FF0010808FA0CF3B1F800C00CEA05
:100F300003069E4221D183004FF00F0C0CFA03F7F9
:100F4000BC4305FA03FC4CEA040491F803C0BCF16D
:100F5000280F05D100F1080C08FA0CF8C2F814802B
:100F600091F803C0BCF1480F07D100F1080C4FF015
:100F7000010808FA0CF8C2F81080401C0828CED3EB
:100F80005460BDE8F081416170470161704700BF66
:100F9000FEE7000008B50121042000F0E1F801217E
:100FA000082000F0DDF81E20ADF8000010208DF8BC
:100FB000030003208DF8020069461148FFF758FF2F
:100FC0004FF40070ADF8000004208DF803000320FA
:100FD0008DF8020069460B48FFF74AFF02210848D6
:100FE000FFF7D1FF04210648FFF7CDFF0821044891
:100FF000FFF7C9FF10210248FFF7C7FF08BD000037
:1010000000080140000C01400EB50121084600F027
:10101000A7F809210120FFF70BFF4FF40070FFF73D
:10102000A3FE4FF40070019000208DF808000C2002
:101030008DF8090001208DF80A0001A8FFF7AEFE27
:1010400017208DF8000000208DF801008DF80200B7
:1010500001208DF80300684600F038F80EBD1FB57A
:101060000121084600F06CF80121022000F068F828
:101070000920ADF804004720ADF808000020ADF8C5
:10108000060001A94FF0804000F08EF90121880789
:1010900000F05EF901221146900700F07CF91C2057
:1010A0008DF8000001208DF8010000208DF802006D
:1010B00001208DF80300684600F008F80121880738
:1010C00000F04CF91FBD00BFFEE7704770B500216E
:1010D00000230F22C47804B3154C246804F4E064A0
:1010E000C4F5E064210AC1F10403CA40447804FA5B
:1010F00003F184781440214309010E4C0678A15570
:10110000047804F01F050124AC4005786D11AD0092
:1011100005F1E025C5F8004109E0047804F01F0559
:101120000124AC40044D0678761145F8264070BD88
:101130000CED00E000E400E080E100E0704700001A
:1011400029B1064AD2690243044BDA6104E0034A3A
:10115000D2698243014BDA617047000000100240FF
:1011600029B1064A92690243044B9A6104E0034A9A
:1011700092698243014B9A6170470000001002405F
:1011800070470000082002490860091F0860704786
:101190001408014010B500F001F810BD0CB5002096
:1011A000019000903348006840F480303149086075
:1011B00000BF3048006800F4003000900198401CE7
:1011C0000190009818B90198B0F5A06FF1D12948A5
:1011D000006800F4003010B10120009001E0002010
:1011E00000900098012843D12348006840F0100087
:1011F000214908600846006820F00300086008469E
:10120000006840F0020008601A48406819494860C8
:101210000846406848600846406840F4806048607E
:101220000846406820F47C1048600846406840F456
:10123000E81048600846006840F08070086000BF11
:101240000C48006800F000700028F9D00948406898
:1012500020F00300074948600846406840F002005B
:10126000486000BF0348406800F00C000828F9D12E
:101270000CBD000000100240002002400146B420D6
:1012800048434FF4B47290FBF2F0094A128850437D
:1012900081B208480068884208D806480068044AB5
:1012A00012681044884201D3012070470020FCE7F7
:1012B000080000200400002010B51348006840F02A
:1012C00001001149086008464068104908400E496D
:1012D0004860084600680E4908400B490860084607
:1012E000006820F4802008600846406820F4FE0072
:1012F00048604FF41F008860FFF74CFF4FF000601C
:101300000449086010BD0000001002400000FFF812
:10131000FFFFF6FE08ED00E010B50121880700F0A0
:1013200029F880B108480068401C07490860074850
:10133000006820B105480068401E0449086001218A
:10134000880700F008F810BD04000020000000200D
:10135000CA4302827047CA430282704721B10288A1
:1013600042F00102028004E002884FF6FE731A4048
:101370000280704730B50246002000230024158A01
:1013800005EA0103958905EA010413B10CB10120B6
:1013900000E0002030BD1AB183890B43838102E055
:1013A00083898B4383817047002202881D4B9842BA
:1013B0000ED01D4B98420BD0B0F1804F08D01B4B84
:1013C000984205D01A4B984202D01A4B984204D149
:1013D0004FF68F731A404B881A43174B984207D029
:1013E000164B984204D04FF6FF431A40CB881A435D
:1013F00002808B8883850B8803850A4B98420BD02B
:10140000094B984208D00E4B984205D00D4B98429C
:1014100002D00D4B984201D10B7A038601238382BF
:1014200070470000002C01400034014000040040DF
:1014300000080040000C0040001000400014004074
:1014400000400140004401400048014000BFFEE769
:1014500002E008C8121F08C1002AFAD1704770477D
:10146000002001E001C1121F002AFBD170470000DB
:101470001CB5FFF78FFDFFF7F2FDFFF7C5FD59E043
:101480002D4C04E04FF48C70FFF77AF8641E002CAA
:10149000F8D1002618E04FF48C750FE04FF47A6411
:1014A00003E0A8B2FFF76CF8641EB4F57A6FF8D9C0
:1014B00040F26710854200D100256D1C40F21710E4
:1014C0008542EBD1701CC6B2032EE4DB1A4C0BE054
:1014D0001AA01AA11AA31DA2CDE9001017A14FF45A
:1014E0008C70FFF767FB641E002CF1D100261FE013
:1014F0004FF48C7516E040F6B8340AE00FA00FA147
:10150000CDE90010A8B20EA310A20CA1FFF752FB68
:10151000641E40F6B8308442F0D9012D01D140F26A
:1015200067156D1E40F219108542E4D1701CC6B2D9
:10153000032EDDDBA4E7000060E3160000000000DE
:1015400044414920484F4920580000004348414F3A
:10155000204D554E4700000078150008000000207F
:1015600014000000501400088C150008140000201E
:1015700004040000601400080000000000000000E7
:0C1580000000000000000000000000005F
:0400000508000145A9
:00000001FF
