:020000040800F2
:100000001004002045010008E7170008AB1600089F
:10001000E31700089D010008691B000800000000AC
:100020000000000000000000000000009D18000813
:100030006904000800000000591800085D0100086C
:100040005F0100085F0100085F0100085F01000810
:100050005F0100085F0100085F0100085F01000800
:100060005F0100085F0100085F0100085F010008F0
:100070005F0100085F0100085F0100085F010008E0
:100080005F0100085F0100085F0100085F010008D0
:100090005F0100085F0100085F01000865140008A7
:1000A0005F0100085F0100085F0100085F010008B0
:1000B0002D1A00085F0100085F0100085F010008B9
:1000C0005F0100085F0100085F0100085F01000890
:1000D0005F0100085F0100085F0100085F01000880
:1000E0005F0100085F0100085F0100085F01000870
:1000F0005F0100085F0100085F0100085F01000860
:100100005F0100085F0100085F0100085F0100084F
:100110005F0100085F0100085F0100085F0100083F
:100120005F0100085F0100085F0100085F0100082F
:10013000DFF80CD000F020F8004800478D1B0008C5
:10014000100400200648804706480047FEE7FEE707
:10015000FEE7FEE7FEE7FEE7FEE7FEE7FEE7FEE777
:10016000CD19000831010008421C10F8011B0029BC
:10017000FBD1801A70470000064C074D06E0E0688E
:1001800040F0010394E8070098471034AC42F6D3DE
:10019000FFF7D2FF601D0008801D000800BFFEE7CA
:1001A0000CB502464D2A7FD01ADC462A48D00EDC18
:1001B000432A30D006DC202A74D0412A1DD0422A9E
:1001C00071D121E0442A2DD0452AF9D131E0A2F1A4
:1001D0004700062867D2DFE800F03A41484F575EF3
:1001E000A2F14E000D28F5D2DFE800F0656C737ABD
:1001F00081888F969DA4ABB2B90060A309CBCDE9ED
:1002000000031DF801000CBD5EA309CBCDE900037E
:100210001DF80100F7E75DA309CBCDE900031DF848
:100220000100F0E75BA309CBCDE900031DF8010055
:10023000E9E75AA309CBCDE900031DF80100E2E785
:1002400058A309CBCDE900031DF80100DBE757A354
:1002500009CBCDE900031DF80100D4E755A309CB74
:10026000CDE900031DF80100CDE754A309CBCDE98A
:1002700000031DF80100C6E752A309CBCDE9000336
:100280001DF80100BFE70FE050A309CBCDE9000343
:100290001DF80100B7E74FA309CBCDE900031DF816
:1002A0000100B0E762E067E04CA309CBCDE90003B1
:1002B0001DF80100A7E74BA309CBCDE900031DF80A
:1002C0000100A0E749A309CBCDE900031DF8010017
:1002D00099E748A309CBCDE900031DF8010092E797
:1002E00046A309CBCDE900031DF801008BE745A328
:1002F00009CBCDE900031DF8010084E743A309CB36
:10030000CDE900031DF801007DE742A309CBCDE94B
:1003100000031DF8010076E740A309CBCDE90003F7
:100320001DF801006FE73FA309CBCDE900031DF8DD
:10033000010068E73DA309CBCDE900031DF80100EA
:1003400061E73CA309CBCDE900031DF801005AE7A2
:100350003AA309CBCDE900031DF8010053E739A307
:1003600009CBCDE900031DF801004CE70020009007
:1003700001901DF8010046E7002044E77E90909030
:100380007E000000FE9292926C0000007C828282CD
:1003900044000000FE8282827C000000FE92929265
:1003A00082000000FE909090800000007C8292927B
:1003B0009C000000FE101010FE0000008282FE82F1
:1003C000820000000C0202FC00000000FE10284425
:1003D00082000000FE02020202000000FE403040E7
:1003E000FE000000FE201008FE0000007C828282D9
:1003F0007C000000FE909090600000007C828A8665
:100400007E000000FE90989462000000729292922A
:100410008C0000008080FE8080000000FC02020250
:10042000FC000000F8040204F8000000FE041804B8
:10043000FE000000C6281028C6000000C0201E20B4
:10044000C0000000868A92A2C200000000B5102001
:100450000449086001F024FA10200249091F0860CD
:1004600000BD000014080140704700000349086007
:1004700000BF024909680029FBD170470400002031
:1004800001B581B0019801F087FA00287ED00020E4
:10049000034602460146009000F0F2FEFE48006866
:1004A00000EB40000090FFF7E1FF0020034602460A
:1004B0000146009000F0E4FEF748006800EB4000C1
:1004C0000090FFF7D3FF0020034602466021009012
:1004D000012000F0D5FEF048006800EB40000090DD
:1004E000FFF7C4FF002003460246E02100900120F0
:1004F00000F0C6FEE848006800EB40000090FFF7FF
:10050000B5FF002003460246E0210090012000F0E4
:10051000B7FEE148006800EB40000090FFF7A6FF3F
:10052000002003460246C0210090012000F0A8FEF2
:10053000D948006800EB40000090FFF797FF0020CB
:1005400003460246C0210090012000F099FED248E7
:10055000006800EB40000090FFF788FF0020034692
:100560000246C0210090012000F08AFECA480068BF
:1005700000EB40000090FFF779FF002003460246A1
:10058000C0210090012000F07BFE00E0FDE3C248A6
:10059000006800EB40000090FFF768FF0020034672
:1005A0000246E021009000F06BFEBB48006800EBC3
:1005B00040000090FFF75AFF002003460246E0216A
:1005C000009000F05DFEB448006800EB4000009031
:1005D000FFF74CFF002003460246F0210090012067
:1005E00000F04EFEAC48006800EB40000090FFF7C2
:1005F0003DFF002003460246F8210090012000F054
:100600003FFEA548006800EB40000090FFF72EFF7A
:10061000002003460246FF210090012000F030FE3A
:100620009D48006800EB40000090FFF71FFF00208E
:1006300003468022FF210090012000F021FE964811
:10064000006800EB40000090FFF710FF0020034619
:10065000C022FF21009000F013FE8F48006800EBDD
:1006600040000090FFF702FF00200346C022FF2158
:10067000009000F005FE8848006800EB4000009004
:10068000FFF7F4FE00200346F022FF21009000F067
:10069000F7FD8148006800EB40000090FFF7E6FEA0
:1006A00000200346F822FF21009000F0E9FD7A487F
:1006B000006800EB40000090FFF7D8FE00200346E2
:1006C000FC22FF21009000F0DBFD7348006800EB86
:1006D00040000090FFF7CAFE00200346F422FF21ED
:1006E000009000F0CDFD6C48006800EB40000090E9
:1006F000FFF7BCFE00200346E422CF21009000F06B
:10070000BFFD6548006800EB40000090FFF7AEFEBB
:1007100000200346E6228F21009000F0B1FD5E48E4
:10072000006800EB40000090FFF7A0FE00200346A9
:10073000E2220F21009000F0A3FD5748006800EB73
:1007400040000090FFF792FE00203023C1220721D5
:10075000009000F095FD5048006800EB40000090CC
:10076000FFF784FE0020F823C1220721009000F04B
:1007700087FD4948006800EB40000090FFF776FED7
:100780003E20FC2380223F210090002000F078FDD5
:100790004148006800EB40000090FFF767FEFC2036
:1007A000FF2300223F210090104600F069FD3A48E7
:1007B000006800EB40000090FFF758FEF020FF2398
:1007C00000221E210090104600F05AFD32480068B9
:1007D00000EB40000090FFF749FEE0207F2300225D
:1007E0001A210090202000F04BFD2B48006800EB00
:1007F00040000090FFF73AFEC0207F23002208212E
:100800000090302000F03CFD2348006800EB4000E1
:100810000090FFF72BFE80207F230022082100900C
:10082000702000F02DFD1C48006800EB4000009097
:10083000FFF71CFE80201F23002204210090792056
:1008400000F01EFD1448006800EB40000090FFF728
:100850000DFE00201E23024680210090FF2000F0A4
:100860000FFD0D48006800EB40000090FFF7FEFD13
:1008700000201E230246C0210090FF2000F000FD52
:100880000548006800EB40000090FFF7EFFD0020F6
:100890001C230246C02101E00C00002000907F20B4
:1008A00000F0EEFCFE48006800EB40000090FFF70F
:1008B000DDFD002003460246014600907F2000F047
:1008C000DFFCF748006800EB40000090FFF7CEFD2A
:1008D000002003460246014600903E2000F0D0FC76
:1008E000EF48006800EB40000090FFF7BFFD0020DC
:1008F00003460246014600901C2000F0C1FCE84877
:10090000006800EB40000090FFF7B0FD00200346B8
:10091000024601460090082000F0B2FCE048006862
:1009200000EB40000090FFF7A1FD002003460246C7
:100930000146009000F0A4FCD948006800EB40009C
:100940000090FFF793FD0020034618220146009017
:1009500000F096FCD248006800EB40000090FFF7E2
:1009600085FD002003463C220146009000F088FCF3
:10097000CB48006800EB40000090FFF777FD0020B7
:100980000346FE220321009000F07AFCC448006870
:1009900000EB40000090FFF769FD00200346FE22B7
:1009A0006221009000F06CFCBD48006800EB400044
:1009B0000090FFF75BFD00200346FE223E210090E1
:1009C00000F05EFCB648006800EB40000090FFF7C6
:1009D0004DFD00200346FE220C21009000F050FC4B
:1009E000AF48006800EB40000090FFF73FFD00209B
:1009F0000346FE229D21009000F042FCA8480068BA
:100A000000EB40000090FFF731FD00200346FF227D
:100A100098210090012000F033FCA148006800EB11
:100A200040000090FFF722FD002090237F22D82174
:100A30000090012000F024FC9948006800EB400081
:100A40000090FFF713FD0020FE237F2298210090E5
:100A5000032000F015FC9248006800EB4000009075
:100A6000FFF704FD0020FF237F221C2100900220BD
:100A700000F006FC8A48006800EB40000090FFF799
:100A8000F5FC0020FE237F22BC210090062000F010
:100A9000F7FB8348006800EB40000090FFF7E6FC9E
:100AA0000020FE237F22FC210090072000F0E8FBBD
:100AB0007B48006800EB40000090FFF7D7FC002067
:100AC000FC237F22FA210090052000F0D9FB744816
:100AD000006800EB40000090FFF7C8FC0020F02306
:100AE0005F22FA210090022000F0CAFB6C480068E7
:100AF00000EB40000090FFF7B9FC0020F023CF226C
:100B0000FB210090022000F0BBFB6548006800EB71
:100B100040000090FFF7AAFC00200346E722FF21D7
:100B2000009000F0ADFB5E48006800EB40000090D4
:100B3000FFF79CFC00200C23FA22FF2100900120EB
:100B400000F09EFB5648006800EB40000090FFF765
:100B50008DFC00201823BA22F9210090032000F018
:100B60008FFB4F48006800EB40000090FFF77EFCD1
:100B700000200346D022F8210090032000F080FBE3
:100B80004748006800EB40000090FFF76FFC002032
:100B90000346D022FF210090032000F071FB404863
:100BA000006800EB40000090FFF760FC0020034667
:100BB000C022FF210090032000F062FB384800684B
:100BC00000EB40000090FFF751FC00200346C022DC
:100BD000FF210090032000F053FB3148006800EB38
:100BE00040000090FFF742FC00200346C022FF2196
:100BF0000090032000F044FB2948006800EB40000F
:100C00000090FFF733FC00200346E022FF21009014
:100C10000D2000F035FB2248006800EB40000090FA
:100C2000FFF724FC00200346F022FF21009007205C
:100C300000F026FB1A48006800EB40000090FFF728
:100C400015FC00200346FC22FF210090052000F047
:100C500017FB1348006800EB40000090FFF706FC0C
:100C600000200346F022FF210090072000F008FB3F
:100C70000B48006800EB40000090FFF7F7FB0020F6
:100C80000346E022FF2100900F2000F0F9FA04480B
:100C9000006800EB40000090FFF7E8FB002001E057
:100CA0000C0000200346E022FF2100900F2000F0FE
:100CB000E7FADD48006800EB40000090FFF7D6FB44
:100CC00000200346E022FF2100901F2000F0D8FA08
:100CD000D548006800EB40000090FFF7C7FB0020FC
:100CE0000346F022FF2100901F2000F0C9FACE48F1
:100CF000006800EB40000090FFF7B8FB00200346BF
:100D0000F822FF2100901F2000F0BAFAC6480068C0
:100D100000EB40000090FFF7A9FB00200346FC22F7
:100D2000FF2100903F2000F0ABFABF48006800EBC5
:100D300040000090FFF79AFB00200346FE22FF21AF
:100D400000903F2000F09CFAB748006800EB40009C
:100D50000090FFF78BFB00200346E422FF21009068
:100D60001F2000F08DFAB048006800EB40000090B2
:100D7000FFF77CFB00200346E022FF2100900F20BC
:100D800000F07EFAA848006800E04CE100EB40006B
:100D90000090FFF76BFB00200346E022FF2100904C
:100DA0000F2000F06DFAA048006800EB40000090B2
:100DB000FFF75CFB00200346C022FE2100900F20BD
:100DC00000F05EFA9848006800EB40000090FFF7E2
:100DD0004DFB002003460246FE2100900F2000F04C
:100DE0004FFA9148006800EB40000090FFF73EFB8F
:100DF000C02003230022FF2100900F2000F040FAC2
:100E00008948006800EB40000090FFF72FFB80202E
:100E100003230022FC210090072000F031FA8248D1
:100E2000006800EB40000090FFF720FB80200723C4
:100E30000022FC210090184600F022FA7A4800684F
:100E400000EB40000090FFF711FB802007230022F9
:100E5000D8210090184600F013FA7348006800EBA0
:100E600040000090FFF702FB00200F230246802184
:100E70000090072000F004FA6B48006800EB400087
:100E80000090FFF7F3FA00200F2302468021009024
:100E9000184600F0F5F96448006800EB4000009047
:100EA000FFF7E4FA8020072300220146009018464D
:100EB00000F0E6F95C48006800EB40000090FFF7A6
:100EC000D5FAC0200723002280210090184600F0A8
:100ED000D7F95548006800EB40000090FFF7C6FACC
:100EE000C0200F23002280210090072000F0C8F9C5
:100EF0004D48006800EB40000090FFF7B7FAD020A3
:100F00000723002260210090184600F0B9F94648F6
:100F1000006800EB40000090FFF7A8FAC020012312
:100F2000002240210090032000F0AAF93E4800680A
:100F300000EB40000090FFF799FA002003460246BC
:100F400080210090032000F09BF93748006800EBF7
:100F500040000090FFF78AFA0020034602468021F5
:100F60000090032000F08CF92F48006800EB40004F
:100F70000090FFF77BFA0020034602468021009094
:100F8000032000F07DF92848006800EB4000009045
:100F9000FFF76CFA0020034602460146009002204B
:100FA00000F06EF92048006800EB40000090FFF769
:100FB0005DFA00200346024601460090022000F040
:100FC0005FF91948006800EB40000090FFF74EFA07
:100FD00000200346024601460090022000F050F92E
:100FE0001148006800EB40000090FFF73FFA002036
:100FF000034602460146009000F042F90A480068A4
:1010000000EB40000090FFF731FA00200346024653
:101010000146009000F034F90348006800EB4000FE
:101020000090FFF723FA0CBD0C00002018B5044611
:10103000204600F0B1FC00287ED000200346E022CC
:101040000121009000F01CF98C49096801EB410076
:10105000FFF70CFA00200346F0220321009000F075
:101060000FF98649096801EB4100FFF7FFF90020FD
:101070000346F8220721009000F002F97F49096831
:1010800001EB4100FFF7F2F900200346FC220F219B
:10109000009000F0F5F87949096801EB4100FFF78D
:1010A000E5F900200346FE221F21009000F0E8F839
:1010B0007249096801EB4100FFF7D8F900200346A7
:1010C000FF223F21009000F0DBF86C49096801EB3A
:1010D0004100FFF7CBF900208023FF223F21009041
:1010E00000F0CEF86549096801EB4100FFF7BEF951
:1010F0000020C023FF223F21009000F0C1F85F498B
:10110000096801EB4100FFF7B1F90020E023FF225D
:101110001F21009000F0B4F85849096801EB410024
:10112000FFF7A4F90020F023FF220F21009000F028
:10113000A7F85249096800E09FE001EB4100FFF782
:1011400095F90020F823FF220F21009000F098F875
:101150004A49096801EB4100FFF788F90020FC23A8
:10116000FF220721009000F08BF84449096801EB49
:101170004100FFF77BF90020F823FF220F210090A8
:1011800000F07EF83D49096801EB4100FFF76EF978
:101190000020F023FF220F21009000F071F8374962
:1011A000096801EB4100FFF761F90020E023FF220D
:1011B0001F21009000F064F83049096801EB4100FC
:1011C000FFF754F90020C023FF223F21009000F0D8
:1011D00057F82A49096801EB4100FFF747F9002059
:1011E0008023FF223F21009000F04AF8234909683C
:1011F00001EB4100FFF73AF900200346FF223F21AF
:10120000009000F03DF81D49096801EB4100FFF72F
:101210002DF900200346FE221F21009000F030F837
:101220001649096801EB4100FFF720F90020034649
:10123000F8220721009000F023F81049096801EB1B
:101240004100FFF713F900200346F022032100902C
:1012500000F016F80949096801EB4100FFF706F9AB
:1012600000200346E0220121009000F009F8034924
:10127000096801EB4100FFF7F9F818BD0C000020E8
:101280002DE9F04107460C4615461E46DDF818804C
:10129000384600F015F8204600F012F8284600F015
:1012A0000FF8304600F00CF8404600F009F808202E
:1012B00002490860091F0860BDE8F0811408014078
:1012C00010B502468021002013E002EA01031BB1A1
:1012D0000223094C236003E00223074C241D2360F2
:1012E0000423054C241D2360241F23604910431C44
:1012F000D8B20828E9DB10BD100801402DE9FF4FE6
:1013000085B00D4616461F46DDE9129A059800F095
:1013100043FB002872D02846FEF726FFC0B28DF8A6
:1013200004003046FEF720FFC0B28DF805003846B5
:10133000FEF71AFFC0B28DF806004846FEF714FF0C
:10134000C0B28DF807005046FEF70EFFC0B28DF810
:1013500008009DF804B0012408E001A8005D58458C
:1013600002DD01A810F804B0601CC4B2052CF4DB47
:1013700000246FE04FF000085FE09DF80400A042F9
:1013800003DA00208DF80C0005E0285D4146FEF7E9
:1013900007FF8DF80C009DF80500A04203DA00203D
:1013A0008DF80D0005E0305D4146FEF7F9FE8DF841
:1013B0000D009DF80600A04203DA00208DF80E0013
:1013C00005E0385D4146FEF7EBFE8DF80E009DF816
:1013D0000700A04203DA00208DF80F0006E019F89C
:1013E00004004146FEF7DCFE8DF80F009DF8080072
:1013F000A04204DA00208DF8100007E02DE01AF872
:1014000004004146FEF7CCFE8DF810009DF8100058
:1014100000909DF80F309DF80E209DF80D109DF85E
:101420000C00FFF72DFF0E49096801EB4100FFF7A3
:101430001DF808F1010000F0FF08B8F1050F9CDB72
:10144000FFF704F80649096801EB8100FFF70EF881
:10145000601CC4B25C458DDB00BF09B0BDE8F08FF5
:101460000C00002010B54FF4007000F011F830B1FE
:101470000020034908604FF4007000F003F810BD2D
:101480000800002001490860704700001404014072
:10149000014600200022074B1B6803EA0102054BAE
:1014A00014331B680B4013B10AB1012000E0002087
:1014B0007047000000040140002123498279002A7E
:1014C0003AD00A46126803689A430B461A600A1D0E
:1014D000126803689A430B1D1A60027911440A6866
:1014E00003681A430A60184A0832126803689A436C
:1014F000154B08331A601A1D126803689A43124B81
:101500000C331A604279102A0ED11A1F1268036830
:101510001A430D4B08331A601A1D126803681A43E8
:10152000094B0C331A600DE00749427911440A68EF
:1015300003681A430A6005E0027911440A680368E7
:101540009A430A60704700000004014030B5002251
:101550008B071C0F0F2303FA04F20B4B8C1053F86C
:1015600024309343084C8D1044F8253023468C10CA
:1015700053F824308C07240F00FA04F42343024C60
:101580008D1044F8253030BD080001402DE9F041B0
:10159000024600250026002000230024002791F8A1
:1015A00003C00CF00F0591F803C00CF0100CBCF157
:1015B000000F03D091F802C04CEA050591F800C075
:1015C000BCF1000F31D0146800202BE04FF0010C6B
:1015D0000CFA00F3B1F800C00CEA03069E4220D1D9
:1015E00083004FF00F0C0CFA03F7BC4305FA03FC21
:1015F0004CEA040491F803C0BCF1280F06D14FF067
:10160000010C0CFA00FCC2F814C00AE091F803C007
:10161000BCF1480F05D14FF0010C0CFA00FCC2F8E8
:1016200010C0401C0828D1D31460B1F800C0BCF130
:10163000FF0F34DD546800202EE000F1080C4FF05D
:10164000010808FA0CF3B1F800C00CEA03069E4248
:1016500021D183004FF00F0C0CFA03F7BC4305FABD
:1016600003FC4CEA040491F803C0BCF1280F05D137
:1016700000F1080C08FA0CF8C2F8148091F803C0C5
:10168000BCF1480F07D100F1080C4FF0010808FA2F
:101690000CF8C2F81080401C0828CED35460BDE876
:1016A000F081416170470161704700BFFEE70000B3
:1016B00008B50121042000F0E1F80121082000F024
:1016C000DDF81E20ADF8000010208DF80300032087
:1016D0008DF8020069461148FFF758FF4FF400707B
:1016E000ADF8000004208DF8030003208DF80200FF
:1016F00069460B48FFF74AFF02210848FFF7D1FF70
:1017000004210648FFF7CDFF08210448FFF7C9FF71
:1017100010210248FFF7C7FF08BD00000008014084
:10172000000C01400EB50121084600F0A7F8092180
:101730000120FFF70BFF4FF40070FFF7A3FE4FF4FB
:101740000070019000208DF808000C208DF8090031
:1017500001208DF80A0001A8FFF7AEFE17208DF8D2
:10176000000000208DF801008DF8020001208DF8A6
:101770000300684600F038F80EBD1FB50121084689
:1017800000F06CF80121022000F068F81820ADF894
:1017900004004720ADF808000020ADF8060001A9BC
:1017A0004FF0804000F08EF90121880700F05EF9CB
:1017B00001221146900700F07CF91C208DF80000F2
:1017C00001208DF8010000208DF8020001208DF825
:1017D0000300684600F008F80121880700F04CF982
:1017E0001FBD00BFFEE7704770B5002100230F2228
:1017F000C47804B3154C246804F4E064C4F5E064D0
:10180000210AC1F10403CA40447804FA03F1847840
:101810001440214309010E4C0678A155047804F0C8
:101820001F050124AC4005786D11AD0005F1E025E0
:10183000C5F8004109E0047804F01F050124AC401C
:10184000044D0678761145F8264070BD0CED00E099
:1018500000E400E080E100E07047000029B1064AA2
:10186000D2690243044BDA6104E0034AD26982433D
:10187000014BDA61704700000010024029B1064AAE
:1018800092690243044B9A6104E0034A92698243DD
:10189000014B9A6170470000001002407047000041
:1018A000082002490860091F0860704714080140B9
:1018B00010B500F001F810BD0CB5002001900090AB
:1018C0003348006840F480303149086000BF304838
:1018D000006800F4003000900198401C01900098CE
:1018E00018B90198B0F5A06FF1D12948006800F44B
:1018F000003010B10120009001E00020009000981D
:10190000012843D12348006840F0100021490860B5
:101910000846006820F0030008600846006840F0B0
:10192000020008601A484068194948600846406843
:1019300048600846406840F4806048600846406857
:1019400020F47C1048600846406840F4E810486085
:101950000846006840F08070086000BF0C480068CE
:1019600000F000700028F9D00948406820F003001A
:10197000074948600846406840F00200486000BFE0
:101980000348406800F00C000828F9D10CBD0000A5
:10199000001002400020024001460A480068484307
:1019A000094A126890420BD3064800684843064A29
:1019B0001268044B1B681A44904201D801207047FA
:1019C0000020FCE70C0000200800002010B51348A0
:1019D000006840F00100114908600846406810495D
:1019E00008400E494860084600680E4908400B4907
:1019F00008600846006820F48020086008464068B7
:101A000020F4FE0048604FF41F008860FFF750FF8D
:101A10004FF000600449086010BD00000010024053
:101A20000000FFF8FFFFF6FE08ED00E010B5012111
:101A3000880700F02DF890B109480068401C08495B
:101A4000086008480068401E0649086006480068AB
:101A5000401E054908600121880700F00AF810BD02
:101A6000080000200400002000000020CA43028279
:101A70007047CA430282704721B1028842F00102D6
:101A8000028004E002884FF6FE731A40028070471D
:101A900030B50246002000230024158A05EA010320
:101AA000958905EA010413B10CB1012000E0002082
:101AB00030BD1AB183890B43838102E083898B4354
:101AC00083817047002202881D4B98420ED01D4B27
:101AD00098420BD0B0F1804F08D01B4B984205D0F4
:101AE0001A4B984202D01A4B984204D14FF68F738A
:101AF0001A404B881A43174B984207D0164B98420E
:101B000004D04FF6FF431A40CB881A4302808B88DB
:101B100083850B8803850A4B98420BD0094B98426A
:101B200008D00E4B984205D00D4B984202D00D4B79
:101B3000984201D10B7A038601238382704700000B
:101B4000002C014000340140000400400008004027
:101B5000000C004000100040001400400040014014
:101B6000004401400048014000BFFEE702E008C811
:101B7000121F08C1002AFAD170477047002001E007
:101B800001C1121F002AFBD1704700001CB5FFF7EE
:101B90008FFDFFF7F2FDFFF7C5FDBCE0FF20034618
:101BA000024601460090FFF76BFB5B48FEF75EFCC8
:101BB0000A2512E0FEF74AFC44F62060FEF756FCC8
:101BC000FF200346024601460090FFF759FB44F60A
:101BD0002060FEF74BFC681EC5B2002DEAD100BFA5
:101BE0002DE04E4C11E00020FFF7D6FE30B1FF2073
:101BF0000346024601460090FFF742FBB420FFF780
:101C0000CBFE08B1FEF722FC641E002CEBD1434C46
:101C100011E00020FFF7C0FE08B1FEF717FCB4206A
:101C2000FFF7BAFE30B1FF2003460246014600909E
:101C3000FFF726FB641E002CEBD1681CC5B20A2DF1
:101C4000CFDB002518E04FF4B97610E040F6C4145D
:101C50000AE0641E32A033A1CDE90010B0B233A374
:101C600034A22FA1FFF74AFB002CF2D1761EB6F565
:101C7000B97FEBD9681CC5B2052DE4DB002518E05F
:101C80004FF4B97610E040F6C4140AE0641E24A0B4
:101C90002AA1CDE90010B0B22AA32DA220A1FFF7FE
:101CA0002DFB002CF2D1761EB6F5B97FEBD9681C5E
:101CB000C5B2042DE4DB002511E04FF4B97609E04C
:101CC0004FF4FA6403E0641EB0B2FEF7D9FB002CB7
:101CD000F9D1761EB6F5B97FF2D9681CC5B2032DCD
:101CE000EBDB1E4C15E04FF4A070FFF79FF9FEF7F9
:101CF000ADFB3720FFF79AF9FEF7A8FB9120FFF71D
:101D000095F9FEF7A3FBEB20FFF790F9FEF79EFB9A
:101D1000641E002CE7D141E7F0490200400D0300AA
:101D20000000000020205549542000002020544F7E
:101D30002020000057454C434F4D450020202043B4
:101D400045454300454E47494E454552494E47009B
:101D500020434F4D5055544552000000801A060054
:101D6000801D000800000020100000006C1B00080F
:101D7000901D000810000020000400007C1B0008DB
:101D80000000000000000000000000000A00000049
:0400000508000145A9
:00000001FF
