:020000040800F2
:100000001804002045010008230B0008EF09000830
:100010001F0B00089D010008A50E0008000000004D
:10002000000000000000000000000000D90B0008E4
:100030007505000800000000950B00085D01000830
:100040005F0100085F0100085F0100085F01000810
:100050005F0100085F0100085F0100085F01000800
:100060005F0100085F0100085F0100085F010008F0
:100070005F0100085F0100085F0100085F010008E0
:100080005F0100085F0100085F0100085F010008D0
:100090005F0100085F0100085F01000879070008A0
:1000A0005F0100085F0100085F0100085F010008B0
:1000B000710D00085F0100085F0100085F01000882
:1000C0005F0100085F0100085F0100085F01000890
:1000D0005F0100085F0100085F0100085F01000880
:1000E0005F0100085F0100085F0100085F01000870
:1000F0005F0100085F0100085F0100085F01000860
:100100005F0100085F0100085F0100085F0100084F
:100110005F0100085F0100085F0100085F0100083F
:100120005F0100085F0100085F0100085F0100082F
:10013000DFF80CD000F020F800480047C90E000896
:10014000180400200648804706480047FEE7FEE7FF
:10015000FEE7FEE7FEE7FEE7FEE7FEE7FEE7FEE777
:10016000110D000831010008421C10F8011B002984
:10017000FBD1801A70470000064C074D06E0E0688E
:1001800040F0010394E8070098471034AC42F6D3DE
:10019000FFF7D2FF180F0008380F000800BFFEE776
:1001A0000CB50246A2F120003B2873D2DFE800F034
:1001B000D5F27272727272727272727272F17272BD
:1001C000DBE2F3FAEEEDECEBEAE972727272727254
:1001D000721E252C333A41484F565D646B737A8109
:1001E000888F969DA4ABB2B9C0C7CE008EA309CBB1
:1001F000CDE900031DF801000CBD8DA309CBCDE9AD
:1002000000031DF80100F7E78BA309CBCDE900033C
:100210001DF80100F0E78AA309CBCDE900031DF822
:100220000100E9E788A309CBCDE900031DF801002F
:10023000E2E787A309CBCDE900031DF80100DBE766
:1002400085A309CBCDE900031DF80100D4E784A301
:1002500009CBCDE900031DF80100CDE782A309CB4E
:10026000CDE900031DF80100C6E781A309CBCDE964
:1002700000031DF80100BFE77FA309CBCDE9000310
:100280001DF80100B8E77EA309CBCDE900031DF8F6
:100290000100B1E7C5E07CA309CBCDE900031DF85F
:1002A0000100A9E77AA309CBCDE900031DF80100FD
:1002B000A2E779A309CBCDE900031DF801009BE774
:1002C00077A309CBCDE900031DF8010094E776A3DD
:1002D00009CBCDE900031DF801008DE774A309CB1C
:1002E000CDE900031DF8010086E773A309CBCDE932
:1002F00000031DF801007FE771A309CBCDE90003DE
:100300001DF8010078E770A309CBCDE900031DF8C3
:10031000010071E76EA309CBCDE900031DF80100D0
:100320006AE76DA309CBCDE900031DF8010063E77F
:100330006BA309CBCDE900031DF801005CE76AA3BC
:1003400009CBCDE900031DF8010055E768A309CBEF
:10035000CDE900031DF801004EE700200090019058
:100360001DF8010048E764A309CBCDE900031DF89F
:10037000010041E762A309CBCDE900031DF80100AC
:100380003AE739E031E029E021E019E011E009E045
:1003900001E038E03EE05CA309CBCDE900031DF8A5
:1003A000010029E75AA309CBCDE900031DF801009C
:1003B00022E759A309CBCDE900031DF801001BE793
:1003C00057A309CBCDE900031DF8010014E756A39C
:1003D00009CBCDE900031DF801000DE754A309CBBB
:1003E000CDE900031DF8010006E753A309CBCDE9D1
:1003F00000031DF80100FFE651A309CBCDE900037E
:100400001DF80100F8E650A309CBCDE900031DF863
:100410000100F1E64EA309CBCDE900031DF8010070
:10042000EAE60020E8E600007E9090907E00000062
:10043000FE9292926C0000007C8282824400000056
:10044000FE8282827C000000FE9292928200000076
:10045000FE909090800000007C8292929C000000B0
:10046000FE101010FE0000008282FE82820000005A
:100470000C0202FC00000000FE1028448200000074
:10048000FE02020202000000FE403040FE000000BA
:10049000FE201008FE0000007C8282827C000000AA
:1004A000FE909090600000007C828A867E000000B2
:1004B000FE90989462000000729292928C0000006C
:1004C0008080FE8080000000FC020202FC00000030
:1004D000F8040204F8000000FE041804FE00000006
:1004E000C6281028C6000000C0201E20C000000042
:1004F000868A92A2C20000007CA2928A7C00000040
:100500000044FE020000000042868A926200000061
:10051000848292B2CC000000182848FF0800000036
:10052000E4A2A2A29C0000007C9292924C000000E7
:10053000808E90A0C00000006C9292926C0000002F
:10054000649292927C0000000810101010000000CD
:100550000000FA000000000000B510200449086007
:1005600000F03CFB10200249091F086000BD00009C
:1005700014080140704700000549096800EB51016B
:10058000044A116000BF034909680029FBD1704784
:1005900008000020000000202DE9F04107460C462D
:1005A00015461E46DDF81880384600F015F820463E
:1005B00000F012F8284600F00FF8304600F00CF872
:1005C000404600F009F8082002490860091F086049
:1005D000BDE8F0811408014010B5024680210020DA
:1005E00013E002EA01031BB10223094C236003E07C
:1005F0000223074C241D23600423054C241D236083
:10060000241F23604910431CD8B20828E9DB10BD21
:10061000100801402DE9FF4F85B00D4616461F46D4
:10062000DDE9129A059800F055FB002872D02846A3
:10063000FFF79AFDC0B28DF804003046FFF794FD35
:10064000C0B28DF805003846FFF78EFDC0B28DF8B8
:1006500006004846FFF788FDC0B28DF807005046F7
:10066000FFF782FDC0B28DF808009DF804B00124A8
:1006700008E001A8005D584502DD01A810F804B0AB
:10068000601CC4B2052CF4DB00246BE04FF00008C2
:100690005DE09DF80400A04203DA00208DF80C0014
:1006A00005E0285D4146FFF77BFD8DF80C009DF8C5
:1006B0000500A04203DA00208DF80D0005E0305D52
:1006C0004146FFF76DFD8DF80D009DF80600A04234
:1006D00003DA00208DF80E0005E0385D4146FFF793
:1006E0005FFD8DF80E009DF80700A04203DA0020A0
:1006F0008DF80F0006E019F804004146FFF750FDA1
:100700008DF80F009DF80800A04204DA00208DF853
:10071000100007E029E01AF804004146FFF740FD09
:100720008DF810009DF8100000909DF80F309DF896
:100730000E209DF80D109DF80C00FFF72DFF0D48C1
:100740000068FFF719FF08F1010000F0FF08B8F199
:10075000050F9EDBFFF700FF06480068FFF70CFF60
:10076000601CC4B25C4591DB00BFFFF7F5FE09B029
:10077000BDE8F08F0800002010B54FF4007000F0C5
:1007800029F8C8B10D480078401C0C49087008468B
:1007900000780F2809DB0A480068B421B0FBF1F0AB
:1007A00008490860002005490870002004490860D5
:1007B0004FF4007000F008F810BD00000C0000209D
:1007C0000400002008000020014908607047000074
:1007D00014040140014600200022074B1B6803EA75
:1007E0000102054B14331B680B4013B10AB1012001
:1007F00000E0002070470000000401400021234970
:100800008279002A3AD00A46126803689A430B4656
:100810001A600A1D126803689A430B1D1A60027958
:1008200011440A6803681A430A60184A08321268B9
:1008300003689A43154B08331A601A1D126803683F
:100840009A43124B0C331A604279102A0ED11A1FA8
:10085000126803681A430D4B08331A601A1D126898
:1008600003681A43094B0C331A600DE007494279BB
:1008700011440A6803681A430A6005E002791144CA
:100880000A6803689A430A60704700000004014048
:1008900030B500228B071C0F0F2303FA04F20B4B19
:1008A0008C1053F824309343084C8D1044F82530B5
:1008B00023468C1053F824308C07240F00FA04F4DC
:1008C0002343024C8D1044F8253030BD0800014010
:1008D0002DE9F041024600250026002000230024D7
:1008E000002791F803C00CF00F0591F803C00CF03D
:1008F000100CBCF1000F03D091F802C04CEA0505C2
:1009000091F800C0BCF1000F31D0146800202BE03A
:100910004FF0010C0CFA00F3B1F800C00CEA03062A
:100920009E4220D183004FF00F0C0CFA03F7BC431A
:1009300005FA03FC4CEA040491F803C0BCF1280F4B
:1009400006D14FF0010C0CFA00FCC2F814C00AE00A
:1009500091F803C0BCF1480F05D14FF0010C0CFA1F
:1009600000FCC2F810C0401C0828D1D31460B1F8B4
:1009700000C0BCF1FF0F34DD546800202EE000F110
:10098000080C4FF0010808FA0CF3B1F800C00CEAAB
:1009900003069E4221D183004FF00F0C0CFA03F79F
:1009A000BC4305FA03FC4CEA040491F803C0BCF113
:1009B000280F05D100F1080C08FA0CF8C2F81480D1
:1009C00091F803C0BCF1480F07D100F1080C4FF0BB
:1009D000010808FA0CF8C2F81080401C0828CED391
:1009E0005460BDE8F081416170470161704700BF0C
:1009F000FEE7000008B50121042000F0DDF8012128
:100A0000082000F0D9F81E20ADF8000010208DF865
:100A1000030003208DF8020069461148FFF758FFD4
:100A20004FF40070ADF8000004208DF8030003209F
:100A30008DF8020069460B48FFF74AFF022108487B
:100A4000FFF7D1FF04210648FFF7CDFF0821044836
:100A5000FFF7C9FF10210248FFF7C7FF08BD0000DC
:100A600000080140000C01400EB50121084600F0CD
:100A7000A3F809210120FFF70BFF4FF40070FFF7E7
:100A8000A3FE4FF40070019000208DF808000C20A8
:100A90008DF8090001208DF80A0001A8FFF7AEFECD
:100AA00017208DF8000000208DF801008DF802005D
:100AB00001208DF80300684600F034F80EBD1FB524
:100AC0000121084600F068F80920ADF8040047202D
:100AD000ADF808000020ADF8060001A94FF08040F5
:100AE00000F08EF90121880700F05EF9012211461D
:100AF000900700F07CF91C208DF8000001208DF893
:100B0000010000208DF8020001208DF803006846E6
:100B100000F008F80121880700F04CF91FBD00BF64
:100B2000FEE7704770B5002100230F22C47804B39C
:100B3000154C246804F4E064C4F5E064210AC1F1B2
:100B40000403CA40447804FA03F184781440214332
:100B500009010E4C0678A155047804F01F05012404
:100B6000AC4005786D11AD0005F1E025C5F80041F8
:100B700009E0047804F01F050124AC40044D067818
:100B8000761145F8264070BD0CED00E000E400E071
:100B900080E100E07047000029B1064AD2690243B3
:100BA000044BDA6104E0034AD2698243014BDA6103
:100BB000704700000010024029B1064A92690243C2
:100BC000044B9A6104E0034A92698243014B9A61A3
:100BD00070470000001002407047000008200249E2
:100BE0000860091F086070471408014010B500F044
:100BF00001F810BD0CB5002001900090334800684A
:100C000040F480303149086000BF3048006800F48B
:100C1000003000900198401C0190009818B901988C
:100C2000B0F5A06FF1D12948006800F4003010B190
:100C30000120009001E0002000900098012843D19D
:100C40002348006840F01000214908600846006809
:100C500020F0030008600846006840F002000860C9
:100C60001A48406819494860084640684860084684
:100C7000406840F4806048600846406820F47C107A
:100C800048600846406840F4E8104860084600683C
:100C900040F08070086000BF0C48006800F00070F1
:100CA0000028F9D00948406820F00300074948604F
:100CB0000846406840F00200486000BF03484068B2
:100CC00000F00C000828F9D10CBD00000010024013
:100CD000002002400146B42048434FF4B47290FB18
:100CE000F2F0094A1288504381B2084800688842ED
:100CF00008D806480068044A12681044884201D3A4
:100D0000012070470020FCE70800002004000020BC
:100D100010B51348006840F001001149086008460A
:100D20004068104908400E494860084600680E496E
:100D300008400B4908600846006820F480200860DD
:100D40000846406820F4FE0048604FF41F008860A9
:100D5000FFF74CFF4FF000600449086010BD000031
:100D6000001002400000FFF8FFFFF6FE08ED00E073
:100D700010B50121880700F029F880B10848006803
:100D8000401C074908600748006820B10548006812
:100D9000401E044908600121880700F008F810BDD2
:100DA0000400002000000020CA4302827047CA43AA
:100DB0000282704721B1028842F00102028004E001
:100DC00002884FF6FE731A400280704730B5024623
:100DD000002000230024158A05EA0103958905EA0D
:100DE000010413B10CB1012000E0002030BD1AB1A4
:100DF00083890B43838102E083898B43838170471E
:100E0000002202881D4B98420ED01D4B98420BD0F9
:100E1000B0F1804F08D01B4B984205D01A4B984236
:100E200002D01A4B984204D14FF68F731A404B8868
:100E30001A43174B984207D0164B984204D04FF6EE
:100E4000FF431A40CB881A4302808B8883850B8826
:100E500003850A4B98420BD0094B984208D00E4BA1
:100E6000984205D00D4B984202D00D4B984201D1CB
:100E70000B7A03860123838270470000002C014017
:100E8000003401400004004000080040000C004015
:100E900000100040001400400040014000440140A8
:100EA0000048014000BFFEE702E008C8121F08C169
:100EB000002AFAD170477047002001E001C1121FDB
:100EC000002AFBD1704700001CB5FFF793FDFFF728
:100ED000F6FDFFF7C9FD00BFFF20034602460146AD
:100EE0000090FFF759FB00BF074800681428FBD9A2
:100EF00009E006A005A106A304A2CDE9001003A104
:100F00000020FFF787FBF4E7080000200000000046
:100F100048454C4C4F000000380F000800000020EE
:100F200014000000A80E00084C0F00081400002058
:100F300004040000B80E00080000000000000000DB
:0C0F4000000000000000000000000000A5
:0400000508000145A9
:00000001FF
