:020000040800F2
:100000001804002045010008D71200089B110008C1
:10001000D31200089D0100085916000800000000D6
:100020000000000000000000000000008D13000828
:100030007505000800000000491300085D01000874
:100040005F0100085F0100085F0100085F01000810
:100050005F0100085F0100085F0100085F01000800
:100060005F0100085F0100085F0100085F010008F0
:100070005F0100085F0100085F0100085F010008E0
:100080005F0100085F0100085F0100085F010008D0
:100090005F0100085F0100085F010008250F0008EC
:1000A0005F0100085F0100085F0100085F010008B0
:1000B000251500085F0100085F0100085F010008C6
:1000C0005F0100085F0100085F0100085F01000890
:1000D0005F0100085F0100085F0100085F01000880
:1000E0005F0100085F0100085F0100085F01000870
:1000F0005F0100085F0100085F0100085F01000860
:100100005F0100085F0100085F0100085F0100084F
:100110005F0100085F0100085F0100085F0100083F
:100120005F0100085F0100085F0100085F0100082F
:10013000DFF80CD000F020F8004800477D160008DA
:10014000180400200648804706480047FEE7FEE7FF
:10015000FEE7FEE7FEE7FEE7FEE7FEE7FEE7FEE777
:10016000C514000831010008421C10F8011B0029C9
:10017000FBD1801A70470000064C074D06E0E0688E
:1001800040F0010394E8070098471034AC42F6D3DE
:10019000FFF7D2FF541900087419000800BFFEE7EA
:1001A0000CB50246A2F120003B2873D2DFE800F034
:1001B000D5F27272727272727272727272F17272BD
:1001C000DBE2F3FAEEEDECEBEAE972727272727254
:1001D000721E252C333A41484F565D646B737A8109
:1001E000888F969DA4ABB2B9C0C7CE008EA309CBB1
:1001F000CDE900031DF801000CBD8DA309CBCDE9AD
:1002000000031DF80100F7E78BA309CBCDE900033C
:100210001DF80100F0E78AA309CBCDE900031DF822
:100220000100E9E788A309CBCDE900031DF801002F
:10023000E2E787A309CBCDE900031DF80100DBE766
:1002400085A309CBCDE900031DF80100D4E784A301
:1002500009CBCDE900031DF80100CDE782A309CB4E
:10026000CDE900031DF80100C6E781A309CBCDE964
:1002700000031DF80100BFE77FA309CBCDE9000310
:100280001DF80100B8E77EA309CBCDE900031DF8F6
:100290000100B1E7C5E07CA309CBCDE900031DF85F
:1002A0000100A9E77AA309CBCDE900031DF80100FD
:1002B000A2E779A309CBCDE900031DF801009BE774
:1002C00077A309CBCDE900031DF8010094E776A3DD
:1002D00009CBCDE900031DF801008DE774A309CB1C
:1002E000CDE900031DF8010086E773A309CBCDE932
:1002F00000031DF801007FE771A309CBCDE90003DE
:100300001DF8010078E770A309CBCDE900031DF8C3
:10031000010071E76EA309CBCDE900031DF80100D0
:100320006AE76DA309CBCDE900031DF8010063E77F
:100330006BA309CBCDE900031DF801005CE76AA3BC
:1003400009CBCDE900031DF8010055E768A309CBEF
:10035000CDE900031DF801004EE700200090019058
:100360001DF8010048E764A309CBCDE900031DF89F
:10037000010041E762A309CBCDE900031DF80100AC
:100380003AE739E031E029E021E019E011E009E045
:1003900001E038E03EE05CA309CBCDE900031DF8A5
:1003A000010029E75AA309CBCDE900031DF801009C
:1003B00022E759A309CBCDE900031DF801001BE793
:1003C00057A309CBCDE900031DF8010014E756A39C
:1003D00009CBCDE900031DF801000DE754A309CBBB
:1003E000CDE900031DF8010006E753A309CBCDE9D1
:1003F00000031DF80100FFE651A309CBCDE900037E
:100400001DF80100F8E650A309CBCDE900031DF863
:100410000100F1E64EA309CBCDE900031DF8010070
:10042000EAE60020E8E600007E9090907E00000062
:10043000FE9292926C0000007C8282824400000056
:10044000FE8282827C000000FE9292928200000076
:10045000FE909090800000007C8292929C000000B0
:10046000FE101010FE0000008282FE82820000005A
:100470000C0202FC00000000FE1028448200000074
:10048000FE02020202000000FE403040FE000000BA
:10049000FE201008FE0000007C8282827C000000AA
:1004A000FE909090600000007C828A867E000000B2
:1004B000FE90989462000000729292928C0000006C
:1004C0008080FE8080000000FC020202FC00000030
:1004D000F8040204F8000000FE041804FE00000006
:1004E000C6281028C6000000C0201E20C000000042
:1004F000868A92A2C20000007CA2928A7C00000040
:100500000044FE020000000042868A926200000061
:10051000848292B2CC000000182848FF0800000036
:10052000E4A2A2A29C0000007C9292924C000000E7
:10053000808E90A0C00000006C9292926C0000002F
:10054000649292927C0000000810081010000000D5
:100550000000FA000000000000B510200449086007
:1005600000F016FF10200249091F086000BD0000BE
:1005700014080140704700000549096800EB51016B
:10058000044A116000BF034909680029FBD1704784
:1005900008000020000000202DE9F04107460C462D
:1005A00015461E46DDF81880384600F0EBFB204665
:1005B00000F0E8FB284600F0E5FB304600F0E2FBE7
:1005C000404600F0DFFB082002490860091F086070
:1005D000BDE8F0811408014018B50446204600F03B
:1005E00053FF00287ED00020FC23024601460090E5
:1005F000FFF7D2FFB9480068FFF7BEFF0020FE23D7
:10060000032201460090FFF7C7FFB4480068FFF7D8
:10061000B3FF0020FF230F2201460090FFF7BCFF2D
:10062000AE480068FFF7A8FF00200F235E220146B6
:100630000090FFF7B1FFA9480068FFF79DFF8020F9
:100640000323B822322100900020FFF7A5FFA34822
:100650000068FFF791FF802003236022F5210090BE
:100660000020FFF799FF9D480068FFF785FF802075
:100670004123C022EA2100900120FFF78DFF974817
:100680000068FFF779FF802060238C22952100907D
:100690000320FFF781FF91480068FFF76DFF80207E
:1006A00031230C222B2100900320FFF775FF8B488C
:1006B0000068FFF761FF8020B123002256210090DF
:1006C0000720FFF769FF85480068FFF755FF802086
:1006D00099236622542100900620FFF75DFF7F4892
:1006E000006800E0F8E0FFF747FF0020D923D6229A
:1006F000A82100900620FFF74FFF78480068FFF719
:100700003BFF00206D23B422592100900120FFF708
:1007100043FF72480068FFF72FFF00203D2370223F
:10072000512100900120FFF737FF6C480068FFF768
:1007300023FF00200D23F822A02100900220FFF7C4
:100740002BFF66480068FFF717FF00203D2370224B
:10075000A12100900220FFF71FFF60480068FFF70B
:100760000BFF00206D23B422412100900120FFF7F0
:1007700013FF5A480068FFF7FFFE0020DA23D62255
:10078000402100900120FFF707FF54480068FFF761
:10079000F3FE00209823662280210090FFF7FCFEE4
:1007A0004E480068FFF7E8FE0020B0230246802193
:1007B0000090FFF7F1FE49480068FFF7DDFE0020DA
:1007C00030230C2280210090FFF7E6FE43480068AA
:1007D000FFF7D2FE002060230C22C0210090FFF71B
:1007E000DBFE3E480068FFF7C7FE002040230246BC
:1007F000A02100900120FFF7CFFE38480068FFF7E6
:10080000BBFE002080230122102100901046FFF73C
:10081000C3FE32480068FFF7AFFE00200346022205
:10082000082100900120FFF7B7FE2C480068FFF771
:10083000A3FE002003461C22872100900120FFF721
:10084000ABFE26480068FFF797FE00200346E02233
:10085000C02100900320FFF79FFE20480068FFF7AB
:100860008BFE002003460246C02100900320FFF7C4
:1008700093FE1A480068FFF77FFE002003460246F9
:10088000802100900120FFF787FE14480068FFF7E1
:1008900073FE00200346302280210090FFF77CFE8B
:1008A0000E480068FFF768FE00200346C022612161
:1008B0000090FFF771FE09480068FFF75DFE002019
:1008C000034602463E210090FFF766FE034800689B
:1008D000FFF752FEFFF740FE18BD000008000020A1
:1008E00018B50446204600F0CFFD00287ED0002039
:1008F00003460246014600900220FFF74DFEFE48E7
:100900000068FFF739FE00200346024601460090CA
:100910000320FFF741FEF8480068FFF72DFE002096
:1009200003460246802100900320FFF735FEF2487F
:100930000068FFF721FE002003460246E0210090F8
:100940000320FFF729FEEC480068FFF715FE0020A2
:1009500003460246F02100900120FFF71DFEE64805
:100960000068FFF709FE002003460246F8210090C8
:10097000FFF712FEE0480068FFF7FEFD0020034687
:1009800002467C210090FFF707FEDB480068FFF776
:10099000F3FD0020034602463F2100900220FFF7AE
:1009A000FBFDD5480068FFF7E7FD002003468022E5
:1009B0000F2100900320FFF7EFFDCF480068FFF7FD
:1009C000DBFD00200346E022872100900320FFF793
:1009D000E3FDC9480068FFF7CFFD00200346F02281
:1009E000C32100900320FFF7D7FD00E0C6E1C24815
:1009F0000068FFF7C1FD00200346FC22F0210090B3
:100A00000120FFF7C9FDBC480068FFF7B5FD0020D5
:100A100003467E22F8210090FFF7BEFDB64800682D
:100A2000FFF7AAFD002080231F227E210090FFF700
:100A3000B3FDB1480068FFF79FFD0020C0230F22DF
:100A40003F210090FFF7A8FDAB480068FFF794FD39
:100A50000020F023C3220F2100900220FFF79CFD0D
:100A6000A5480068FFF788FD0020F823E122072150
:100A700000900320FFF790FD9F480068FFF77CFD82
:100A800000207E23F822C12100900320FFF784FD7F
:100A900099480068FFF770FD00203E23FC22E0210A
:100AA00000900320FFF778FD93480068FFF764FD8E
:100AB00000200D233E22F82100900120FFF76CFD5D
:100AC0008D480068FFF758FD002083231F22FC217A
:100AD0000090FFF761FD88480068FFF74DFD00209A
:100AE000C72307223F210090FFF756FD8248006888
:100AF000FFF742FD0020EF2383221F2100900220F8
:100B0000FFF74AFD7C480068FFF736FD0020DE2332
:100B1000E122072100900320FFF73EFD76480068A0
:100B2000FFF72AFD0020BC23F022C3210090032000
:100B3000FFF732FD70480068FFF71EFD00207823A4
:100B4000FC22E02100900320FFF726FD6A480068A0
:100B5000FFF712FD002070237E22F8210090012073
:100B6000FFF71AFD64480068FFF706FD00207023B8
:100B70001D22FC210090FFF70FFD5F480068FFF782
:100B8000FBFC002070230B223F2100900220FFF786
:100B900003FD59480068FFF7EFFC0020702387220F
:100BA0001F2100900320FFF7F7FC53480068FFF770
:100BB000E3FC00207023E7228F2100900320FFF741
:100BC000EBFC4D480068FFF7D7FC00207023D722CC
:100BD000C32100900320FFF7DFFC47480068FFF7C0
:100BE000CBFC00207023B722E12100900320FFF707
:100BF000D3FC41480068FFF7BFFC00207023772238
:100C0000F02100900120FFF7C7FC3B480068FFF788
:100C1000B3FC002070237722F8210090FFF7BCFC82
:100C200035480068FFF7A8FC0020702377227D215B
:100C30000090FFF7B1FC30480068FFF79DFC0020F2
:100C4000702377223B210090FFF7A6FC2A4800681A
:100C5000FFF792FC00207023772217210090FFF706
:100C60009BFC25480068FFF787FC00207023772253
:100C700007210090FFF790FC1F480068FFF77CFCFD
:100C800000207023772207210090FFF785FC1A4887
:100C90000068FFF771FC0020702377220721009085
:100CA000FFF77AFC14480068FFF766FC0020702309
:100CB000772217210090FFF76FFC0F480068FFF7BD
:100CC0005BFC00207023772237210090FFF764FC43
:100CD00009480068FFF750FC002070237722372175
:100CE0000090FFF759FC04480068FFF745FC00201E
:100CF00070237722114601E0080000200090FFF7E2
:100D00004BFC1F480068FFF737FC00207023772258
:100D100011460090FFF740FC19480068FFF72CFCD3
:100D200000207023772211460090FFF735FC14480D
:100D30000068FFF721FC0020702377221146009005
:100D4000FFF72AFC0E480068FFF716FC002070230E
:100D5000772211460090FFF71FFC09480068FFF753
:100D60000BFC00207023772211460090FFF714FC43
:100D700003480068FFF700FCFFF7EEFB18BD00001A
:100D80000800002010B502468021002013E002EA8E
:100D900001031BB10223094C236003E00223074C2B
:100DA000241D23600423054C241D2360241F23607D
:100DB0004910431CD8B20828E9DB10BD10080140D7
:100DC0002DE9FF4F85B00D4616461F46DDE9129A04
:100DD000059800F059FB002872D02846FFF7C4F9A7
:100DE000C0B28DF804003046FFF7BEF9C0B28DF8EE
:100DF00005003846FFF7B8F9C0B28DF8060048463E
:100E0000FFF7B2F9C0B28DF807005046FFF7ACF912
:100E1000C0B28DF808009DF804B0012408E001A8D4
:100E2000005D584502DD01A810F804B0601CC4B292
:100E3000052CF4DB00246BE04FF000085DE09DF82A
:100E40000400A04203DA00208DF80C0005E0285DC4
:100E50004146FFF7A5F98DF80C009DF80500A0426A
:100E600003DA00208DF80D0005E0305D4146FFF704
:100E700097F98DF80D009DF80600A04203DA0020D6
:100E80008DF80E0005E0385D4146FFF789F98DF8D1
:100E90000E009DF80700A04203DA00208DF80F0035
:100EA00006E019F804004146FFF77AF98DF80F00C3
:100EB0009DF80800A04204DA00208DF8100007E039
:100EC00029E01AF804004146FFF76AF98DF810008E
:100ED0009DF8100000909DF80F309DF80E209DF8B1
:100EE0000D109DF80C00FFF757FB0D480068FFF749
:100EF00043FB08F1010000F0FF08B8F1050F9EDB8D
:100F0000FFF72AFB06480068FFF736FB601CC4B2F7
:100F10005C4591DB00BFFFF71FFB09B0BDE8F08F18
:100F20000800002010B54FF4007000F029F8C8B197
:100F30000D480078401C0C490870084600780F28BE
:100F400009DB0A480068B421B0FBF1F008490860E9
:100F50000020054908700020044908604FF4007023
:100F600000F008F810BD00000C0000200400002074
:100F70000800002001490860704700001404014087
:100F8000014600200022074B1B6803EA0102054BC3
:100F900014331B680B4013B10AB1012000E000209C
:100FA0007047000000040140002123498279002A93
:100FB0003AD00A46126803689A430B461A600A1D23
:100FC000126803689A430B1D1A60027911440A687B
:100FD00003681A430A60184A0832126803689A4381
:100FE000154B08331A601A1D126803689A43124B96
:100FF0000C331A604279102A0ED11A1F1268036846
:101000001A430D4B08331A601A1D126803681A43FD
:10101000094B0C331A600DE00749427911440A6804
:1010200003681A430A6005E0027911440A680368FC
:101030009A430A60704700000004014030B5002266
:101040008B071C0F0F2303FA04F20B4B8C1053F881
:1010500024309343084C8D1044F8253023468C10DF
:1010600053F824308C07240F00FA04F42343024C75
:101070008D1044F8253030BD080001402DE9F041C5
:10108000024600250026002000230024002791F8B6
:1010900003C00CF00F0591F803C00CF0100CBCF16C
:1010A000000F03D091F802C04CEA050591F800C08A
:1010B000BCF1000F31D0146800202BE04FF0010C80
:1010C0000CFA00F3B1F800C00CEA03069E4220D1EE
:1010D00083004FF00F0C0CFA03F7BC4305FA03FC36
:1010E0004CEA040491F803C0BCF1280F06D14FF07C
:1010F000010C0CFA00FCC2F814C00AE091F803C01D
:10110000BCF1480F05D14FF0010C0CFA00FCC2F8FD
:1011100010C0401C0828D1D31460B1F800C0BCF145
:10112000FF0F34DD546800202EE000F1080C4FF072
:10113000010808FA0CF3B1F800C00CEA03069E425D
:1011400021D183004FF00F0C0CFA03F7BC4305FAD2
:1011500003FC4CEA040491F803C0BCF1280F05D14C
:1011600000F1080C08FA0CF8C2F8148091F803C0DA
:10117000BCF1480F07D100F1080C4FF0010808FA44
:101180000CF8C2F81080401C0828CED35460BDE88B
:10119000F081416170470161704700BFFEE70000C8
:1011A00008B50121042000F0E1F80121082000F039
:1011B000DDF81E20ADF8000010208DF8030003209C
:1011C0008DF8020069461148FFF758FF4FF4007090
:1011D000ADF8000004208DF8030003208DF8020014
:1011E00069460B48FFF74AFF02210848FFF7D1FF85
:1011F00004210648FFF7CDFF08210448FFF7C9FF87
:1012000010210248FFF7C7FF08BD00000008014099
:10121000000C01400EB50121084600F0A7F8092195
:101220000120FFF70BFF4FF40070FFF7A3FE4FF410
:101230000070019000208DF808000C208DF8090046
:1012400001208DF80A0001A8FFF7AEFE17208DF8E7
:10125000000000208DF801008DF8020001208DF8BB
:101260000300684600F038F80EBD1FB5012108469E
:1012700000F06CF80121022000F068F80920ADF8B8
:1012800004004720ADF808000020ADF8060001A9D1
:101290004FF0804000F08EF90121880700F05EF9E0
:1012A00001221146900700F07CF91C208DF8000007
:1012B00001208DF8010000208DF8020001208DF83A
:1012C0000300684600F008F80121880700F04CF997
:1012D0001FBD00BFFEE7704770B5002100230F223D
:1012E000C47804B3154C246804F4E064C4F5E064E5
:1012F000210AC1F10403CA40447804FA03F1847856
:101300001440214309010E4C0678A155047804F0DD
:101310001F050124AC4005786D11AD0005F1E025F5
:10132000C5F8004109E0047804F01F050124AC4031
:10133000044D0678761145F8264070BD0CED00E0AE
:1013400000E400E080E100E07047000029B1064AB7
:10135000D2690243044BDA6104E0034AD269824352
:10136000014BDA61704700000010024029B1064AC3
:1013700092690243044B9A6104E0034A92698243F2
:10138000014B9A6170470000001002407047000056
:10139000082002490860091F0860704714080140CE
:1013A00010B500F001F810BD0CB5002001900090C0
:1013B0003348006840F480303149086000BF30484D
:1013C000006800F4003000900198401C01900098E3
:1013D00018B90198B0F5A06FF1D12948006800F460
:1013E000003010B10120009001E000200090009832
:1013F000012843D12348006840F0100021490860CB
:101400000846006820F0030008600846006840F0C5
:10141000020008601A484068194948600846406858
:1014200048600846406840F480604860084640686C
:1014300020F47C1048600846406840F4E81048609A
:101440000846006840F08070086000BF0C480068E3
:1014500000F000700028F9D00948406820F003002F
:10146000074948600846406840F00200486000BFF5
:101470000348406800F00C000828F9D10CBD0000BA
:1014800000100240002002400146B42048434FF4BF
:10149000B47290FBF2F0094A1288504381B20848B6
:1014A0000068884208D806480068044A1268104458
:1014B000884201D3012070470020FCE7080000208B
:1014C0000400002010B51348006840F001001149E5
:1014D000086008464068104908400E4948600846C0
:1014E00000680E4908400B4908600846006820F46F
:1014F000802008600846406820F4FE0048604FF4F1
:101500001F008860FFF74CFF4FF00060044908603F
:1015100010BD0000001002400000FFF8FFFFF6FEC3
:1015200008ED00E010B50121880700F029F880B12E
:1015300008480068401C074908600748006820B157
:1015400005480068401E044908600121880700F032
:1015500008F810BD0400002000000020CA430282E9
:101560007047CA430282704721B1028842F00102EB
:10157000028004E002884FF6FE731A400280704732
:1015800030B50246002000230024158A05EA010335
:10159000958905EA010413B10CB1012000E0002097
:1015A00030BD1AB183890B43838102E083898B4369
:1015B00083817047002202881D4B98420ED01D4B3C
:1015C00098420BD0B0F1804F08D01B4B984205D009
:1015D0001A4B984202D01A4B984204D14FF68F739F
:1015E0001A404B881A43174B984207D0164B984223
:1015F00004D04FF6FF431A40CB881A4302808B88F1
:1016000083850B8803850A4B98420BD0094B98427F
:1016100008D00E4B984205D00D4B984202D00D4B8E
:10162000984201D10B7A0386012383827047000020
:10163000002C01400034014000040040000800403C
:10164000000C004000100040001400400040014029
:10165000004401400048014000BFFEE702E008C826
:10166000121F08C1002AFAD170477047002001E01C
:1016700001C1121F002AFBD1704700001CB5FFF703
:101680008FFDFFF7F2FDFFF7C5FD3FE1A04C0BE03A
:10169000A0A0A0A1A0A39FA2CDE900109DA14FF4FE
:1016A0009B70FFF78DFB641E002CF1D100261FE01C
:1016B0004FF49B7516E040F6B8340AE095A095A16A
:1016C000CDE90010A8B294A392A292A1FFF778FBF3
:1016D000641E40F6B8308442F0D9012D01D140F2A9
:1016E0006B156D1E40F237108542E4D1701CC6B2F6
:1016F000022EDDDB864C0BE086A086A189A38AA2A0
:10170000CDE9001083A14FF4AA70FFF759FB641EC6
:10171000002CF1D100261FE04FF4AA7516E041F22B
:1017200088340AE07BA07BA1CDE90010A8B27DA39C
:101730007DA278A1FFF744FB641E41F28830844209
:10174000F0D9012D01D140F26B156D1E40F25510FC
:101750008542E4D1701CC6B2022EDDDB734C04E07E
:101760004FF48C70FFF7BCF8641E002CF8D10026F3
:1017700019E04FF48C7510E041F2883403E0A8B210
:10178000FFF7AEF8641E41F288308442F7D940F288
:101790006B10854200D100256D1C40F21710854268
:1017A000EAD1701CC6B2022EE3DB604C04E04FF4B9
:1017B0008C70FFF795F8641E002CF8D1544C0BE0A8
:1017C00054A054A15AA35CA2CDE9001051A14FF43A
:1017D000A070FFF7F5FA641E002CF1D100261FE07F
:1017E0004FF4A07516E040F6B8340AE049A049A1CC
:1017F000CDE90010A8B24EA34FA246A1FFF7E0FA30
:10180000641E40F6B8308442F0D9012D01D140F277
:101810006B156D1E40F241108542E4D1701CC6B2BA
:10182000022EDDDB414C04E04FF4A070FEF7D4FE45
:10183000641E002CF8D1002619E04FF4A07510E0CA
:1018400041F2883403E0A8B2FEF7C6FE641E41F2FE
:1018500088308442F7D940F26B10854200D10025D0
:101860006D1C40F23F108542EAD1701CC6B2022EB8
:10187000E3DB2E4C04E04FF4A070FEF7ADFE641ED7
:10188000002CF8D1294C0BE022A022A12CA32EA2DF
:10189000CDE900101FA14FF4A570FFF791FA641E67
:1018A000002CF1D100261FE04FF4A57516E040F69C
:1018B000C4140AE017A017A1CDE90010A8B220A314
:1018C00021A214A1FFF77CFA641E40F6C4108442E2
:1018D000F0D9012D01D140F26B156D1E40F24B1075
:1018E0008542E4D1701CC6B2012EDDDB184C0BE042
:1018F00008A008A112A314A2CDE9001005A14FF47D
:10190000A570FFF75DFA641E002CF1D1BEE6000061
:10191000B0710B000000000057454C434F4D45216E
:101920000000000048434D00564E550040420F0055
:101930002055495400000000574520415245000001
:10194000434C554200000000434545430000000061
:1019500020A10700741900080000002014000000F6
:101960005C16000888190008140000200404000018
:101970006C160008000000000000000000000000DD
:0819800000000000000000005F
:0400000508000145A9
:00000001FF
