:020000040800F2
:1000000018040020450100085D140008FF120008D4
:10001000591400088D0100080518000800000000B0
:10002000000000000000000000000000151500089E
:100030009101000800000000D11400085D010008D3
:100040005F0100085F0100085F0100085F01000810
:100050005F0100085F0100085F0100085F01000800
:100060005F0100085F0100085F0100085F010008F0
:100070005F0100085F0100085F0100085F010008E0
:100080005F0100085F0100085F0100085F010008D0
:100090005F0100085F0100085F010008B910000857
:1000A0005F0100085F0100085F0100085F010008B0
:1000B000C91600085F0100085F0100085F01000821
:1000C0005F0100085F0100085F0100085F01000890
:1000D0005F0100085F0100085F0100085F01000880
:1000E0005F0100085F0100085F0100085F01000870
:1000F0005F0100085F0100085F0100085F01000860
:100100005F0100085F0100085F0100085F0100084F
:100110005F0100085F0100085F0100085F0100083F
:100120005F0100085F0100085F0100085F0100082F
:10013000DFF80CD000F018F8004800472718000836
:10014000180400200648804706480047FEE7FEE7FF
:10015000FEE7FEE7FEE7FEE7FEE7FEE7FEE7FEE777
:100160006916000831010008064C074D06E0E068FA
:1001700040F0010394E8070098471034AC42F6D3EE
:10018000FFF7DAFF441800086418000800BFFEE714
:100190007047000008B50020034602460146009063
:1001A00000F00CFFFE48006800EB4000FD490860CD
:1001B00000BFFC4800680028FBD103460246014608
:1001C000009000F0FBFEF648006800EB4000F549A7
:1001D000086000BFF34800680028FBD103460246D0
:1001E00060210090012000F0E9FEED48006800EB7E
:1001F0004000EC49086000BFEA4800680028FBD1D5
:1002000003460246E0210090012000F0D7FEE448BA
:10021000006800EB4000E349086000BFE148006867
:100220000028FBD103460246E0210090012000F0A7
:10023000C5FEDB48006800EB4000DA49086000BFFB
:10024000D84800680028FBD103460246C021009030
:10025000012000F0B3FED248006800EB4000D14915
:10026000086000BFCF4800680028FBD10346024663
:10027000C0210090012000F0A1FEC948006800EBF9
:100280004000C849086000BFC64800680028FBD18C
:1002900003460246C0210090012000F08FFEC048B6
:1002A000006800EB4000BF49086000BFBD4800681F
:1002B0000028FBD103460246C0210090012000F037
:1002C0007DFEB748006800EB4000B649086000BFFB
:1002D000B44800680028FBD103460246E0210090A4
:1002E00000F06CFEAE48006800EB4000AD490860CD
:1002F00000BFAC4800680028FBD103460246E0215D
:10030000009000F05BFEA648006800EB4000A549A5
:10031000086000BFA34800680028FBD103460246DE
:10032000F0210090012000F049FE9D48006800EB9C
:1003300040009C49086000BF9A4800680028FBD133
:1003400003460246F8210090012000F037FE944851
:10035000006800EB40009349086000BF91480068C6
:100360000028FBD103460246FF210090012000F047
:1003700025FE8B48006800EB40008A49086000BFFA
:10038000884800680028FBD103468022FF210090A6
:10039000012000F013FE8248006800EB4000814914
:1003A000086000BF7F4800680028FBD10346C022D8
:1003B000FF21009000F002FE7948006800EB400049
:1003C0007849086000BF774800680028FBD10346E1
:1003D000C022FF21009000F0F1FD7148006800EBA1
:1003E00040007049086000BF6E4800680028FBD1DB
:1003F0000346F022FF21009000F0E0FD684800680D
:1004000000EB40006749086000BF664800680028AC
:10041000FBD10346F822FF21009000F0CFFD604899
:10042000006800EB40005F49086000BF5D4800685D
:100430000028FBD10346FC22FF21009000F0BEFD06
:100440005748006800EB40005649086000BF554817
:1004500000680028FBD10346F422FF21009000F041
:10046000ADFD4F48006800EB40004E49086000BFFA
:100470004C4800680028FBD10346E422CF210090BD
:1004800000F09CFD4648006800EB400045490860CC
:1004900000BF444800680028FBD10346E6228F21B4
:1004A000009000F08BFD3E48006800EB40003D49A5
:1004B000086000BF3B4800680028FBD10346E222E9
:1004C0000F21009000F07AFD3548006800EB4000F5
:1004D0003449086000BF334800680028FBD130234E
:1004E000C1220721009000F069FD2D48006800EB53
:1004F00040002C49086000BF2A4800680028FBD152
:10050000F823C1220721009000F058FD244800681C
:1005100000EB40002349086000BF22480068002823
:10052000FBD13E20FC2380223F210090002000F0E0
:1005300045FD1B48006800EB40001A49086000BFF9
:10054000184800680028FBD1FC20FF2300223F212F
:100550000090104600F032FD1148006800EB4000AA
:100560001049086000BF0F4800680028FBD1F02048
:10057000FF2300221E210090104600F01FFD0848B6
:10058000006800EB40000749086000BF05480068AC
:100590000028FBD1E0207F2300221A21009003E0F5
:1005A0000C00002004000020202000F007FDFE4881
:1005B000006800EB4000FD49086000BFFB48006890
:1005C0000028FBD1C0207F2300220821009030208A
:1005D00000F0F4FCF448006800EB4000F3490860C8
:1005E00000BFF24800680028FBD180207F23002252
:1005F00008210090702000F0E1FCEB48006800EB5F
:100600004000EA49086000BFE84800680028FBD1C4
:1006100080201F23002204210090792000F0CEFCCE
:10062000E148006800EB4000E049086000BFDF4897
:1006300000680028FBD11E23024680210090FF2085
:1006400000F0BCFCD848006800EB4000D7490860C7
:1006500000BFD64800680028FBD11E230246C021F7
:100660000090FF2000F0AAFCCF48006800EB40009B
:10067000CE49086000BFCD4800680028FBD11C238C
:100680000246C02100907F2000F098FCC648006818
:1006900000EB4000C549086000BFC448006800285E
:1006A000FBD103460246014600907F2000F086FC05
:1006B000BD48006800EB4000BC49086000BFBB4873
:1006C00000680028FBD103460246014600903E2008
:1006D00000F074FCB448006800EB4000B3490860C7
:1006E00000BFB24800680028FBD10346024601461D
:1006F00000901C2000F062FCAB48006800EB40005A
:10070000AA49086000BFA94800680028FBD1034639
:10071000024601460090082000F050FCA248006804
:1007200000EB4000A149086000BFA0480068002815
:10073000FBD1034602460146009000F03FFC9A4878
:10074000006800EB40009949086000BF97480068C6
:100750000028FBD1034618220146009000F02EFC31
:100760009148006800EB40009049086000BF8F4846
:1007700000680028FBD103463C220146009000F0AF
:100780001DFC8948006800EB40008849086000BFF4
:10079000864800680028FBD10346FE220321009012
:1007A00000F00CFC8048006800EB40007F490860C6
:1007B00000BF7E4800680028FBD10346FE2262216C
:1007C000009000F0FBFB7848006800EB40007749A0
:1007D000086000BF754800680028FBD10346FE2270
:1007E0003E21009000F0EAFB6F48006800EB4000FB
:1007F0006E49086000BF6D4800680028FBD10346C1
:10080000FE220C21009000F0D9FB6748006800EB45
:1008100040006649086000BF644800680028FBD1BA
:100820000346FE229D21009000F0C8FB5E48006850
:1008300000EB40005D49086000BF5C48006800288C
:10084000FBD10346FF2298210090012000F0B6FB67
:100850005548006800EB40005449086000BF534809
:1008600000680028FBD190237F22D821009001202E
:1008700000F0A4FB4C48006800EB40004B490860C6
:1008800000BF4A4800680028FBD1FE237F22982140
:100890000090032000F092FB4348006800EB40000A
:1008A0004249086000BF414800680028FBD1FF238F
:1008B0007F221C210090022000F080FB3A48006853
:1008C00000EB40003949086000BF38480068002844
:1008D000FBD1FE237F22BC210090062000F06EFB9E
:1008E0003148006800EB40003049086000BF2F48E5
:1008F00000680028FBD1FE237F22FC210090072006
:1009000000F05CFB2848006800EB400027490860C5
:1009100000BF264800680028FBD1FC237F22FA2173
:100920000090052000F04AFB1F48006800EB4000E3
:100930001E49086000BF1D4800680028FBD1F02355
:100940005F22FA210090022000F038FB1648006870
:1009500000EB40001549086000BF144800680028FB
:10096000FBD1F023CF22FB210090022000F026FBD8
:100970000D48006800EB40000C49086000BF0B48C0
:1009800000680028FBD10346E722FF21009000F019
:1009900015FB0548006800EB40000449086000BFF3
:1009A00002480068002803E00C000020040000203A
:1009B000F6D10C23FA22FF210090012000F0FEFA6C
:1009C000FE48006800EB4000FD49086000BFFC489D
:1009D00000680028FBD11823BA22F92100900320D7
:1009E00000F0ECFAF548006800EB4000F4490860BC
:1009F00000BFF34800680028FBD10346D022F8214D
:100A00000090032000F0DAFAEC48006800EB4000A8
:100A1000EB49086000BFEA4800680028FBD10346A4
:100A2000D022FF210090032000F0C8FAE3480068BC
:100A300000EB4000E249086000BFE1480068002880
:100A4000FBD10346C022FF210090032000F0B6FA3C
:100A5000DA48006800EB4000D949086000BFD84878
:100A600000680028FBD10346C022FF21009003202C
:100A700000F0A4FAD148006800EB4000D0490860BB
:100A800000BFCF4800680028FBD10346C022FF21E9
:100A90000090032000F092FAC848006800EB400084
:100AA000C749086000BFC64800680028FBD103465C
:100AB000E022FF2100900D2000F080FABF4800687E
:100AC00000EB4000BE49086000BFBD480068002838
:100AD000FBD10346F022FF210090072000F06EFAC0
:100AE000B648006800EB4000B549086000BFB44854
:100AF00000680028FBD10346FC22FF21009005205E
:100B000000F05CFAAD48006800EB4000AC490860BA
:100B100000BFAB4800680028FBD10346F022FF214C
:100B20000090072000F04AFAA448006800EB40005B
:100B3000A349086000BFA24800680028FBD1034613
:100B4000E022FF2100900F2000F038FA9B48006857
:100B500000EB40009A49086000BF994800680028EF
:100B6000FBD10346E022FF2100900F2000F026FA7F
:100B70009248006800EB40009149086000BF90482F
:100B800000680028FBD10346E022FF2100901F20CF
:100B900000F014FA8948006800EB400088490860BA
:100BA00000BF874800680028FBD10346F022FF21E0
:100BB00000901F2000F002FA8048006800EB40001F
:100BC0007F49086000BF7E4800680028FBD10346CB
:100BD000F822FF2100901F2000F0F0F9774800680C
:100BE00000EB40007649086000BF754800680028A7
:100BF000FBD10346FC22FF2100903F2000F0DEF9EC
:100C00006E48006800EB40006D49086000BF6C480A
:100C100000680028FBD10346FE22FF2100903F2000
:100C200000F0CCF96548006800EB400064490860BA
:100C300000BF634800680028FBD10346E422FF217F
:100C400000901F2000F0BAF95C48006800EB4000FB
:100C50005B49086000BF5A4800680028FBD1034682
:100C6000E022FF2100900F2000F0A8F9534800680F
:100C700000EB40005249086000BF5148006800285E
:100C8000FBD10346E022FF2100900F2000F096F9EF
:100C90004A48006800EB40004949086000BF4848E6
:100CA00000680028FBD10346C022FE2100900F20DF
:100CB00000F084F94148006800EB400040490860BA
:100CC00000BF3F4800680028FBD103460246FE21D2
:100CD00000900F2000F072F93848006800EB4000E7
:100CE0003749086000BF364800680028FBD1C020A3
:100CF00003230022FF2100900F2000F05FF92F480E
:100D0000006800EB40002E49086000BF2C480068D6
:100D10000028FBD1802003230022FC210090072023
:100D200000F04CF92548006800EB400024490860B9
:100D300000BF234800680028FBD180200723002241
:100D4000FC210090184600F039F91C48006800EBBF
:100D500040001B49086000BF194800680028FBD10B
:100D6000802007230022D8210090184600F026F9A1
:100D70001248006800EB40001149086000BF1048AD
:100D800000680028FBD10F23024680210090072035
:100D900000F014F90948006800EB400008490860B9
:100DA00000BF074800680028FBD10F2302468021BE
:100DB0000090184600F002F9004803E00C00002003
:100DC00004000020006800EB40007A49086000BF82
:100DD000784800680028FBD18020072300220146C4
:100DE0000090184600F0EAF87348006800EB4000F5
:100DF0007049086000BF6F4800680028FBD1C02020
:100E00000723002280210090184600F0D7F86A4896
:100E1000006800EB40006749086000BF6548006853
:100E20000028FBD1C0200F23002280210090072042
:100E300000F0C4F86048006800EB40005D490860BD
:100E400000BF5C4800680028FBD1D02007230022A7
:100E500060210090184600F0B1F85748006800EB98
:100E600040005449086000BF524800680028FBD188
:100E7000C0200123002240210090032000F09EF8B2
:100E80004D48006800EB40004A49086000BF4948EF
:100E900000680028FBD10346024680210090032011
:100EA00000F08CF84448006800EB400041490860BD
:100EB00000BF404800680028FBD10346024680215D
:100EC0000090032000F07AF83B48006800EB4000F7
:100ED0003849086000BF374800680028FBD1034646
:100EE000024680210090032000F068F83248006834
:100EF00000EB40002F49086000BF2E480068002822
:100F0000FBD10346024601460090022000F056F84D
:100F10002948006800EB40002649086000BF2548CA
:100F200000680028FBD103460246014600900220DB
:100F300000F044F82048006800EB40001D490860BC
:100F400000BF1C4800680028FBD10346024601464A
:100F50000090022000F032F81748006800EB4000D3
:100F60001449086000BF134800680028FBD10346FD
:100F700002460146009000F021F80F48006800EB9F
:100F800040000C49086000BF0A4800680028FBD1F7
:100F9000034602460146009000F010F8064800683B
:100FA00000EB40000349086000BF024800680028C9
:100FB000FBD108BD040000200C0000202DE9F04109
:100FC00007460C4615461E46DDF81880384600F0E8
:100FD00010F8204600F00DF8284600F00AF83046D8
:100FE00000F007F8404600F004F800F095FABDE87C
:100FF000F08110B5044604F0800018B1012000F023
:101000001BFA02E0002000F017FA00F005FB04F0E4
:10101000400018B1012000F00FFA02E0002000F0BB
:101020000BFA00F0F9FA04F0200018B1012000F0EA
:1010300003FA02E0002000F0FFF900F0EDFA04F0FE
:10104000100018B1012000F0F7F902E0002000F0D4
:10105000F3F900F0E1FA04F0080018B1012000F003
:10106000EBF902E0002000F0E7F900F0D5FA04F017
:10107000040018B1012000F0DFF902E0002000F0C8
:10108000DBF900F0C9FA04F0020018B1012000F009
:10109000D3F902E0002000F0CFF900F0BDFA04F02F
:1010A000010018B1012000F0C7F902E0002000F0B3
:1010B000C3F900F0B1FA10BD10B54FF4007000F0A4
:1010C00011F830B10020034908604FF4007000F0BF
:1010D00003F810BD080000200149086070470000B7
:1010E00014040140014600200022074B1B6803EA5C
:1010F0000102054B14331B680B4013B10AB10120E8
:1011000000E0002070470000000401400021234956
:101110008279002A3AD00A46126803689A430B463D
:101120001A600A1D126803689A430B1D1A6002793F
:1011300011440A6803681A430A60184A08321268A0
:1011400003689A43154B08331A601A1D1268036826
:101150009A43124B0C331A604279102A0ED11A1F8F
:10116000126803681A430D4B08331A601A1D12687F
:1011700003681A43094B0C331A600DE007494279A2
:1011800011440A6803681A430A6005E002791144B1
:101190000A6803689A430A6070470000000401402F
:1011A00030B500228B071C0F0F2303FA04F20B4B00
:1011B0008C1053F824309343084C8D1044F825309C
:1011C00023468C1053F824308C07240F00FA04F4C3
:1011D0002343024C8D1044F8253030BD08000140F7
:1011E0002DE9F041024600250026002000230024BE
:1011F000002791F803C00CF00F0591F803C00CF024
:10120000100CBCF1000F03D091F802C04CEA0505A8
:1012100091F800C0BCF1000F31D0146800202BE021
:101220004FF0010C0CFA00F3B1F800C00CEA030611
:101230009E4220D183004FF00F0C0CFA03F7BC4301
:1012400005FA03FC4CEA040491F803C0BCF1280F32
:1012500006D14FF0010C0CFA00FCC2F814C00AE0F1
:1012600091F803C0BCF1480F05D14FF0010C0CFA06
:1012700000FCC2F810C0401C0828D1D31460B1F89B
:1012800000C0BCF1FF0F34DD546800202EE000F1F7
:10129000080C4FF0010808FA0CF3B1F800C00CEA92
:1012A00003069E4221D183004FF00F0C0CFA03F786
:1012B000BC4305FA03FC4CEA040491F803C0BCF1FA
:1012C000280F05D100F1080C08FA0CF8C2F81480B8
:1012D00091F803C0BCF1480F07D100F1080C4FF0A2
:1012E000010808FA0CF8C2F81080401C0828CED378
:1012F0005460BDE8F081416170470161704700BFF3
:10130000FEE7000008B50121042000F0F3F80121F8
:10131000082000F0EFF81E20ADF8000010208DF836
:10132000030003208DF8020069461148FFF758FFBB
:101330004FF40070ADF8000004208DF80300032086
:101340008DF8020069460B48FFF74AFF0221084862
:10135000FFF7D1FF04210648FFF7CDFF082104481D
:10136000FFF7C9FF10210248FFF7C7FF08BD0000C3
:1013700000080140000C01400EB50121084600F0B4
:10138000B9F809210120FFF70BFF4FF40070FFF7B8
:10139000A3FE4FF40070019000208DF808000C208F
:1013A0008DF8090001208DF80A0001A8FFF7AEFEB4
:1013B00017208DF8000000208DF801008DF8020044
:1013C00001208DF80300684600F04AF80EBD1FB5F5
:1013D0000121084600F07EF80121022000F07AF891
:1013E0000920ADF804004720ADF808000020ADF852
:1013F000060001A94FF0804000F0B2F901218807F2
:1014000000F082F901221146900700F0A0F91C209B
:101410008DF8000001208DF8010000208DF80200F9
:1014200001208DF80300684600F01AF801218807B2
:1014300000F070F91FBD000010B5044624B1022170
:101440000448FFF75AFF03E002210248FFF753FF69
:1014500010BD00000008014000BFFEE7704700001B
:1014600070B5002100230F22C47804B3154C246802
:1014700004F4E064C4F5E064210AC1F10403CA4045
:10148000447804FA03F184781440214309010E4C96
:101490000678A155047804F01F050124AC400578B6
:1014A0006D11AD0005F1E025C5F8004109E00478B3
:1014B00004F01F050124AC40044D0678761145F870
:1014C000264070BD0CED00E000E400E080E100E0AB
:1014D0007047000029B1064AD2690243044BDA6121
:1014E00004E0034AD2698243014BDA61704700008D
:1014F0000010024029B1064A92690243044B9A61E6
:1015000004E0034A92698243014B9A6170470000EC
:10151000001002407047000010B508210348FFF793
:10152000EAFE08210148FFF7E8FE10BD000801406F
:1015300010B500F001F810BD0CB50020019000902E
:101540003348006840F480303149086000BF3048BB
:10155000006800F4003000900198401C0190009851
:1015600018B90198B0F5A06FF1D12948006800F4CE
:10157000003010B10120009001E0002000900098A0
:10158000012843D12348006840F010002149086039
:101590000846006820F0030008600846006840F034
:1015A000020008601A4840681949486008464068C7
:1015B00048600846406840F48060486008464068DB
:1015C00020F47C1048600846406840F4E810486009
:1015D0000846006840F08070086000BF0C48006852
:1015E00000F000700028F9D00948406820F003009E
:1015F000074948600846406840F00200486000BF64
:101600000348406800F00C000828F9D10CBD000028
:10161000001002400020024010B504210348FFF7EB
:101620006AFE04210148FFF768FE10BD0008014072
:101630000146B1F5B27F01DB40F263110848006852
:101640004843084A1268904208D805480068484351
:10165000044A1268904201D3012070470020FCE741
:101660000C0000200800002010B51348006840F06E
:1016700001001149086008464068104908400E49B9
:101680004860084600680E4908400B490860084653
:10169000006820F4802008600846406820F4FE00BE
:1016A00048604FF41F008860FFF742FF4FF0006072
:1016B0000449086010BD0000001002400000FFF85F
:1016C000FFFFF6FE08ED00E010B50121880700F0ED
:1016D0002DF890B109480068401C08490860084886
:1016E0000068401E0649086006480068401E05491B
:1016F00008600121880700F00AF810BD08000020EA
:101700000000002004000020CA4302827047CA4340
:101710000282704721B1028842F00102028004E097
:1017200002884FF6FE731A400280704730B50246B9
:10173000002000230024158A05EA0103958905EAA3
:10174000010413B10CB1012000E0002030BD1AB13A
:1017500083890B43838102E083898B4383817047B4
:10176000002202881D4B98420ED01D4B98420BD090
:10177000B0F1804F08D01B4B984205D01A4B9842CD
:1017800002D01A4B984204D14FF68F731A404B88FF
:101790001A43174B984207D0164B984204D04FF685
:1017A000FF431A40CB881A4302808B8883850B88BD
:1017B00003850A4B98420BD0094B984208D00E4B38
:1017C000984205D00D4B984202D00D4B984201D162
:1017D0000B7A03860123838270470000002C0140AE
:1017E000003401400004004000080040000C0040AC
:1017F000001000400014004000400140004401403F
:101800000048014000BFFEE702E008C8121F08C1FF
:10181000002AFAD170477047002001E001C1121F71
:10182000002AFBD17047FFF76DFDFFF7D0FDFFF7F2
:10183000A3FD05E0E620FFF7FBFE08B1FEF7AAFCDA
:10184000F8E7000064180008000000201400000001
:10185000081800087818000814000020040400008C
:101860001818000800000000000000000000000040
:08187000180000000000000058
:0400000508000145A9
:00000001FF
